{
  "contractName": "Market",
  "abi": [
    {
      "anonymous": false,
      "inputs": [],
      "name": "Aborted",
      "type": "event"
    },
    {
      "anonymous": false,
      "inputs": [
        {
          "indexed": false,
          "internalType": "address",
          "name": "winner",
          "type": "address"
        },
        {
          "indexed": false,
          "internalType": "uint256",
          "name": "highestBid",
          "type": "uint256"
        }
      ],
      "name": "AuctionEnded",
      "type": "event"
    },
    {
      "anonymous": false,
      "inputs": [
        {
          "indexed": false,
          "internalType": "address",
          "name": "winner",
          "type": "address"
        },
        {
          "indexed": false,
          "internalType": "uint256",
          "name": "highestBid",
          "type": "uint256"
        }
      ],
      "name": "AuctionStarted",
      "type": "event"
    },
    {
      "anonymous": false,
      "inputs": [
        {
          "indexed": true,
          "internalType": "address",
          "name": "seller",
          "type": "address"
        },
        {
          "indexed": true,
          "internalType": "uint256",
          "name": "index",
          "type": "uint256"
        }
      ],
      "name": "ListingChanged",
      "type": "event"
    },
    {
      "anonymous": false,
      "inputs": [
        {
          "indexed": true,
          "internalType": "uint256",
          "name": "listing_id",
          "type": "uint256"
        },
        {
          "indexed": false,
          "internalType": "address",
          "name": "seller",
          "type": "address"
        },
        {
          "indexed": false,
          "internalType": "uint256",
          "name": "price",
          "type": "uint256"
        },
        {
          "indexed": false,
          "internalType": "string",
          "name": "item_name",
          "type": "string"
        },
        {
          "indexed": false,
          "internalType": "string",
          "name": "item_description",
          "type": "string"
        }
      ],
      "name": "ListingCreated",
      "type": "event"
    },
    {
      "anonymous": false,
      "inputs": [
        {
          "components": [
            {
              "internalType": "uint256",
              "name": "listing_id",
              "type": "uint256"
            },
            {
              "internalType": "address payable",
              "name": "seller",
              "type": "address"
            },
            {
              "internalType": "address payable",
              "name": "buyer",
              "type": "address"
            },
            {
              "internalType": "uint256",
              "name": "price",
              "type": "uint256"
            },
            {
              "internalType": "string",
              "name": "item_name",
              "type": "string"
            },
            {
              "internalType": "string",
              "name": "item_description",
              "type": "string"
            },
            {
              "internalType": "bool",
              "name": "sold_or_withdrawn",
              "type": "bool"
            },
            {
              "internalType": "bool",
              "name": "buyer_alloted",
              "type": "bool"
            },
            {
              "internalType": "enum Market.State",
              "name": "state",
              "type": "uint8"
            }
          ],
          "indexed": false,
          "internalType": "struct Market.listings",
          "name": "list",
          "type": "tuple"
        }
      ],
      "name": "PurchaseComplete",
      "type": "event"
    },
    {
      "anonymous": false,
      "inputs": [
        {
          "components": [
            {
              "internalType": "uint256",
              "name": "listing_id",
              "type": "uint256"
            },
            {
              "internalType": "address payable",
              "name": "seller",
              "type": "address"
            },
            {
              "internalType": "address payable",
              "name": "buyer",
              "type": "address"
            },
            {
              "internalType": "uint256",
              "name": "price",
              "type": "uint256"
            },
            {
              "internalType": "string",
              "name": "item_name",
              "type": "string"
            },
            {
              "internalType": "string",
              "name": "item_description",
              "type": "string"
            },
            {
              "internalType": "bool",
              "name": "sold_or_withdrawn",
              "type": "bool"
            },
            {
              "internalType": "bool",
              "name": "buyer_alloted",
              "type": "bool"
            },
            {
              "internalType": "enum Market.State",
              "name": "state",
              "type": "uint8"
            }
          ],
          "indexed": false,
          "internalType": "struct Market.listings",
          "name": "list",
          "type": "tuple"
        },
        {
          "indexed": true,
          "internalType": "address",
          "name": "buyer",
          "type": "address"
        },
        {
          "indexed": false,
          "internalType": "string",
          "name": "pub_key",
          "type": "string"
        }
      ],
      "name": "PurchaseRequested",
      "type": "event"
    },
    {
      "anonymous": false,
      "inputs": [
        {
          "indexed": true,
          "internalType": "uint256",
          "name": "listing_id",
          "type": "uint256"
        },
        {
          "indexed": false,
          "internalType": "string",
          "name": "H",
          "type": "string"
        }
      ],
      "name": "encryptedKey",
      "type": "event"
    },
    {
      "constant": true,
      "inputs": [],
      "name": "activelistings",
      "outputs": [
        {
          "internalType": "uint256",
          "name": "",
          "type": "uint256"
        }
      ],
      "payable": false,
      "stateMutability": "view",
      "type": "function"
    },
    {
      "constant": true,
      "inputs": [],
      "name": "state",
      "outputs": [
        {
          "internalType": "enum Market.State",
          "name": "",
          "type": "uint8"
        }
      ],
      "payable": false,
      "stateMutability": "view",
      "type": "function"
    },
    {
      "constant": true,
      "inputs": [
        {
          "internalType": "address",
          "name": "account",
          "type": "address"
        }
      ],
      "name": "getAccountBalance",
      "outputs": [
        {
          "internalType": "uint256",
          "name": "accountBalance",
          "type": "uint256"
        }
      ],
      "payable": false,
      "stateMutability": "view",
      "type": "function"
    },
    {
      "constant": false,
      "inputs": [
        {
          "internalType": "uint256",
          "name": "price",
          "type": "uint256"
        },
        {
          "internalType": "string",
          "name": "item_name",
          "type": "string"
        },
        {
          "internalType": "string",
          "name": "item_description",
          "type": "string"
        }
      ],
      "name": "createListings",
      "outputs": [],
      "payable": true,
      "stateMutability": "payable",
      "type": "function"
    },
    {
      "constant": true,
      "inputs": [],
      "name": "fetchactivelistings",
      "outputs": [
        {
          "components": [
            {
              "internalType": "uint256",
              "name": "listing_id",
              "type": "uint256"
            },
            {
              "internalType": "address payable",
              "name": "seller",
              "type": "address"
            },
            {
              "internalType": "address payable",
              "name": "buyer",
              "type": "address"
            },
            {
              "internalType": "uint256",
              "name": "price",
              "type": "uint256"
            },
            {
              "internalType": "string",
              "name": "item_name",
              "type": "string"
            },
            {
              "internalType": "string",
              "name": "item_description",
              "type": "string"
            },
            {
              "internalType": "bool",
              "name": "sold_or_withdrawn",
              "type": "bool"
            },
            {
              "internalType": "bool",
              "name": "buyer_alloted",
              "type": "bool"
            },
            {
              "internalType": "enum Market.State",
              "name": "state",
              "type": "uint8"
            }
          ],
          "internalType": "struct Market.listings[]",
          "name": "",
          "type": "tuple[]"
        }
      ],
      "payable": false,
      "stateMutability": "view",
      "type": "function"
    },
    {
      "constant": false,
      "inputs": [
        {
          "internalType": "uint256",
          "name": "listing_id",
          "type": "uint256"
        },
        {
          "internalType": "string",
          "name": "pubkey",
          "type": "string"
        }
      ],
      "name": "requestBuy",
      "outputs": [],
      "payable": true,
      "stateMutability": "payable",
      "type": "function"
    },
    {
      "constant": false,
      "inputs": [
        {
          "internalType": "uint256",
          "name": "listing_id",
          "type": "uint256"
        },
        {
          "internalType": "string",
          "name": "H",
          "type": "string"
        }
      ],
      "name": "sellItem",
      "outputs": [],
      "payable": true,
      "stateMutability": "payable",
      "type": "function"
    },
    {
      "constant": false,
      "inputs": [
        {
          "internalType": "uint256",
          "name": "listing_id",
          "type": "uint256"
        }
      ],
      "name": "confirmDelivery",
      "outputs": [],
      "payable": true,
      "stateMutability": "payable",
      "type": "function"
    },
    {
      "constant": false,
      "inputs": [
        {
          "internalType": "uint256",
          "name": "listing_id",
          "type": "uint256"
        }
      ],
      "name": "abort",
      "outputs": [],
      "payable": false,
      "stateMutability": "nonpayable",
      "type": "function"
    }
  ],
  "bytecode": "0x608060405260008055600060015534801561001957600080fd5b506121c3806100296000396000f3fe6080604052600436106100865760003560e01c8063bc35529011610059578063bc3552901461012b578063c19d93fb14610156578063e50701f414610181578063f09c4905146101aa578063fd84cb97146101c657610086565b806314e24f6d1461008b5780631faa3538146100a757806384febc4b146100d257806393423e9c146100ee575b600080fd5b6100a560048036036100a091908101906115a3565b6101e2565b005b3480156100b357600080fd5b506100bc61050a565b6040516100c99190611cfe565b60405180910390f35b6100ec60048036036100e7919081019061154b565b610852565b005b3480156100fa57600080fd5b50610115600480360361011091908101906114f9565b610a83565b6040516101229190611eba565b60405180910390f35b34801561013757600080fd5b50610140610aa4565b60405161014d9190611eba565b60405180910390f35b34801561016257600080fd5b5061016b610aaa565b6040516101789190611d20565b60405180910390f35b34801561018d57600080fd5b506101a860048036036101a39190810190611522565b610abd565b005b6101c460048036036101bf919081019061154b565b610c17565b005b6101e060048036036101db9190810190611522565b610f93565b005b60008511806101f057600080fd5b60008054905060016000808282540192505081905550600180600082825401925050819055506040518061012001604052808281526020013373ffffffffffffffffffffffffffffffffffffffff168152602001600073ffffffffffffffffffffffffffffffffffffffff16815260200188815260200187878080601f016020809104026020016040519081016040528093929190818152602001838380828437600081840152601f19601f82011690508083019250505050505050815260200185858080601f016020809104026020016040519081016040528093929190818152602001838380828437600081840152601f19601f8201169050808301925050505050505081526020016000151581526020016000151581526020016001600481111561031a57fe5b815250600260008381526020019081526020016000206000820151816000015560208201518160010160006101000a81548173ffffffffffffffffffffffffffffffffffffffff021916908373ffffffffffffffffffffffffffffffffffffffff16021790555060408201518160020160006101000a81548173ffffffffffffffffffffffffffffffffffffffff021916908373ffffffffffffffffffffffffffffffffffffffff1602179055506060820151816003015560808201518160040190805190602001906103ee929190611359565b5060a082015181600501908051906020019061040b929190611359565b5060c08201518160060160006101000a81548160ff02191690831515021790555060e08201518160060160016101000a81548160ff0219169083151502179055506101008201518160060160026101000a81548160ff0219169083600481111561047157fe5b0217905550905050807f6046a0779403a9b58628db4e89f8fb48ddd1844ca3df25a728482823988b43af3389898989896040516104b396959493929190611ca7565b60405180910390a26001543373ffffffffffffffffffffffffffffffffffffffff167fe5317da7a2a5a513758a425cd8d8926ce3e58f239f2c630a790fc6b038dd3bd060405160405180910390a350505050505050565b60606000809050606060015460405190808252806020026020018201604052801561054f57816020015b61053c6113d9565b8152602001906001900390816105345790505b50905060008090505b60005481101561084957600015156002600083815260200190815260200160002060060160009054906101000a900460ff161515141561083c5760006002600083815260200190815260200160002090508060405180610120016040529081600082015481526020016001820160009054906101000a900473ffffffffffffffffffffffffffffffffffffffff1673ffffffffffffffffffffffffffffffffffffffff1673ffffffffffffffffffffffffffffffffffffffff1681526020016002820160009054906101000a900473ffffffffffffffffffffffffffffffffffffffff1673ffffffffffffffffffffffffffffffffffffffff1673ffffffffffffffffffffffffffffffffffffffff16815260200160038201548152602001600482018054600181600116156101000203166002900480601f01602080910402602001604051908101604052809291908181526020018280546001816001161561010002031660029004801561070f5780601f106106e45761010080835404028352916020019161070f565b820191906000526020600020905b8154815290600101906020018083116106f257829003601f168201915b50505050508152602001600582018054600181600116156101000203166002900480601f0160208091040260200160405190810160405280929190818152602001828054600181600116156101000203166002900480156107b15780601f10610786576101008083540402835291602001916107b1565b820191906000526020600020905b81548152906001019060200180831161079457829003601f168201915b505050505081526020016006820160009054906101000a900460ff161515151581526020016006820160019054906101000a900460ff161515151581526020016006820160029054906101000a900460ff16600481111561080e57fe5b600481111561081957fe5b8152505083858151811061082957fe5b6020026020010181905250600184019350505b8080600101915050610558565b50809250505090565b8260005481108015610865575060008110155b6108a4576040517f08c379a000000000000000000000000000000000000000000000000000000000815260040161089b90611dbf565b60405180910390fd5b833373ffffffffffffffffffffffffffffffffffffffff166002600083815260200190815260200160002060020160009054906101000a900473ffffffffffffffffffffffffffffffffffffffff1673ffffffffffffffffffffffffffffffffffffffff16141561094a576040517f08c379a000000000000000000000000000000000000000000000000000000000815260040161094190611d7f565b60405180910390fd5b846002600082815260200190815260200160002060060160009054906101000a900460ff16156109af576040517f08c379a00000000000000000000000000000000000000000000000000000000081526004016109a690611e1f565b60405180910390fd5b60026000878152602001908152602001600020600301546002023414610a0a576040517f08c379a0000000000000000000000000000000000000000000000000000000008152600401610a0190611ddf565b60405180910390fd5b600280600088815260200190815260200160002060060160026101000a81548160ff02191690836004811115610a3c57fe5b0217905550857f45bd963234a41bc8d75b2e2caf57f0987f5d405e1d4bbf09b919faeff927937c8686604051610a73929190611d3b565b60405180910390a2505050505050565b60008173ffffffffffffffffffffffffffffffffffffffff16319050919050565b60015481565b600360009054906101000a900460ff1681565b806002600082815260200190815260200160002060060160009054906101000a900460ff1615610b22576040517f08c379a0000000000000000000000000000000000000000000000000000000008152600401610b1990611e1f565b60405180910390fd5b7f72c874aeff0b183a56e2b79c71b46e1aed4dee5e09862134b8821ba2fddbf8bf60405160405180910390a160046002600084815260200190815260200160002060060160026101000a81548160ff02191690836004811115610b8157fe5b0217905550600180600082825403925050819055506002600083815260200190815260200160002060010160009054906101000a900473ffffffffffffffffffffffffffffffffffffffff1673ffffffffffffffffffffffffffffffffffffffff166108fc479081150290604051600060405180830381858888f19350505050158015610c12573d6000803e3d6000fd5b505050565b823373ffffffffffffffffffffffffffffffffffffffff166002600083815260200190815260200160002060010160009054906101000a900473ffffffffffffffffffffffffffffffffffffffff1673ffffffffffffffffffffffffffffffffffffffff161415610cbd576040517f08c379a0000000000000000000000000000000000000000000000000000000008152600401610cb490611e3f565b60405180910390fd5b8360005481108015610cd0575060008110155b610d0f576040517f08c379a0000000000000000000000000000000000000000000000000000000008152600401610d0690611dbf565b60405180910390fd5b846002600082815260200190815260200160002060060160009054906101000a900460ff1615610d74576040517f08c379a0000000000000000000000000000000000000000000000000000000008152600401610d6b90611e1f565b60405180910390fd5b6002600087815260200190815260200160002060060160019054906101000a900460ff1615610dd8576040517f08c379a0000000000000000000000000000000000000000000000000000000008152600401610dcf90611dff565b60405180910390fd5b60026000878152602001908152602001600020600301543373ffffffffffffffffffffffffffffffffffffffff16311015610e48576040517f08c379a0000000000000000000000000000000000000000000000000000000008152600401610e3f90611d5f565b60405180910390fd5b60026000878152602001908152602001600020600301546002023414610ea3576040517f08c379a0000000000000000000000000000000000000000000000000000000008152600401610e9a90611d9f565b60405180910390fd5b336002600088815260200190815260200160002060020160006101000a81548173ffffffffffffffffffffffffffffffffffffffff021916908373ffffffffffffffffffffffffffffffffffffffff16021790555060016002600088815260200190815260200160002060060160016101000a81548160ff0219169083151502179055503373ffffffffffffffffffffffffffffffffffffffff167f884ed74280c80e235164ee6c4509e76c829ec7a6923f8a272c21662f614f1227600260008981526020019081526020016000208787604051610f8393929190611e81565b60405180910390a2505050505050565b8060005481108015610fa6575060008110155b610fe5576040517f08c379a0000000000000000000000000000000000000000000000000000000008152600401610fdc90611dbf565b60405180910390fd5b813373ffffffffffffffffffffffffffffffffffffffff166002600083815260200190815260200160002060010160009054906101000a900473ffffffffffffffffffffffffffffffffffffffff1673ffffffffffffffffffffffffffffffffffffffff16141561108b576040517f08c379a000000000000000000000000000000000000000000000000000000000815260040161108290611e3f565b60405180910390fd5b826002600082815260200190815260200160002060060160009054906101000a900460ff16156110f0576040517f08c379a00000000000000000000000000000000000000000000000000000000081526004016110e790611e1f565b60405180910390fd5b60016002600086815260200190815260200160002060060160006101000a81548160ff0219169083151502179055506002600085815260200190815260200160002060010160009054906101000a900473ffffffffffffffffffffffffffffffffffffffff1673ffffffffffffffffffffffffffffffffffffffff166108fc60026000878152602001908152602001600020600301546003029081150290604051600060405180830381858888f193505050501580156111b4573d6000803e3d6000fd5b506002600085815260200190815260200160002060020160009054906101000a900473ffffffffffffffffffffffffffffffffffffffff1673ffffffffffffffffffffffffffffffffffffffff166108fc60026000878152602001908152602001600020600301549081150290604051600060405180830381858888f19350505050158015611247573d6000803e3d6000fd5b506001806000828254039250508190555060036002600086815260200190815260200160002060060160026101000a81548160ff0219169083600481111561128b57fe5b0217905550836002600086815260200190815260200160002060010160009054906101000a900473ffffffffffffffffffffffffffffffffffffffff1673ffffffffffffffffffffffffffffffffffffffff167fe5317da7a2a5a513758a425cd8d8926ce3e58f239f2c630a790fc6b038dd3bd060405160405180910390a37f2f4f99c1a14dde9d397a66d20b6f1ebee672fcdfe0daf39cdd4f1a346fc16db56002600086815260200190815260200160002060405161134b9190611e5f565b60405180910390a150505050565b828054600181600116156101000203166002900490600052602060002090601f016020900481019282601f1061139a57805160ff19168380011785556113c8565b828001600101855582156113c8579182015b828111156113c75782518255916020019190600101906113ac565b5b5090506113d59190611460565b5090565b60405180610120016040528060008152602001600073ffffffffffffffffffffffffffffffffffffffff168152602001600073ffffffffffffffffffffffffffffffffffffffff1681526020016000815260200160608152602001606081526020016000151581526020016000151581526020016000600481111561145a57fe5b81525090565b61148291905b8082111561147e576000816000905550600101611466565b5090565b90565b60008135905061149481612152565b92915050565b60008083601f8401126114ac57600080fd5b8235905067ffffffffffffffff8111156114c557600080fd5b6020830191508360018202830111156114dd57600080fd5b9250929050565b6000813590506114f381612169565b92915050565b60006020828403121561150b57600080fd5b600061151984828501611485565b91505092915050565b60006020828403121561153457600080fd5b6000611542848285016114e4565b91505092915050565b60008060006040848603121561156057600080fd5b600061156e868287016114e4565b935050602084013567ffffffffffffffff81111561158b57600080fd5b6115978682870161149a565b92509250509250925092565b6000806000806000606086880312156115bb57600080fd5b60006115c9888289016114e4565b955050602086013567ffffffffffffffff8111156115e657600080fd5b6115f28882890161149a565b9450945050604086013567ffffffffffffffff81111561161157600080fd5b61161d8882890161149a565b92509250509295509295909350565b60006116388383611ab3565b905092915050565b61164981612001565b82525050565b61165881611fa6565b82525050565b600061166982611efa565b6116738185611f1d565b93508360208202850161168585611ed5565b8060005b858110156116c157848403895281516116a2858261162c565b94506116ad83611f10565b925060208a01995050600181019050611689565b50829750879550505050505092915050565b6116dc81611fb8565b82525050565b6116eb81612013565b82525050565b6116fa81612013565b82525050565b600061170c8385611f3f565b9350611719838584612049565b6117228361210d565b840190509392505050565b600061173882611f05565b6117428185611f2e565b9350611752818560208601612058565b61175b8161210d565b840191505092915050565b60008154600181166000811461178357600181146117a9576117ed565b607f60028304166117948187611f2e565b955060ff1983168652602086019350506117ed565b600282046117b78187611f2e565b95506117c285611ee5565b60005b828110156117e4578154818901526001820191506020810190506117c5565b80880195505050505b505092915050565b6000611802602383611f3f565b91507f496e737566696369656e742042616c616e636520666f72207472616e7361637460008301527f696f6e00000000000000000000000000000000000000000000000000000000006020830152604082019050919050565b6000611868600e83611f3f565b91507f496e76616c69642053656c6c65720000000000000000000000000000000000006000830152602082019050919050565b60006118a8603083611f3f565b91507f546865207265717569726564206465706f73697420666f72207468652070757260008301527f6368617365206e6f7420676976656e20000000000000000000000000000000006020830152604082019050919050565b600061190e601283611f3f565b91507f496e76616c6964204c697374696e6720496400000000000000000000000000006000830152602082019050919050565b600061194e602683611f3f565b91507f596f752068617665206e6f74207061696420746865207365637572697479206460008301527f65706f73697400000000000000000000000000000000000000000000000000006020830152604082019050919050565b60006119b4603483611f3f565b91507f746865206974656d20616c72656164792068617320612062757965722c696e2060008301527f6d69647374206f66207472616e73616374696f6e0000000000000000000000006020830152604082019050919050565b6000611a1a602883611f3f565b91507f4974656d2068617320616c7265616479206265656e20626f75676874202f207760008301527f697468647261776e0000000000000000000000000000000000000000000000006020830152604082019050919050565b6000611a80600d83611f3f565b91507f496e76616c6964204275796572000000000000000000000000000000000000006000830152602082019050919050565b600061012083016000830151611acc6000860182611c89565b506020830151611adf602086018261164f565b506040830151611af2604086018261164f565b506060830151611b056060860182611c89565b5060808301518482036080860152611b1d828261172d565b91505060a083015184820360a0860152611b37828261172d565b91505060c0830151611b4c60c08601826116d3565b5060e0830151611b5f60e08601826116d3565b50610100830151611b746101008601826116e2565b508091505092915050565b600061012083016000808401549050611b97816120bf565b611ba46000870182611c89565b5060018401549050611bb58161208b565b611bc2602087018261164f565b5060028401549050611bd38161208b565b611be0604087018261164f565b5060038401549050611bf1816120bf565b611bfe6060870182611c89565b50600484018583036080870152611c158382611766565b9250506005840185830360a0870152611c2e8382611766565b92505060068401549050611c41816120a5565b611c4e60c08701826116d3565b50611c58816120d9565b611c6560e08701826116d3565b50611c6f816120f3565b611c7d6101008701826116e2565b50819250505092915050565b611c9281611ff7565b82525050565b611ca181611ff7565b82525050565b6000608082019050611cbc6000830189611640565b611cc96020830188611c98565b8181036040830152611cdc818688611700565b90508181036060830152611cf1818486611700565b9050979650505050505050565b60006020820190508181036000830152611d18818461165e565b905092915050565b6000602082019050611d3560008301846116f1565b92915050565b60006020820190508181036000830152611d56818486611700565b90509392505050565b60006020820190508181036000830152611d78816117f5565b9050919050565b60006020820190508181036000830152611d988161185b565b9050919050565b60006020820190508181036000830152611db88161189b565b9050919050565b60006020820190508181036000830152611dd881611901565b9050919050565b60006020820190508181036000830152611df881611941565b9050919050565b60006020820190508181036000830152611e18816119a7565b9050919050565b60006020820190508181036000830152611e3881611a0d565b9050919050565b60006020820190508181036000830152611e5881611a73565b9050919050565b60006020820190508181036000830152611e798184611b7f565b905092915050565b60006040820190508181036000830152611e9b8186611b7f565b90508181036020830152611eb0818486611700565b9050949350505050565b6000602082019050611ecf6000830184611c98565b92915050565b6000819050602082019050919050565b60008190508160005260206000209050919050565b600081519050919050565b600081519050919050565b6000602082019050919050565b600082825260208201905092915050565b600082825260208201905092915050565b600082825260208201905092915050565b600073ffffffffffffffffffffffffffffffffffffffff82169050919050565b600060ff82169050919050565b600060ff82169050919050565b6000819050919050565b6000611f9f82611fd7565b9050919050565b6000611fb182611fd7565b9050919050565b60008115159050919050565b6000819050611fd282612145565b919050565b600073ffffffffffffffffffffffffffffffffffffffff82169050919050565b6000819050919050565b600061200c82612025565b9050919050565b600061201e82611fc4565b9050919050565b600061203082612037565b9050919050565b600061204282611fd7565b9050919050565b82818337600083830152505050565b60005b8381101561207657808201518184015260208101905061205b565b83811115612085576000848401525b50505050565b600061209e6120998361211e565b611f50565b9050919050565b60006120b86120b38361211e565b611f70565b9050919050565b60006120d26120cd8361211e565b611f8a565b9050919050565b60006120ec6120e783612138565b611f70565b9050919050565b60006121066121018361212b565b611f7d565b9050919050565b6000601f19601f8301169050919050565b60008160001c9050919050565b60008160101c9050919050565b60008160081c9050919050565b6005811061214f57fe5b50565b61215b81611f94565b811461216657600080fd5b50565b61217281611ff7565b811461217d57600080fd5b5056fea365627a7a723158200ec6a245b22ab4a8ebd6ca3a01be74499d9867c7f226e049cd4b4e27e228143e6c6578706572696d656e74616cf564736f6c63430005100040",
  "source": "/// SPDX-License-Identifier: MIT\npragma solidity >=0.4.22 <0.9.0;\npragma experimental ABIEncoderV2;\n\n/// @title The contract for buying and selling items on a market\ncontract Market {\n    uint256 current_listing_id = 0;\n    uint256 public activelistings = 0;\n\n    struct Bid {\n        bytes32 bidHash;\n        uint256 bidAmount;\n    }\n    /// @notice structure for each listings\n    /// @dev uint is the unique listing id\n    /// @dev seller stores the seller address\n    /// @dev buyer stores the buyer address\n    /// @dev price is the price of the item\n    /// @dev item_name is the name of the item\n    /// @dev item_description has the description of the item\n\n    struct listings {\n        uint256 listing_id;\n        address payable seller;\n        address payable buyer;\n        uint256 price;\n        string item_name;\n        string item_description;\n        bool sold_or_withdrawn;\n        bool buyer_alloted;\n        State state;\n    }\n\n    /// @dev this event is emitted when a listing is created\n    event ListingCreated(\n        uint256 indexed listing_id,\n        address seller,\n        uint256 price,\n        string item_name,\n        string item_description\n    );\n    /// @dev this event is for when listing is modified ,item sold or withdrawn\n    event ListingChanged(address indexed seller, uint256 indexed index);\n    /// @dev this event is for when item purchase is requested by buyer\n    event PurchaseRequested(\n        listings list,\n        address indexed buyer,\n        string pub_key\n    );\n    /// @dev this event is for when seller confirms item purchase by buyer\n    event encryptedKey(uint256 indexed listing_id, string H);\n    /// @dev event emitted when the a item is bought and both the seller and buyer gets the money/item\n    event PurchaseComplete(listings list);\n    /// @dev this event is for when transaction is aborted\n    event Aborted();\n\n    /// @dev this event is for when listing is modified ,item sold or withdrawn\n    event AuctionStarted(address winner, uint256 highestBid);\n    /// @dev this event is for when listing is modified ,item sold or withdrawn\n    event AuctionEnded(address winner, uint256 highestBid);\n\n    /// @dev create a listing for all possible listing id and make it private\n    mapping(uint256 => listings) private Listings;\n\n    /// @dev State variables for the items listed. By default, it is Created\n    enum State {\n        Created,\n        Active,\n        Sold,\n        Delivered,\n        Inactive\n    }\n    State public state;\n\n    /// @notice Check whether a given condition is true\n    /// @param _condition condition statement to verify.\n    modifier condition(bool _condition) {\n        require(_condition);\n        _;\n    }\n\n    /// @notice Seller cannot be buyer of the same item\n    /// @param listing_id Id of the listing.\n    modifier ValidBuyer(uint256 listing_id) {\n        require(Listings[listing_id].seller != msg.sender, \"Invalid Buyer\");\n        _;\n    }\n\n    /// @notice Buyer cannot be seller of the same item\n    /// @param listing_id Id of the listing.\n    modifier ValidSeller(uint256 listing_id) {\n        require(Listings[listing_id].buyer != msg.sender, \"Invalid Seller\");\n        _;\n    }\n\n    /// @notice Check that an item is available\n    /// @param listing_id Id of the listing.\n    modifier CheckState(uint256 listing_id) {\n        require(\n            !Listings[listing_id].sold_or_withdrawn,\n            \"Item has already been bought / withdrawn\"\n        );\n        _;\n    }\n\n    /// @notice Item in use should be a valid listing\n    /// @param listing_id Id of the listing.\n    modifier ValidListing(uint256 listing_id) {\n        require(\n            listing_id < current_listing_id && listing_id >= 0,\n            \"Invalid Listing Id\"\n        );\n        _;\n    }\n\n    modifier onlyBefore(uint256 _time) {\n        require(block.timestamp < _time);\n        _;\n    }\n    modifier onlyAfter(uint256 _time) {\n        require(block.timestamp > _time);\n        _;\n    }\n\n    /// @notice Check that the string meets the required criteria\n    /// @param str The item string.\n    modifier ValidString(string memory str) {\n        require(\n            bytes(str).length <= 50,\n            \"String Length is 50 characters maximum\"\n        );\n        _;\n    }\n\n    /// @notice returns balance of account\n    /// @param account Address of the account.\n    function getAccountBalance(address account)\n        public\n        view\n        returns (uint256 accountBalance)\n    {\n        accountBalance = account.balance;\n    }\n\n    /// @notice Create a listing for sale in the market place\n    /// @param price Price of the item listed.\n    /// @param item_name Name of item listed\n    /// @param item_description Description of item.\n    function createListings(\n        uint256 price,\n        string calldata item_name,\n        string calldata item_description\n    ) external payable condition(price > 0) {\n        uint256 listing_id = current_listing_id;\n        current_listing_id += 1;\n        activelistings += 1;\n\n        Listings[listing_id] = listings(\n            listing_id,\n            msg.sender,\n            address(0),\n            price,\n            item_name,\n            item_description,\n            false,\n            false,\n            State.Active\n        );\n        /// @dev emit the update\n        emit ListingCreated(\n            listing_id,\n            msg.sender,\n            price,\n            item_name,\n            item_description\n        );\n        emit ListingChanged(msg.sender, activelistings);\n    }\n\n    /// @notice Get all the active listings items in the market\n    /// @return a list of active listings\n    function fetchactivelistings() external view returns (listings[] memory) {\n        uint256 currentIndex = 0;\n\n        listings[] memory active_list = new listings[](activelistings);\n        for (uint256 i = 0; i < current_listing_id; i++) {\n            /// @dev only consider listings which are unsold/not withdrawn\n            if (Listings[i].sold_or_withdrawn == false) {\n                listings storage currentlisting = Listings[i];\n                active_list[currentIndex] = currentlisting;\n                currentIndex += 1;\n            }\n        }\n        return active_list;\n    }\n\n    /// @notice Request from buyer to seller for item's purchase\n    /// @dev the contract emits a event to let the seller know that an buyer has been found\n    /// @param listing_id is the id of the item buyer is interested in\n    function requestBuy(uint256 listing_id, string calldata pubkey)\n        external\n        payable\n        ValidBuyer(listing_id)\n        ValidListing(listing_id)\n        CheckState(listing_id)\n    {\n        /// Check whether item has a buyer already\n        require(\n            !Listings[listing_id].buyer_alloted,\n            \"the item already has a buyer,in midst of transaction\"\n        );\n\n        /// Check sufficient balance for transfer\n        require(\n            msg.sender.balance >= Listings[listing_id].price,\n            \"Insuficient Balance for transaction\"\n        );\n\n        /// Check whether you have provided 2 times the selling price,for security purposes\n        require(\n            msg.value == 2 * Listings[listing_id].price,\n            \"The required deposit for the purchase not given \"\n        );\n\n        /// Let the seller know you have found a buyer\n        Listings[listing_id].buyer = msg.sender;\n        Listings[listing_id].buyer_alloted = true;\n        emit PurchaseRequested(Listings[listing_id], msg.sender, pubkey);\n    }\n\n    /// @notice Sale of item from seller's side\n    /// @dev Transaction from the seller\n    /// @dev listing id is the id of the item being sold_\n    /// @dev H is the unique string for the item\n    function sellItem(uint256 listing_id, string calldata H)\n        external\n        payable\n        ValidListing(listing_id)\n        /// ValidString(H)\n        ValidSeller(listing_id)\n        CheckState(listing_id)\n    {\n        /// Check the security deposits\n        require(\n            msg.value == 2 * Listings[listing_id].price,\n            \"You have not paid the security deposit\"\n        );\n        Listings[listing_id].state = State.Sold;\n        /// Listings[listing_id].sold_or_withdrawn = true;\n\n        emit encryptedKey(listing_id, H);\n    }\n\n    /// @notice Confirmation from buyer on receiving item\n    /// @dev the buyer confirms to get the refund of the money owed.(price)\n    /// @dev the seller gets his amount + price (3 * price)\n    /// @param listing_id the listing id is the item being exchanged\n    function confirmDelivery(uint256 listing_id)\n        external\n        payable\n        ValidListing(listing_id)\n        ValidBuyer(listing_id)\n        CheckState(listing_id)\n    {\n        /// Refund the seller\n        Listings[listing_id].sold_or_withdrawn = true;\n        Listings[listing_id].seller.transfer(3 * Listings[listing_id].price);\n        /// Refund the buyer\n        Listings[listing_id].buyer.transfer(Listings[listing_id].price);\n        activelistings -= 1;\n        Listings[listing_id].state = State.Delivered;\n        emit ListingChanged(Listings[listing_id].seller, listing_id);\n        emit PurchaseComplete(Listings[listing_id]);\n    }\n\n    /// @notice Abort the purchase and reclaim the ether.\n    function abort(uint256 listing_id) public CheckState(listing_id) {\n        emit Aborted();\n        Listings[listing_id].state = State.Inactive;\n        activelistings -= 1;\n        Listings[listing_id].seller.transfer(address(this).balance);\n    }\n}\n",
  "sourcePath": "/home/rutvij/programming/Assignments/DTBC/Block-Chain-Collab/Assignments/2/contracts/Market.sol",
  "compiler": {
    "name": "solc",
    "version": "0.5.16+commit.9c3226ce.Emscripten.clang"
  },
  "schemaVersion": "3.4.3",
  "updatedAt": "2021-10-09T16:53:08.727Z",
  "networkType": "ethereum",
  "devdoc": {
    "methods": {
      "confirmDelivery(uint256)": {
        "details": "the buyer confirms to get the refund of the money owed.(price)the seller gets his amount + price (3 * price)",
        "params": {
          "listing_id": "the listing id is the item being exchanged"
        }
      },
      "createListings(uint256,string,string)": {
        "params": {
          "item_description": "Description of item.",
          "item_name": "Name of item listed",
          "price": "Price of the item listed."
        }
      },
      "fetchactivelistings()": {
        "return": "a list of active listings"
      },
      "getAccountBalance(address)": {
        "params": {
          "account": "Address of the account."
        }
      },
      "requestBuy(uint256,string)": {
        "details": "the contract emits a event to let the seller know that an buyer has been found",
        "params": {
          "listing_id": "is the id of the item buyer is interested in"
        }
      },
      "sellItem(uint256,string)": {
        "details": "Transaction from the sellerlisting id is the id of the item being sold_H is the unique string for the item"
      }
    },
    "title": "The contract for buying and selling items on a market"
  },
  "userdoc": {
    "methods": {
      "abort(uint256)": {
        "notice": "Abort the purchase and reclaim the ether."
      },
      "confirmDelivery(uint256)": {
        "notice": "Confirmation from buyer on receiving item"
      },
      "createListings(uint256,string,string)": {
        "notice": "Create a listing for sale in the market place"
      },
      "fetchactivelistings()": {
        "notice": "Get all the active listings items in the market"
      },
      "getAccountBalance(address)": {
        "notice": "returns balance of account"
      },
      "requestBuy(uint256,string)": {
        "notice": "Request from buyer to seller for item's purchase"
      },
      "sellItem(uint256,string)": {
        "notice": "Sale of item from seller's side"
      }
    }
  }
}