{
  "contractName": "VikreyAuction",
  "abi": [
    {
      "inputs": [
        {
          "internalType": "uint256",
          "name": "_listing_id",
          "type": "uint256"
        },
        {
          "internalType": "uint256",
          "name": "bidding_time",
          "type": "uint256"
        },
        {
          "internalType": "uint256",
          "name": "reveal_time",
          "type": "uint256"
        },
        {
          "internalType": "address payable",
          "name": "_beneficiary",
          "type": "address"
        }
      ],
      "payable": false,
      "stateMutability": "nonpayable",
      "type": "constructor"
    },
    {
      "anonymous": false,
      "inputs": [
        {
          "indexed": false,
          "internalType": "address",
          "name": "winner",
          "type": "address"
        },
        {
          "indexed": false,
          "internalType": "uint256",
          "name": "secondHighestBid",
          "type": "uint256"
        }
      ],
      "name": "AuctionEnded",
      "type": "event"
    },
    {
      "anonymous": false,
      "inputs": [
        {
          "indexed": false,
          "internalType": "address",
          "name": "bidder",
          "type": "address"
        },
        {
          "indexed": false,
          "internalType": "uint256",
          "name": "deposit",
          "type": "uint256"
        }
      ],
      "name": "BidForItem",
      "type": "event"
    },
    {
      "anonymous": false,
      "inputs": [
        {
          "indexed": false,
          "internalType": "address",
          "name": "bidder",
          "type": "address"
        },
        {
          "indexed": false,
          "internalType": "uint256",
          "name": "value",
          "type": "uint256"
        }
      ],
      "name": "BidderWithdrawn",
      "type": "event"
    },
    {
      "anonymous": false,
      "inputs": [
        {
          "indexed": false,
          "internalType": "address",
          "name": "bidder",
          "type": "address"
        },
        {
          "indexed": false,
          "internalType": "uint256",
          "name": "value",
          "type": "uint256"
        }
      ],
      "name": "InvalidBidRevealed",
      "type": "event"
    },
    {
      "anonymous": false,
      "inputs": [
        {
          "indexed": false,
          "internalType": "address",
          "name": "bidder",
          "type": "address"
        },
        {
          "indexed": false,
          "internalType": "uint256",
          "name": "value",
          "type": "uint256"
        }
      ],
      "name": "ValidBidRevealed",
      "type": "event"
    },
    {
      "constant": true,
      "inputs": [],
      "name": "beneficiary",
      "outputs": [
        {
          "internalType": "address payable",
          "name": "",
          "type": "address"
        }
      ],
      "payable": false,
      "stateMutability": "view",
      "type": "function"
    },
    {
      "constant": true,
      "inputs": [
        {
          "internalType": "address",
          "name": "",
          "type": "address"
        }
      ],
      "name": "bidAlready",
      "outputs": [
        {
          "internalType": "bool",
          "name": "",
          "type": "bool"
        }
      ],
      "payable": false,
      "stateMutability": "view",
      "type": "function"
    },
    {
      "constant": true,
      "inputs": [],
      "name": "biddingEnd",
      "outputs": [
        {
          "internalType": "uint256",
          "name": "",
          "type": "uint256"
        }
      ],
      "payable": false,
      "stateMutability": "view",
      "type": "function"
    },
    {
      "constant": true,
      "inputs": [
        {
          "internalType": "address",
          "name": "",
          "type": "address"
        }
      ],
      "name": "bids",
      "outputs": [
        {
          "internalType": "bytes32",
          "name": "bidHash",
          "type": "bytes32"
        },
        {
          "internalType": "uint256",
          "name": "deposit",
          "type": "uint256"
        }
      ],
      "payable": false,
      "stateMutability": "view",
      "type": "function"
    },
    {
      "constant": true,
      "inputs": [],
      "name": "ended",
      "outputs": [
        {
          "internalType": "bool",
          "name": "",
          "type": "bool"
        }
      ],
      "payable": false,
      "stateMutability": "view",
      "type": "function"
    },
    {
      "constant": true,
      "inputs": [],
      "name": "highestBid",
      "outputs": [
        {
          "internalType": "uint256",
          "name": "",
          "type": "uint256"
        }
      ],
      "payable": false,
      "stateMutability": "view",
      "type": "function"
    },
    {
      "constant": true,
      "inputs": [],
      "name": "revealEnd",
      "outputs": [
        {
          "internalType": "uint256",
          "name": "",
          "type": "uint256"
        }
      ],
      "payable": false,
      "stateMutability": "view",
      "type": "function"
    },
    {
      "constant": true,
      "inputs": [],
      "name": "secondHighestBid",
      "outputs": [
        {
          "internalType": "uint256",
          "name": "",
          "type": "uint256"
        }
      ],
      "payable": false,
      "stateMutability": "view",
      "type": "function"
    },
    {
      "constant": true,
      "inputs": [],
      "name": "winner",
      "outputs": [
        {
          "internalType": "address payable",
          "name": "",
          "type": "address"
        }
      ],
      "payable": false,
      "stateMutability": "view",
      "type": "function"
    },
    {
      "constant": false,
      "inputs": [
        {
          "internalType": "bytes32",
          "name": "bid_hash",
          "type": "bytes32"
        }
      ],
      "name": "bid",
      "outputs": [],
      "payable": true,
      "stateMutability": "payable",
      "type": "function"
    },
    {
      "constant": false,
      "inputs": [
        {
          "internalType": "uint256",
          "name": "value",
          "type": "uint256"
        },
        {
          "internalType": "bytes32",
          "name": "secret",
          "type": "bytes32"
        }
      ],
      "name": "reveal",
      "outputs": [],
      "payable": false,
      "stateMutability": "nonpayable",
      "type": "function"
    },
    {
      "constant": false,
      "inputs": [],
      "name": "withdraw",
      "outputs": [],
      "payable": false,
      "stateMutability": "nonpayable",
      "type": "function"
    },
    {
      "constant": false,
      "inputs": [],
      "name": "endAuction",
      "outputs": [],
      "payable": false,
      "stateMutability": "nonpayable",
      "type": "function"
    }
  ],
  "bytecode": "0x60806040523480156200001157600080fd5b5060405162001401380380620014018339818101604052620000379190810190620000ca565b836002819055508242016003819055508160035401600481905550806000806101000a81548173ffffffffffffffffffffffffffffffffffffffff021916908373ffffffffffffffffffffffffffffffffffffffff16021790555050505050620001a8565b600081519050620000ad8162000174565b92915050565b600081519050620000c4816200018e565b92915050565b60008060008060808587031215620000e157600080fd5b6000620000f187828801620000b3565b94505060206200010487828801620000b3565b93505060406200011787828801620000b3565b92505060606200012a878288016200009c565b91505092959194509250565b600062000143826200014a565b9050919050565b600073ffffffffffffffffffffffffffffffffffffffff82169050919050565b6000819050919050565b6200017f8162000136565b81146200018b57600080fd5b50565b62000199816200016a565b8114620001a557600080fd5b50565b61124980620001b86000396000f3fe6080604052600436106100c25760003560e01c8063957bb1e01161007f578063d57bde7911610059578063d57bde7914610238578063dfbf53ae14610263578063f08e14361461028e578063fe67a54b146102cb576100c2565b8063957bb1e0146101c6578063a6e66477146101e2578063acb902f61461020d576100c2565b806312fa6feb146100c757806338af3eed146100f25780633ccfd60b1461011d5780634036778f14610134578063423b217f1461015d57806362ea82db14610188575b600080fd5b3480156100d357600080fd5b506100dc6102e2565b6040516100e99190611023565b60405180910390f35b3480156100fe57600080fd5b506101076102f5565b6040516101149190610fdf565b60405180910390f35b34801561012957600080fd5b5061013261031a565b005b34801561014057600080fd5b5061015b60048036036101569190810190610dfe565b6104ae565b005b34801561016957600080fd5b506101726107ca565b60405161017f91906110e7565b60405180910390f35b34801561019457600080fd5b506101af60048036036101aa9190810190610dac565b6107d0565b6040516101bd92919061103e565b60405180910390f35b6101e060048036036101db9190810190610dd5565b6107f4565b005b3480156101ee57600080fd5b506101f76109c6565b60405161020491906110e7565b60405180910390f35b34801561021957600080fd5b506102226109cc565b60405161022f91906110e7565b60405180910390f35b34801561024457600080fd5b5061024d6109d2565b60405161025a91906110e7565b60405180910390f35b34801561026f57600080fd5b506102786109d8565b6040516102859190610fdf565b60405180910390f35b34801561029a57600080fd5b506102b560048036036102b09190810190610dac565b6109fe565b6040516102c29190611023565b60405180910390f35b3480156102d757600080fd5b506102e0610a1e565b005b600760009054906101000a900460ff1681565b6000809054906101000a900473ffffffffffffffffffffffffffffffffffffffff1681565b7fe973d061cea1da07d390d324e85053969565b89e4e3b1487bef9461d022a9e4e33600a60003373ffffffffffffffffffffffffffffffffffffffff1673ffffffffffffffffffffffffffffffffffffffff1681526020019081526020016000205460405161038a929190610ffa565b60405180910390a16000600a60003373ffffffffffffffffffffffffffffffffffffffff1673ffffffffffffffffffffffffffffffffffffffff1681526020019081526020016000205411156104ac576000600a60003373ffffffffffffffffffffffffffffffffffffffff1673ffffffffffffffffffffffffffffffffffffffff1681526020019081526020016000208190555060003390508073ffffffffffffffffffffffffffffffffffffffff166108fc600a60003373ffffffffffffffffffffffffffffffffffffffff1673ffffffffffffffffffffffffffffffffffffffff168152602001908152602001600020549081150290604051600060405180830381858888f193505050501580156104a9573d6000803e3d6000fd5b50505b565b6003548042116104f3576040517f08c379a00000000000000000000000000000000000000000000000000000000081526004016104ea90611087565b60405180910390fd5b600454804210610538576040517f08c379a000000000000000000000000000000000000000000000000000000000815260040161052f906110a7565b60405180910390fd5b610543338585610b98565b156107c4577f4a36ee3bc80f133b4da427fa41d6b27aa4abd704cf52587772a1be9db04cb1163385604051610579929190610ffa565b60405180910390a1600033905084600860003373ffffffffffffffffffffffffffffffffffffffff1673ffffffffffffffffffffffffffffffffffffffff16815260200190815260200160002060010154106106ff576105d98186610c21565b15610670578073ffffffffffffffffffffffffffffffffffffffff166108fc600654600860003373ffffffffffffffffffffffffffffffffffffffff1673ffffffffffffffffffffffffffffffffffffffff16815260200190815260200160002060010154039081150290604051600060405180830381858888f1935050505015801561066a573d6000803e3d6000fd5b506106fa565b8073ffffffffffffffffffffffffffffffffffffffff166108fc600860003373ffffffffffffffffffffffffffffffffffffffff1673ffffffffffffffffffffffffffffffffffffffff168152602001908152602001600020600101549081150290604051600060405180830381858888f193505050501580156106f8573d6000803e3d6000fd5b505b6107c2565b7f205bd8046fca7345fba3d74f05e743a4e118cee42857cd7de99f5b743078071c3386604051610730929190610ffa565b60405180910390a18073ffffffffffffffffffffffffffffffffffffffff166108fc600860003373ffffffffffffffffffffffffffffffffffffffff1673ffffffffffffffffffffffffffffffffffffffff168152602001908152602001600020600101549081150290604051600060405180830381858888f193505050501580156107c0573d6000803e3d6000fd5b505b505b50505050565b60035481565b60086020528060005260406000206000915090508060000154908060010154905082565b600354804210610839576040517f08c379a0000000000000000000000000000000000000000000000000000000008152600401610830906110a7565b60405180910390fd5b600960003373ffffffffffffffffffffffffffffffffffffffff1673ffffffffffffffffffffffffffffffffffffffff16815260200190815260200160002060009054906101000a900460ff16156108c6576040517f08c379a00000000000000000000000000000000000000000000000000000000081526004016108bd906110c7565b60405180910390fd5b604051806040016040528083815260200134815250600860003373ffffffffffffffffffffffffffffffffffffffff1673ffffffffffffffffffffffffffffffffffffffff16815260200190815260200160002060008201518160000155602082015181600101559050506001600960003373ffffffffffffffffffffffffffffffffffffffff1673ffffffffffffffffffffffffffffffffffffffff16815260200190815260200160002060006101000a81548160ff0219169083151502179055507fc6e8a93d591909fcc03a2165cacf7275424ee4df6a31c153c22313bfeaed82b733346040516109ba929190610ffa565b60405180910390a15050565b60045481565b60065481565b60055481565b600160009054906101000a900473ffffffffffffffffffffffffffffffffffffffff1681565b60096020528060005260406000206000915054906101000a900460ff1681565b600454804211610a63576040517f08c379a0000000000000000000000000000000000000000000000000000000008152600401610a5a90611087565b60405180910390fd5b600760009054906101000a900460ff1615610ab3576040517f08c379a0000000000000000000000000000000000000000000000000000000008152600401610aaa90611067565b60405180910390fd5b7fdaec4582d5d9595688c8c98545fdd1c696d41c6aeaeb636737e84ed2f5c00eda600160009054906101000a900473ffffffffffffffffffffffffffffffffffffffff16600654604051610b08929190610ffa565b60405180910390a16001600760006101000a81548160ff0219169083151502179055506000809054906101000a900473ffffffffffffffffffffffffffffffffffffffff1673ffffffffffffffffffffffffffffffffffffffff166108fc6006549081150290604051600060405180830381858888f19350505050158015610b94573d6000803e3d6000fd5b5050565b60008282604051602001610bad929190610fb3565b60405160208183030381529060405280519060200120600860008673ffffffffffffffffffffffffffffffffffffffff1673ffffffffffffffffffffffffffffffffffffffff168152602001908152602001600020600001541415610c155760019050610c1a565b600090505b9392505050565b60006005548211610c355760009050610d67565b600073ffffffffffffffffffffffffffffffffffffffff16600160009054906101000a900473ffffffffffffffffffffffffffffffffffffffff1673ffffffffffffffffffffffffffffffffffffffff161415610c9f578160058190555081600681905550610d21565b600654600a6000600160009054906101000a900473ffffffffffffffffffffffffffffffffffffffff1673ffffffffffffffffffffffffffffffffffffffff1673ffffffffffffffffffffffffffffffffffffffff16815260200190815260200160002060008282540192505081905550600554600681905550816005819055505b82600160006101000a81548173ffffffffffffffffffffffffffffffffffffffff021916908373ffffffffffffffffffffffffffffffffffffffff160217905550600190505b92915050565b600081359050610d7c816111c1565b92915050565b600081359050610d91816111d8565b92915050565b600081359050610da6816111ef565b92915050565b600060208284031215610dbe57600080fd5b6000610dcc84828501610d6d565b91505092915050565b600060208284031215610de757600080fd5b6000610df584828501610d82565b91505092915050565b60008060408385031215610e1157600080fd5b6000610e1f85828601610d97565b9250506020610e3085828601610d82565b9150509250929050565b610e4381611177565b82525050565b610e5281611125565b82525050565b610e6181611137565b82525050565b610e7081611143565b82525050565b610e87610e8282611143565b6111ad565b82525050565b6000610e9a601983611102565b91507f41756374696f6e2068617320416c726561647920456e646564000000000000006000830152602082019050919050565b6000610eda600983611102565b91507f546f6f204561726c7900000000000000000000000000000000000000000000006000830152602082019050919050565b6000610f1a600883611102565b91507f546f6f204c6174650000000000000000000000000000000000000000000000006000830152602082019050919050565b6000610f5a601f83611102565b91507f42696464657220416c726561647920706c6163656420746865697220626964006000830152602082019050919050565b610f968161116d565b82525050565b610fad610fa88261116d565b6111b7565b82525050565b6000610fbf8285610f9c565b602082019150610fcf8284610e76565b6020820191508190509392505050565b6000602082019050610ff46000830184610e49565b92915050565b600060408201905061100f6000830185610e3a565b61101c6020830184610f8d565b9392505050565b60006020820190506110386000830184610e58565b92915050565b60006040820190506110536000830185610e67565b6110606020830184610f8d565b9392505050565b6000602082019050818103600083015261108081610e8d565b9050919050565b600060208201905081810360008301526110a081610ecd565b9050919050565b600060208201905081810360008301526110c081610f0d565b9050919050565b600060208201905081810360008301526110e081610f4d565b9050919050565b60006020820190506110fc6000830184610f8d565b92915050565b600082825260208201905092915050565b600061111e8261114d565b9050919050565b60006111308261114d565b9050919050565b60008115159050919050565b6000819050919050565b600073ffffffffffffffffffffffffffffffffffffffff82169050919050565b6000819050919050565b600061118282611189565b9050919050565b60006111948261119b565b9050919050565b60006111a68261114d565b9050919050565b6000819050919050565b6000819050919050565b6111ca81611113565b81146111d557600080fd5b50565b6111e181611143565b81146111ec57600080fd5b50565b6111f88161116d565b811461120357600080fd5b5056fea365627a7a7231582032c40c55927075dab35598a650cfc5366d4911eec351b21a99b7b50a3c847bee6c6578706572696d656e74616cf564736f6c63430005100040",
  "source": "/// SPDX-License-Identifier: MIT\npragma solidity >=0.4.22 <0.9.0;\npragma experimental ABIEncoderV2;\n\n/// @title The contract for buying and selling items on a market\ncontract VikreyAuction {\n    address payable public beneficiary;\n    address payable public winner;\n    uint256 listing_id;\n    uint256 public biddingEnd;\n    uint256 public revealEnd;\n    uint256 public highestBid;\n    uint256 public secondHighestBid;\n    bool public ended;\n\n    struct Bid {\n        bytes32 bidHash;\n        uint256 deposit;\n    }\n\n    mapping(address => Bid) public bids;\n    mapping(address => bool) public bidAlready;\n    mapping(address => uint256) pendingReturns;\n\n    event AuctionEnded(address winner, uint256 secondHighestBid);\n    event BidForItem(address bidder, uint256 deposit);\n    event ValidBidRevealed(address bidder, uint256 value);\n    event InvalidBidRevealed(address bidder, uint256 value);\n    event BidderWithdrawn(address bidder, uint256 value);\n\n    // error TooEarly(uint256 time);\n    // error TooLate(uint256 time);\n    // error AuctionAlreadyEnded();\n    // error AlreadyBid(address bidder);\n\n    modifier beforeTime(uint256 time) {\n        // if (block.timestamp >= time) {\n        //     revert TooLate(time);\n        // }\n        require(block.timestamp < time, \"Too Late\");\n        _;\n    }\n    modifier afterTime(uint256 time) {\n        // if (block.timestamp <= time) {\n        //     revert TooEarly(time);\n        // }\n        require(block.timestamp > time, \"Too Early\");\n        _;\n    }\n    modifier newBidder() {\n        // if (bidAlready[msg.sender]) {\n        //     revert AlreadyBid(msg.sender);\n        // }\n        require(!bidAlready[msg.sender], \"Bidder Already placed their bid\");\n        _;\n    }\n\n    constructor(\n        uint256 _listing_id,\n        uint256 bidding_time,\n        uint256 reveal_time,\n        address payable _beneficiary\n    ) public {\n        listing_id = _listing_id;\n        biddingEnd = block.timestamp + bidding_time;\n        revealEnd = biddingEnd + reveal_time;\n        beneficiary = _beneficiary;\n    }\n\n    function bid(bytes32 bid_hash)\n        public\n        payable\n        beforeTime(biddingEnd)\n        newBidder\n    {\n        bids[msg.sender] = Bid(bid_hash, msg.value);\n        bidAlready[msg.sender] = true;\n        emit BidForItem(msg.sender, msg.value);\n    }\n\n    function validReveal(\n        address bidder,\n        uint256 value,\n        bytes32 secret\n    ) internal returns (bool isValid) {\n        if (\n            bids[bidder].bidHash == keccak256(abi.encodePacked(value, secret))\n        ) {\n            return true;\n        }\n        return false;\n    }\n\n    function placeBid(address payable bidder, uint256 value)\n        internal\n        returns (bool success)\n    {\n        if (value <= highestBid) {\n            return false;\n        }\n        if (winner == address(0)) {\n            highestBid = value;\n            secondHighestBid = value;\n        } else {\n            pendingReturns[winner] += secondHighestBid;\n            secondHighestBid = highestBid;\n            highestBid = value;\n        }\n        winner = bidder;\n        return true;\n    }\n\n    function reveal(uint256 value, bytes32 secret)\n        public\n        afterTime(biddingEnd)\n        beforeTime(revealEnd)\n    {\n        if (validReveal(msg.sender, value, secret)) {\n            emit ValidBidRevealed(msg.sender, value);\n            address payable payable_sender = msg.sender;\n            if (bids[msg.sender].deposit >= value) {\n                if (placeBid(payable_sender, value)) {\n                    payable_sender.transfer(\n                        bids[msg.sender].deposit - secondHighestBid\n                    );\n                } else {\n                    payable_sender.transfer(bids[msg.sender].deposit);\n                }\n            } else {\n                emit InvalidBidRevealed(msg.sender, value);\n                payable_sender.transfer(bids[msg.sender].deposit);\n            }\n        }\n    }\n\n    function withdraw() public {\n        emit BidderWithdrawn(msg.sender, pendingReturns[msg.sender]);\n        if (pendingReturns[msg.sender] > 0) {\n            pendingReturns[msg.sender] = 0;\n            address payable payable_sender = msg.sender;\n            payable_sender.transfer(pendingReturns[msg.sender]);\n        }\n    }\n\n    function endAuction() public afterTime(revealEnd) {\n        // if (ended) {\n        //     revert AuctionAlreadyEnded();\n        // }\n        require(!ended, \"Auction has Already Ended\");\n        emit AuctionEnded(winner, secondHighestBid);\n        ended = true;\n        beneficiary.transfer(secondHighestBid);\n    }\n}\n",
  "sourcePath": "/home/rutvij/programming/Assignments/DTBC/Block-Chain-Collab/Assignments/2/contracts/VikreyAuction.sol",
  "compiler": {
    "name": "solc",
    "version": "0.5.16+commit.9c3226ce.Emscripten.clang"
  },
  "schemaVersion": "3.4.3",
  "updatedAt": "2021-10-09T05:26:48.175Z",
  "networkType": "ethereum",
  "devdoc": {
    "methods": {},
    "title": "The contract for buying and selling items on a market"
  },
  "userdoc": {
    "methods": {}
  }
}