{
  "contractName": "VikreyAuction",
  "abi": [
    {
      "inputs": [
        {
          "internalType": "uint256",
          "name": "_listing_id",
          "type": "uint256"
        },
        {
          "internalType": "uint256",
          "name": "bidding_time",
          "type": "uint256"
        },
        {
          "internalType": "uint256",
          "name": "reveal_time",
          "type": "uint256"
        },
        {
          "internalType": "address payable",
          "name": "_beneficiary",
          "type": "address"
        }
      ],
      "payable": false,
      "stateMutability": "nonpayable",
      "type": "constructor"
    },
    {
      "anonymous": false,
      "inputs": [
        {
          "indexed": false,
          "internalType": "address",
          "name": "winner",
          "type": "address"
        },
        {
          "indexed": false,
          "internalType": "uint256",
          "name": "secondHighestBid",
          "type": "uint256"
        }
      ],
      "name": "AuctionEnded",
      "type": "event"
    },
    {
      "anonymous": false,
      "inputs": [
        {
          "indexed": false,
          "internalType": "address",
          "name": "bidder",
          "type": "address"
        },
        {
          "indexed": false,
          "internalType": "uint256",
          "name": "deposit",
          "type": "uint256"
        }
      ],
      "name": "BidForItem",
      "type": "event"
    },
    {
      "anonymous": false,
      "inputs": [
        {
          "indexed": false,
          "internalType": "address",
          "name": "bidder",
          "type": "address"
        },
        {
          "indexed": false,
          "internalType": "uint256",
          "name": "value",
          "type": "uint256"
        }
      ],
      "name": "BidderWithdrawn",
      "type": "event"
    },
    {
      "anonymous": false,
      "inputs": [
        {
          "indexed": false,
          "internalType": "address",
          "name": "bidder",
          "type": "address"
        },
        {
          "indexed": false,
          "internalType": "uint256",
          "name": "value",
          "type": "uint256"
        }
      ],
      "name": "InvalidBidRevealed",
      "type": "event"
    },
    {
      "anonymous": false,
      "inputs": [
        {
          "indexed": false,
          "internalType": "address",
          "name": "bidder",
          "type": "address"
        },
        {
          "indexed": false,
          "internalType": "uint256",
          "name": "value",
          "type": "uint256"
        }
      ],
      "name": "ValidBidRevealed",
      "type": "event"
    },
    {
      "constant": true,
      "inputs": [],
      "name": "beneficiary",
      "outputs": [
        {
          "internalType": "address payable",
          "name": "",
          "type": "address"
        }
      ],
      "payable": false,
      "stateMutability": "view",
      "type": "function"
    },
    {
      "constant": true,
      "inputs": [
        {
          "internalType": "address",
          "name": "",
          "type": "address"
        }
      ],
      "name": "bidAlready",
      "outputs": [
        {
          "internalType": "bool",
          "name": "",
          "type": "bool"
        }
      ],
      "payable": false,
      "stateMutability": "view",
      "type": "function"
    },
    {
      "constant": true,
      "inputs": [],
      "name": "biddingEnd",
      "outputs": [
        {
          "internalType": "uint256",
          "name": "",
          "type": "uint256"
        }
      ],
      "payable": false,
      "stateMutability": "view",
      "type": "function"
    },
    {
      "constant": true,
      "inputs": [
        {
          "internalType": "address",
          "name": "",
          "type": "address"
        }
      ],
      "name": "bids",
      "outputs": [
        {
          "internalType": "bytes32",
          "name": "bidHash",
          "type": "bytes32"
        },
        {
          "internalType": "uint256",
          "name": "deposit",
          "type": "uint256"
        }
      ],
      "payable": false,
      "stateMutability": "view",
      "type": "function"
    },
    {
      "constant": true,
      "inputs": [],
      "name": "ended",
      "outputs": [
        {
          "internalType": "bool",
          "name": "",
          "type": "bool"
        }
      ],
      "payable": false,
      "stateMutability": "view",
      "type": "function"
    },
    {
      "constant": true,
      "inputs": [],
      "name": "highestBid",
      "outputs": [
        {
          "internalType": "uint256",
          "name": "",
          "type": "uint256"
        }
      ],
      "payable": false,
      "stateMutability": "view",
      "type": "function"
    },
    {
      "constant": true,
      "inputs": [],
      "name": "revealEnd",
      "outputs": [
        {
          "internalType": "uint256",
          "name": "",
          "type": "uint256"
        }
      ],
      "payable": false,
      "stateMutability": "view",
      "type": "function"
    },
    {
      "constant": true,
      "inputs": [],
      "name": "secondHighestBid",
      "outputs": [
        {
          "internalType": "uint256",
          "name": "",
          "type": "uint256"
        }
      ],
      "payable": false,
      "stateMutability": "view",
      "type": "function"
    },
    {
      "constant": true,
      "inputs": [],
      "name": "winner",
      "outputs": [
        {
          "internalType": "address payable",
          "name": "",
          "type": "address"
        }
      ],
      "payable": false,
      "stateMutability": "view",
      "type": "function"
    },
    {
      "constant": false,
      "inputs": [
        {
          "internalType": "bytes32",
          "name": "bid_hash",
          "type": "bytes32"
        }
      ],
      "name": "bid",
      "outputs": [],
      "payable": true,
      "stateMutability": "payable",
      "type": "function"
    },
    {
      "constant": false,
      "inputs": [
        {
          "internalType": "uint256",
          "name": "value",
          "type": "uint256"
        },
        {
          "internalType": "string",
          "name": "secret",
          "type": "string"
        }
      ],
      "name": "reveal",
      "outputs": [],
      "payable": false,
      "stateMutability": "nonpayable",
      "type": "function"
    },
    {
      "constant": false,
      "inputs": [],
      "name": "withdraw",
      "outputs": [],
      "payable": false,
      "stateMutability": "nonpayable",
      "type": "function"
    },
    {
      "constant": false,
      "inputs": [],
      "name": "endAuction",
      "outputs": [],
      "payable": false,
      "stateMutability": "nonpayable",
      "type": "function"
    }
  ],
  "bytecode": "0x60806040523480156200001157600080fd5b5060405162001706380380620017068339818101604052620000379190810190620000ca565b836002819055508242016003819055508160035401600481905550806000806101000a81548173ffffffffffffffffffffffffffffffffffffffff021916908373ffffffffffffffffffffffffffffffffffffffff16021790555050505050620001a8565b600081519050620000ad8162000174565b92915050565b600081519050620000c4816200018e565b92915050565b60008060008060808587031215620000e157600080fd5b6000620000f187828801620000b3565b94505060206200010487828801620000b3565b93505060406200011787828801620000b3565b92505060606200012a878288016200009c565b91505092959194509250565b600062000143826200014a565b9050919050565b600073ffffffffffffffffffffffffffffffffffffffff82169050919050565b6000819050919050565b6200017f8162000136565b81146200018b57600080fd5b50565b62000199816200016a565b8114620001a557600080fd5b50565b61154e80620001b86000396000f3fe6080604052600436106100c25760003560e01c8063957bb1e01161007f578063d57bde7911610059578063d57bde7914610238578063dfbf53ae14610263578063f08e14361461028e578063fe67a54b146102cb576100c2565b8063957bb1e0146101c6578063a6e66477146101e2578063acb902f61461020d576100c2565b806312fa6feb146100c75780632fa4548b146100f257806338af3eed1461011b5780633ccfd60b14610146578063423b217f1461015d57806362ea82db14610188575b600080fd5b3480156100d357600080fd5b506100dc6102e2565b6040516100e99190611241565b60405180910390f35b3480156100fe57600080fd5b5061011960048036036101149190810190610f6e565b6102f5565b005b34801561012757600080fd5b5061013061069d565b60405161013d91906111fd565b60405180910390f35b34801561015257600080fd5b5061015b6106c2565b005b34801561016957600080fd5b50610172610856565b60405161017f9190611345565b60405180910390f35b34801561019457600080fd5b506101af60048036036101aa9190810190610f1c565b61085c565b6040516101bd92919061125c565b60405180910390f35b6101e060048036036101db9190810190610f45565b610880565b005b3480156101ee57600080fd5b506101f7610ae2565b6040516102049190611345565b60405180910390f35b34801561021957600080fd5b50610222610ae8565b60405161022f9190611345565b60405180910390f35b34801561024457600080fd5b5061024d610aee565b60405161025a9190611345565b60405180910390f35b34801561026f57600080fd5b50610278610af4565b60405161028591906111fd565b60405180910390f35b34801561029a57600080fd5b506102b560048036036102b09190810190610f1c565b610b1a565b6040516102c29190611241565b60405180910390f35b3480156102d757600080fd5b506102e0610b3a565b005b600760009054906101000a900460ff1681565b60035480421161033a576040517f08c379a0000000000000000000000000000000000000000000000000000000008152600401610331906112c5565b60405180910390fd5b60045480421061037f576040517f08c379a0000000000000000000000000000000000000000000000000000000008152600401610376906112e5565b60405180910390fd5b600960003373ffffffffffffffffffffffffffffffffffffffff1673ffffffffffffffffffffffffffffffffffffffff16815260200190815260200160002060009054906101000a900460ff1661040b576040517f08c379a000000000000000000000000000000000000000000000000000000000815260040161040290611285565b60405180910390fd5b610416338585610cb4565b15610697577f4a36ee3bc80f133b4da427fa41d6b27aa4abd704cf52587772a1be9db04cb116338560405161044c929190611218565b60405180910390a1600033905084600860003373ffffffffffffffffffffffffffffffffffffffff1673ffffffffffffffffffffffffffffffffffffffff16815260200190815260200160002060010154106105d2576104ac8186610d3d565b15610543578073ffffffffffffffffffffffffffffffffffffffff166108fc600654600860003373ffffffffffffffffffffffffffffffffffffffff1673ffffffffffffffffffffffffffffffffffffffff16815260200190815260200160002060010154039081150290604051600060405180830381858888f1935050505015801561053d573d6000803e3d6000fd5b506105cd565b8073ffffffffffffffffffffffffffffffffffffffff166108fc600860003373ffffffffffffffffffffffffffffffffffffffff1673ffffffffffffffffffffffffffffffffffffffff168152602001908152602001600020600101549081150290604051600060405180830381858888f193505050501580156105cb573d6000803e3d6000fd5b505b610695565b7f205bd8046fca7345fba3d74f05e743a4e118cee42857cd7de99f5b743078071c3386604051610603929190611218565b60405180910390a18073ffffffffffffffffffffffffffffffffffffffff166108fc600860003373ffffffffffffffffffffffffffffffffffffffff1673ffffffffffffffffffffffffffffffffffffffff168152602001908152602001600020600101549081150290604051600060405180830381858888f19350505050158015610693573d6000803e3d6000fd5b505b505b50505050565b6000809054906101000a900473ffffffffffffffffffffffffffffffffffffffff1681565b7fe973d061cea1da07d390d324e85053969565b89e4e3b1487bef9461d022a9e4e33600a60003373ffffffffffffffffffffffffffffffffffffffff1673ffffffffffffffffffffffffffffffffffffffff16815260200190815260200160002054604051610732929190611218565b60405180910390a16000600a60003373ffffffffffffffffffffffffffffffffffffffff1673ffffffffffffffffffffffffffffffffffffffff168152602001908152602001600020541115610854576000600a60003373ffffffffffffffffffffffffffffffffffffffff1673ffffffffffffffffffffffffffffffffffffffff1681526020019081526020016000208190555060003390508073ffffffffffffffffffffffffffffffffffffffff166108fc600a60003373ffffffffffffffffffffffffffffffffffffffff1673ffffffffffffffffffffffffffffffffffffffff168152602001908152602001600020549081150290604051600060405180830381858888f19350505050158015610851573d6000803e3d6000fd5b50505b565b60035481565b60086020528060005260406000206000915090508060000154908060010154905082565b6003548042106108c5576040517f08c379a00000000000000000000000000000000000000000000000000000000081526004016108bc906112e5565b60405180910390fd5b600960003373ffffffffffffffffffffffffffffffffffffffff1673ffffffffffffffffffffffffffffffffffffffff16815260200190815260200160002060009054906101000a900460ff1615610952576040517f08c379a000000000000000000000000000000000000000000000000000000000815260040161094990611325565b60405180910390fd5b6000809054906101000a900473ffffffffffffffffffffffffffffffffffffffff1673ffffffffffffffffffffffffffffffffffffffff163373ffffffffffffffffffffffffffffffffffffffff1614156109e2576040517f08c379a00000000000000000000000000000000000000000000000000000000081526004016109d990611305565b60405180910390fd5b604051806040016040528083815260200134815250600860003373ffffffffffffffffffffffffffffffffffffffff1673ffffffffffffffffffffffffffffffffffffffff16815260200190815260200160002060008201518160000155602082015181600101559050506001600960003373ffffffffffffffffffffffffffffffffffffffff1673ffffffffffffffffffffffffffffffffffffffff16815260200190815260200160002060006101000a81548160ff0219169083151502179055507fc6e8a93d591909fcc03a2165cacf7275424ee4df6a31c153c22313bfeaed82b73334604051610ad6929190611218565b60405180910390a15050565b60045481565b60065481565b60055481565b600160009054906101000a900473ffffffffffffffffffffffffffffffffffffffff1681565b60096020528060005260406000206000915054906101000a900460ff1681565b600454804211610b7f576040517f08c379a0000000000000000000000000000000000000000000000000000000008152600401610b76906112c5565b60405180910390fd5b600760009054906101000a900460ff1615610bcf576040517f08c379a0000000000000000000000000000000000000000000000000000000008152600401610bc6906112a5565b60405180910390fd5b7fdaec4582d5d9595688c8c98545fdd1c696d41c6aeaeb636737e84ed2f5c00eda600160009054906101000a900473ffffffffffffffffffffffffffffffffffffffff16600654604051610c24929190611218565b60405180910390a16001600760006101000a81548160ff0219169083151502179055506000809054906101000a900473ffffffffffffffffffffffffffffffffffffffff1673ffffffffffffffffffffffffffffffffffffffff166108fc6006549081150290604051600060405180830381858888f19350505050158015610cb0573d6000803e3d6000fd5b5050565b60008282604051602001610cc99291906111d5565b60405160208183030381529060405280519060200120600860008673ffffffffffffffffffffffffffffffffffffffff1673ffffffffffffffffffffffffffffffffffffffff168152602001908152602001600020600001541415610d315760019050610d36565b600090505b9392505050565b60006005548211610d515760009050610e83565b600073ffffffffffffffffffffffffffffffffffffffff16600160009054906101000a900473ffffffffffffffffffffffffffffffffffffffff1673ffffffffffffffffffffffffffffffffffffffff161415610dbb578160058190555081600681905550610e3d565b600654600a6000600160009054906101000a900473ffffffffffffffffffffffffffffffffffffffff1673ffffffffffffffffffffffffffffffffffffffff1673ffffffffffffffffffffffffffffffffffffffff16815260200190815260200160002060008282540192505081905550600554600681905550816005819055505b82600160006101000a81548173ffffffffffffffffffffffffffffffffffffffff021916908373ffffffffffffffffffffffffffffffffffffffff160217905550600190505b92915050565b600081359050610e98816114c6565b92915050565b600081359050610ead816114dd565b92915050565b600082601f830112610ec457600080fd5b8135610ed7610ed28261138d565b611360565b91508082526020830160208301858383011115610ef357600080fd5b610efe83828461147a565b50505092915050565b600081359050610f16816114f4565b92915050565b600060208284031215610f2e57600080fd5b6000610f3c84828501610e89565b91505092915050565b600060208284031215610f5757600080fd5b6000610f6584828501610e9e565b91505092915050565b60008060408385031215610f8157600080fd5b6000610f8f85828601610f07565b925050602083013567ffffffffffffffff811115610fac57600080fd5b610fb885828601610eb3565b9150509250929050565b610fcb81611444565b82525050565b610fda816113f2565b82525050565b610fe981611404565b82525050565b610ff881611410565b82525050565b6000611009826113b9565b61101381856113d5565b9350611023818560208601611489565b80840191505092915050565b600061103c601b836113c4565b91507f5468697320706572736f6e206973206e6f7420612062696464657200000000006000830152602082019050919050565b600061107c6019836113c4565b91507f41756374696f6e2068617320416c726561647920456e646564000000000000006000830152602082019050919050565b60006110bc6009836113c4565b91507f546f6f204561726c7900000000000000000000000000000000000000000000006000830152602082019050919050565b60006110fc6008836113c4565b91507f546f6f204c6174650000000000000000000000000000000000000000000000006000830152602082019050919050565b600061113c6016836113c4565b91507f42656e65666963696172792063616e6e6f7420626964000000000000000000006000830152602082019050919050565b600061117c601f836113c4565b91507f42696464657220416c726561647920706c6163656420746865697220626964006000830152602082019050919050565b6111b88161143a565b82525050565b6111cf6111ca8261143a565b6114bc565b82525050565b60006111e182856111be565b6020820191506111f18284610ffe565b91508190509392505050565b60006020820190506112126000830184610fd1565b92915050565b600060408201905061122d6000830185610fc2565b61123a60208301846111af565b9392505050565b60006020820190506112566000830184610fe0565b92915050565b60006040820190506112716000830185610fef565b61127e60208301846111af565b9392505050565b6000602082019050818103600083015261129e8161102f565b9050919050565b600060208201905081810360008301526112be8161106f565b9050919050565b600060208201905081810360008301526112de816110af565b9050919050565b600060208201905081810360008301526112fe816110ef565b9050919050565b6000602082019050818103600083015261131e8161112f565b9050919050565b6000602082019050818103600083015261133e8161116f565b9050919050565b600060208201905061135a60008301846111af565b92915050565b6000604051905081810181811067ffffffffffffffff8211171561138357600080fd5b8060405250919050565b600067ffffffffffffffff8211156113a457600080fd5b601f19601f8301169050602081019050919050565b600081519050919050565b600082825260208201905092915050565b600081905092915050565b60006113eb8261141a565b9050919050565b60006113fd8261141a565b9050919050565b60008115159050919050565b6000819050919050565b600073ffffffffffffffffffffffffffffffffffffffff82169050919050565b6000819050919050565b600061144f82611456565b9050919050565b600061146182611468565b9050919050565b60006114738261141a565b9050919050565b82818337600083830152505050565b60005b838110156114a757808201518184015260208101905061148c565b838111156114b6576000848401525b50505050565b6000819050919050565b6114cf816113e0565b81146114da57600080fd5b50565b6114e681611410565b81146114f157600080fd5b50565b6114fd8161143a565b811461150857600080fd5b5056fea365627a7a72315820e82d394284244c172d523fbf7b1b856eaf3558d34ce8f09016625ea8c820ad166c6578706572696d656e74616cf564736f6c63430005100040",
  "source": "/// SPDX-License-Identifier: MIT\npragma solidity >=0.4.22 <0.9.0;\npragma experimental ABIEncoderV2;\n\n/// @title The contract for buying and selling items on a market\ncontract VikreyAuction {\n    address payable public beneficiary;\n    address payable public winner;\n    uint256 listing_id;\n    uint256 public biddingEnd;\n    uint256 public revealEnd;\n    uint256 public highestBid;\n    uint256 public secondHighestBid;\n    bool public ended;\n\n    struct Bid {\n        bytes32 bidHash;\n        uint256 deposit;\n    }\n\n    mapping(address => Bid) public bids;\n    mapping(address => bool) public bidAlready;\n    mapping(address => uint256) pendingReturns;\n\n    event AuctionEnded(address winner, uint256 secondHighestBid);\n    event BidForItem(address bidder, uint256 deposit);\n    event ValidBidRevealed(address bidder, uint256 value);\n    event InvalidBidRevealed(address bidder, uint256 value);\n    event BidderWithdrawn(address bidder, uint256 value);\n\n    // error TooEarly(uint256 time);\n    // error TooLate(uint256 time);\n    // error AuctionAlreadyEnded();\n    // error AlreadyBid(address bidder);\n\n    modifier beforeTime(uint256 time) {\n        // if (block.timestamp >= time) {\n        //     revert TooLate(time);\n        // }\n        require(block.timestamp < time, \"Too Late\");\n        _;\n    }\n    modifier afterTime(uint256 time) {\n        require(block.timestamp > time, \"Too Early\");\n        _;\n    }\n    modifier newBidder() {\n        require(!bidAlready[msg.sender], \"Bidder Already placed their bid\");\n        _;\n    }\n    modifier validBidder() {\n        require(msg.sender != beneficiary, \"Beneficiary cannot bid\");\n        _;\n    }\n\n    constructor(\n        uint256 _listing_id,\n        uint256 bidding_time,\n        uint256 reveal_time,\n        address payable _beneficiary\n    ) public {\n        listing_id = _listing_id;\n        biddingEnd = block.timestamp + bidding_time;\n        revealEnd = biddingEnd + reveal_time;\n        beneficiary = _beneficiary;\n    }\n\n    function bid(bytes32 bid_hash)\n        public\n        payable\n        beforeTime(biddingEnd)\n        newBidder\n        validBidder\n    {\n        bids[msg.sender] = Bid(bid_hash, msg.value);\n        bidAlready[msg.sender] = true;\n        emit BidForItem(msg.sender, msg.value);\n    }\n\n    function validReveal(\n        address bidder,\n        uint256 value,\n        string memory secret\n    ) internal returns (bool isValid) {\n        if (\n            bids[bidder].bidHash == keccak256(abi.encodePacked(value, secret))\n        ) {\n            return true;\n        }\n        return false;\n    }\n\n    function placeBid(address payable bidder, uint256 value)\n        internal\n        returns (bool success)\n    {\n        if (value <= highestBid) {\n            return false;\n        }\n        if (winner == address(0)) {\n            highestBid = value;\n            secondHighestBid = value;\n        } else {\n            pendingReturns[winner] += secondHighestBid;\n            secondHighestBid = highestBid;\n            highestBid = value;\n        }\n        winner = bidder;\n        return true;\n    }\n\n    function reveal(uint256 value, string memory secret)\n        public\n        afterTime(biddingEnd)\n        beforeTime(revealEnd)\n    {\n        require(bidAlready[msg.sender], \"This person is not a bidder\");\n        if (validReveal(msg.sender, value, secret)) {\n            emit ValidBidRevealed(msg.sender, value);\n            address payable payable_sender = msg.sender;\n            if (bids[msg.sender].deposit >= value) {\n                if (placeBid(payable_sender, value)) {\n                    payable_sender.transfer(\n                        bids[msg.sender].deposit - secondHighestBid\n                    );\n                } else {\n                    payable_sender.transfer(bids[msg.sender].deposit);\n                }\n            } else {\n                emit InvalidBidRevealed(msg.sender, value);\n                payable_sender.transfer(bids[msg.sender].deposit);\n            }\n        }\n    }\n\n    function withdraw() public {\n        emit BidderWithdrawn(msg.sender, pendingReturns[msg.sender]);\n        if (pendingReturns[msg.sender] > 0) {\n            pendingReturns[msg.sender] = 0;\n            address payable payable_sender = msg.sender;\n            payable_sender.transfer(pendingReturns[msg.sender]);\n        }\n    }\n\n    function endAuction() public afterTime(revealEnd) {\n        // if (ended) {\n        //     revert AuctionAlreadyEnded();\n        // }\n        require(!ended, \"Auction has Already Ended\");\n        emit AuctionEnded(winner, secondHighestBid);\n        ended = true;\n        beneficiary.transfer(secondHighestBid);\n    }\n}\n",
  "sourcePath": "/home/rutvij/programming/Assignments/DTBC/Block-Chain-Collab/Assignments/2/contracts/VikreyAuction.sol",
  "compiler": {
    "name": "solc",
    "version": "0.5.16+commit.9c3226ce.Emscripten.clang"
  },
  "schemaVersion": "3.4.3",
  "updatedAt": "2021-10-09T08:05:32.370Z",
  "networkType": "ethereum",
  "devdoc": {
    "methods": {},
    "title": "The contract for buying and selling items on a market"
  },
  "userdoc": {
    "methods": {}
  }
}