{
  "contractName": "Market",
  "abi": [
    {
      "anonymous": false,
      "inputs": [],
      "name": "Aborted",
      "type": "event"
    },
    {
      "anonymous": false,
      "inputs": [
        {
          "indexed": true,
          "internalType": "address",
          "name": "seller",
          "type": "address"
        },
        {
          "indexed": true,
          "internalType": "uint256",
          "name": "index",
          "type": "uint256"
        }
      ],
      "name": "ListingChanged",
      "type": "event"
    },
    {
      "anonymous": false,
      "inputs": [
        {
          "indexed": true,
          "internalType": "uint256",
          "name": "listing_id",
          "type": "uint256"
        },
        {
          "indexed": false,
          "internalType": "address",
          "name": "seller",
          "type": "address"
        },
        {
          "indexed": false,
          "internalType": "uint256",
          "name": "price",
          "type": "uint256"
        },
        {
          "indexed": false,
          "internalType": "string",
          "name": "item_name",
          "type": "string"
        },
        {
          "indexed": false,
          "internalType": "string",
          "name": "item_description",
          "type": "string"
        }
      ],
      "name": "ListingCreated",
      "type": "event"
    },
    {
      "anonymous": false,
      "inputs": [
        {
          "components": [
            {
              "internalType": "uint256",
              "name": "listing_id",
              "type": "uint256"
            },
            {
              "internalType": "address payable",
              "name": "seller",
              "type": "address"
            },
            {
              "internalType": "address payable",
              "name": "buyer",
              "type": "address"
            },
            {
              "internalType": "uint256",
              "name": "price",
              "type": "uint256"
            },
            {
              "internalType": "string",
              "name": "item_name",
              "type": "string"
            },
            {
              "internalType": "string",
              "name": "item_description",
              "type": "string"
            },
            {
              "internalType": "bool",
              "name": "sold_or_withdrawn",
              "type": "bool"
            },
            {
              "internalType": "bool",
              "name": "buyer_alloted",
              "type": "bool"
            },
            {
              "internalType": "enum Market.State",
              "name": "state",
              "type": "uint8"
            },
            {
              "internalType": "uint256",
              "name": "status",
              "type": "uint256"
            }
          ],
          "indexed": false,
          "internalType": "struct Market.listings",
          "name": "list",
          "type": "tuple"
        }
      ],
      "name": "PurchaseComplete",
      "type": "event"
    },
    {
      "anonymous": false,
      "inputs": [
        {
          "components": [
            {
              "internalType": "uint256",
              "name": "listing_id",
              "type": "uint256"
            },
            {
              "internalType": "address payable",
              "name": "seller",
              "type": "address"
            },
            {
              "internalType": "address payable",
              "name": "buyer",
              "type": "address"
            },
            {
              "internalType": "uint256",
              "name": "price",
              "type": "uint256"
            },
            {
              "internalType": "string",
              "name": "item_name",
              "type": "string"
            },
            {
              "internalType": "string",
              "name": "item_description",
              "type": "string"
            },
            {
              "internalType": "bool",
              "name": "sold_or_withdrawn",
              "type": "bool"
            },
            {
              "internalType": "bool",
              "name": "buyer_alloted",
              "type": "bool"
            },
            {
              "internalType": "enum Market.State",
              "name": "state",
              "type": "uint8"
            },
            {
              "internalType": "uint256",
              "name": "status",
              "type": "uint256"
            }
          ],
          "indexed": false,
          "internalType": "struct Market.listings",
          "name": "list",
          "type": "tuple"
        },
        {
          "indexed": true,
          "internalType": "address",
          "name": "buyer",
          "type": "address"
        }
      ],
      "name": "PurchaseRequested",
      "type": "event"
    },
    {
      "anonymous": false,
      "inputs": [
        {
          "indexed": true,
          "internalType": "uint256",
          "name": "listing_id",
          "type": "uint256"
        },
        {
          "indexed": false,
          "internalType": "string",
          "name": "H",
          "type": "string"
        }
      ],
      "name": "encryptedKey",
      "type": "event"
    },
    {
      "constant": true,
      "inputs": [],
      "name": "activelistings",
      "outputs": [
        {
          "internalType": "uint256",
          "name": "",
          "type": "uint256"
        }
      ],
      "payable": false,
      "stateMutability": "view",
      "type": "function"
    },
    {
      "constant": true,
      "inputs": [],
      "name": "state",
      "outputs": [
        {
          "internalType": "enum Market.State",
          "name": "",
          "type": "uint8"
        }
      ],
      "payable": false,
      "stateMutability": "view",
      "type": "function"
    },
    {
      "constant": false,
      "inputs": [
        {
          "internalType": "uint256",
          "name": "price",
          "type": "uint256"
        },
        {
          "internalType": "string",
          "name": "item_name",
          "type": "string"
        },
        {
          "internalType": "string",
          "name": "item_description",
          "type": "string"
        }
      ],
      "name": "createListings",
      "outputs": [],
      "payable": true,
      "stateMutability": "payable",
      "type": "function"
    },
    {
      "constant": true,
      "inputs": [],
      "name": "fetchactivelistings",
      "outputs": [
        {
          "components": [
            {
              "internalType": "uint256",
              "name": "listing_id",
              "type": "uint256"
            },
            {
              "internalType": "address payable",
              "name": "seller",
              "type": "address"
            },
            {
              "internalType": "address payable",
              "name": "buyer",
              "type": "address"
            },
            {
              "internalType": "uint256",
              "name": "price",
              "type": "uint256"
            },
            {
              "internalType": "string",
              "name": "item_name",
              "type": "string"
            },
            {
              "internalType": "string",
              "name": "item_description",
              "type": "string"
            },
            {
              "internalType": "bool",
              "name": "sold_or_withdrawn",
              "type": "bool"
            },
            {
              "internalType": "bool",
              "name": "buyer_alloted",
              "type": "bool"
            },
            {
              "internalType": "enum Market.State",
              "name": "state",
              "type": "uint8"
            },
            {
              "internalType": "uint256",
              "name": "status",
              "type": "uint256"
            }
          ],
          "internalType": "struct Market.listings[]",
          "name": "",
          "type": "tuple[]"
        }
      ],
      "payable": false,
      "stateMutability": "view",
      "type": "function"
    },
    {
      "constant": false,
      "inputs": [
        {
          "internalType": "uint256",
          "name": "listing_id",
          "type": "uint256"
        }
      ],
      "name": "requestBuy",
      "outputs": [],
      "payable": true,
      "stateMutability": "payable",
      "type": "function"
    },
    {
      "constant": false,
      "inputs": [
        {
          "internalType": "uint256",
          "name": "listing_id",
          "type": "uint256"
        },
        {
          "internalType": "string",
          "name": "H",
          "type": "string"
        }
      ],
      "name": "sellItem",
      "outputs": [],
      "payable": true,
      "stateMutability": "payable",
      "type": "function"
    },
    {
      "constant": false,
      "inputs": [
        {
          "internalType": "uint256",
          "name": "listing_id",
          "type": "uint256"
        }
      ],
      "name": "confirmDelivery",
      "outputs": [],
      "payable": true,
      "stateMutability": "payable",
      "type": "function"
    },
    {
      "constant": false,
      "inputs": [
        {
          "internalType": "uint256",
          "name": "listing_id",
          "type": "uint256"
        }
      ],
      "name": "abort",
      "outputs": [],
      "payable": false,
      "stateMutability": "nonpayable",
      "type": "function"
    }
  ],
  "bytecode": "0x608060405260008055600060015534801561001957600080fd5b50611fa0806100296000396000f3fe60806040526004361061007b5760003560e01c8063bc3552901161004e578063bc355290146100ff578063c19d93fb1461012a578063e50701f414610155578063fd84cb971461017e5761007b565b806314e24f6d146100805780631faa35381461009c57806332a22bb6146100c757806384febc4b146100e3575b600080fd5b61009a600480360361009591908101906113ae565b61019a565b005b3480156100a857600080fd5b506100b16104d4565b6040516100be9190611b3d565b60405180910390f35b6100e160048036036100dc919081019061132d565b610815565b005b6100fd60048036036100f89190810190611356565b610b15565b005b34801561010b57600080fd5b50610114610d08565b6040516101219190611cc0565b60405180910390f35b34801561013657600080fd5b5061013f610d0e565b60405161014c9190611b5f565b60405180910390f35b34801561016157600080fd5b5061017c6004803603610177919081019061132d565b610d21565b005b6101986004803603610193919081019061132d565b610e14565b005b60008511806101a857600080fd5b60008054905060016000808282540192505081905550600180600082825401925050819055506040518061014001604052808281526020013373ffffffffffffffffffffffffffffffffffffffff168152602001600073ffffffffffffffffffffffffffffffffffffffff16815260200188815260200187878080601f016020809104026020016040519081016040528093929190818152602001838380828437600081840152601f19601f82011690508083019250505050505050815260200185858080601f016020809104026020016040519081016040528093929190818152602001838380828437600081840152601f19601f820116905080830192505050505050508152602001600015158152602001600015158152602001600160048111156102d257fe5b81526020016000815250600460008381526020019081526020016000206000820151816000015560208201518160010160006101000a81548173ffffffffffffffffffffffffffffffffffffffff021916908373ffffffffffffffffffffffffffffffffffffffff16021790555060408201518160020160006101000a81548173ffffffffffffffffffffffffffffffffffffffff021916908373ffffffffffffffffffffffffffffffffffffffff1602179055506060820151816003015560808201518160040190805190602001906103ad92919061119b565b5060a08201518160050190805190602001906103ca92919061119b565b5060c08201518160060160006101000a81548160ff02191690831515021790555060e08201518160060160016101000a81548160ff0219169083151502179055506101008201518160060160026101000a81548160ff0219169083600481111561043057fe5b02179055506101208201518160070155905050807f6046a0779403a9b58628db4e89f8fb48ddd1844ca3df25a728482823988b43af33898989898960405161047d96959493929190611ae6565b60405180910390a26001543373ffffffffffffffffffffffffffffffffffffffff167fe5317da7a2a5a513758a425cd8d8926ce3e58f239f2c630a790fc6b038dd3bd060405160405180910390a350505050505050565b60606000809050606060015460405190808252806020026020018201604052801561051957816020015b61050661121b565b8152602001906001900390816104fe5790505b50905060008090505b60005481101561080c576000600460008381526020019081526020016000206007015414156107ff5760006004600083815260200190815260200160002090508060405180610140016040529081600082015481526020016001820160009054906101000a900473ffffffffffffffffffffffffffffffffffffffff1673ffffffffffffffffffffffffffffffffffffffff1673ffffffffffffffffffffffffffffffffffffffff1681526020016002820160009054906101000a900473ffffffffffffffffffffffffffffffffffffffff1673ffffffffffffffffffffffffffffffffffffffff1673ffffffffffffffffffffffffffffffffffffffff16815260200160038201548152602001600482018054600181600116156101000203166002900480601f0160208091040260200160405190810160405280929190818152602001828054600181600116156101000203166002900480156106c85780601f1061069d576101008083540402835291602001916106c8565b820191906000526020600020905b8154815290600101906020018083116106ab57829003601f168201915b50505050508152602001600582018054600181600116156101000203166002900480601f01602080910402602001604051908101604052809291908181526020018280546001816001161561010002031660029004801561076a5780601f1061073f5761010080835404028352916020019161076a565b820191906000526020600020905b81548152906001019060200180831161074d57829003601f168201915b505050505081526020016006820160009054906101000a900460ff161515151581526020016006820160019054906101000a900460ff161515151581526020016006820160029054906101000a900460ff1660048111156107c757fe5b60048111156107d257fe5b81526020016007820154815250508385815181106107ec57fe5b6020026020010181905250600184019350505b8080600101915050610522565b50809250505090565b60005481108015610827575060008110155b610866576040517f08c379a000000000000000000000000000000000000000000000000000000000815260040161085d90611c7e565b60405180910390fd5b6004600082815260200190815260200160002060060160009054906101000a900460ff16156108ca576040517f08c379a00000000000000000000000000000000000000000000000000000000081526004016108c190611b9e565b60405180910390fd5b6004600082815260200190815260200160002060060160019054906101000a900460ff161561092e576040517f08c379a000000000000000000000000000000000000000000000000000000000815260040161092590611bfe565b60405180910390fd5b60046000828152602001908152602001600020600301546002023414610989576040517f08c379a000000000000000000000000000000000000000000000000000000000815260040161098090611bbe565b60405180910390fd5b6004600082815260200190815260200160002060010160009054906101000a900473ffffffffffffffffffffffffffffffffffffffff1673ffffffffffffffffffffffffffffffffffffffff163373ffffffffffffffffffffffffffffffffffffffff161415610a2e576040517f08c379a0000000000000000000000000000000000000000000000000000000008152600401610a2590611c5e565b60405180910390fd5b336004600083815260200190815260200160002060020160006101000a81548173ffffffffffffffffffffffffffffffffffffffff021916908373ffffffffffffffffffffffffffffffffffffffff16021790555060016004600083815260200190815260200160002060060160016101000a81548160ff0219169083151502179055503373ffffffffffffffffffffffffffffffffffffffff167fec4132b6fbf2087f0d80e1e60b8a97697e285ac28daa0118676b1d14bb8fce9d60046000848152602001908152602001600020604051610b0a9190611c9e565b60405180910390a250565b60005483108015610b27575060008310155b610b66576040517f08c379a0000000000000000000000000000000000000000000000000000000008152600401610b5d90611c7e565b60405180910390fd5b6004600084815260200190815260200160002060060160009054906101000a900460ff1615610bca576040517f08c379a0000000000000000000000000000000000000000000000000000000008152600401610bc190611b9e565b60405180910390fd5b6004600084815260200190815260200160002060010160009054906101000a900473ffffffffffffffffffffffffffffffffffffffff1673ffffffffffffffffffffffffffffffffffffffff163373ffffffffffffffffffffffffffffffffffffffff1614610c6e576040517f08c379a0000000000000000000000000000000000000000000000000000000008152600401610c6590611c1e565b60405180910390fd5b60046000848152602001908152602001600020600301546002023414610cc9576040517f08c379a0000000000000000000000000000000000000000000000000000000008152600401610cc090611bde565b60405180910390fd5b827f45bd963234a41bc8d75b2e2caf57f0987f5d405e1d4bbf09b919faeff927937c8383604051610cfb929190611b7a565b60405180910390a2505050565b60015481565b600560009054906101000a900460ff1681565b7f72c874aeff0b183a56e2b79c71b46e1aed4dee5e09862134b8821ba2fddbf8bf60405160405180910390a1600480600083815260200190815260200160002060060160026101000a81548160ff02191690836004811115610d7f57fe5b02179055506004600082815260200190815260200160002060010160009054906101000a900473ffffffffffffffffffffffffffffffffffffffff1673ffffffffffffffffffffffffffffffffffffffff166108fc479081150290604051600060405180830381858888f19350505050158015610e00573d6000803e3d6000fd5b506001806000828254019250508190555050565b60005481108015610e26575060008110155b610e65576040517f08c379a0000000000000000000000000000000000000000000000000000000008152600401610e5c90611c7e565b60405180910390fd5b6004600082815260200190815260200160002060060160009054906101000a900460ff1615610ec9576040517f08c379a0000000000000000000000000000000000000000000000000000000008152600401610ec090611b9e565b60405180910390fd5b6004600082815260200190815260200160002060020160009054906101000a900473ffffffffffffffffffffffffffffffffffffffff1673ffffffffffffffffffffffffffffffffffffffff163373ffffffffffffffffffffffffffffffffffffffff1614610f6d576040517f08c379a0000000000000000000000000000000000000000000000000000000008152600401610f6490611c3e565b60405180910390fd5b60016004600083815260200190815260200160002060060160006101000a81548160ff0219169083151502179055506004600082815260200190815260200160002060010160009054906101000a900473ffffffffffffffffffffffffffffffffffffffff1673ffffffffffffffffffffffffffffffffffffffff166108fc60046000848152602001908152602001600020600301546003029081150290604051600060405180830381858888f19350505050158015611031573d6000803e3d6000fd5b506004600082815260200190815260200160002060020160009054906101000a900473ffffffffffffffffffffffffffffffffffffffff1673ffffffffffffffffffffffffffffffffffffffff166108fc60046000848152602001908152602001600020600301549081150290604051600060405180830381858888f193505050501580156110c4573d6000803e3d6000fd5b5060018060008282540392505081905550806004600083815260200190815260200160002060010160009054906101000a900473ffffffffffffffffffffffffffffffffffffffff1673ffffffffffffffffffffffffffffffffffffffff167fe5317da7a2a5a513758a425cd8d8926ce3e58f239f2c630a790fc6b038dd3bd060405160405180910390a37f861e75f7258377a6e4db40cd9f302b32b243cfdb616c605f708db1a0ca98bb6c600460008381526020019081526020016000206040516111909190611c9e565b60405180910390a150565b828054600181600116156101000203166002900490600052602060002090601f016020900481019282601f106111dc57805160ff191683800117855561120a565b8280016001018555821561120a579182015b828111156112095782518255916020019190600101906111ee565b5b50905061121791906112a9565b5090565b60405180610140016040528060008152602001600073ffffffffffffffffffffffffffffffffffffffff168152602001600073ffffffffffffffffffffffffffffffffffffffff1681526020016000815260200160608152602001606081526020016000151581526020016000151581526020016000600481111561129c57fe5b8152602001600081525090565b6112cb91905b808211156112c75760008160009055506001016112af565b5090565b90565b60008083601f8401126112e057600080fd5b8235905067ffffffffffffffff8111156112f957600080fd5b60208301915083600182028301111561131157600080fd5b9250929050565b60008135905061132781611f46565b92915050565b60006020828403121561133f57600080fd5b600061134d84828501611318565b91505092915050565b60008060006040848603121561136b57600080fd5b600061137986828701611318565b935050602084013567ffffffffffffffff81111561139657600080fd5b6113a2868287016112ce565b92509250509250925092565b6000806000806000606086880312156113c657600080fd5b60006113d488828901611318565b955050602086013567ffffffffffffffff8111156113f157600080fd5b6113fd888289016112ce565b9450945050604086013567ffffffffffffffff81111561141c57600080fd5b611428888289016112ce565b92509250509295509295909350565b600061144383836118be565b905092915050565b61145481611df5565b82525050565b61146381611d9a565b82525050565b600061147482611d00565b61147e8185611d23565b93508360208202850161149085611cdb565b8060005b858110156114cc57848403895281516114ad8582611437565b94506114b883611d16565b925060208a01995050600181019050611494565b50829750879550505050505092915050565b6114e781611dac565b82525050565b6114f681611e07565b82525050565b61150581611e07565b82525050565b60006115178385611d45565b9350611524838584611e3d565b61152d83611f01565b840190509392505050565b600061154382611d0b565b61154d8185611d34565b935061155d818560208601611e4c565b61156681611f01565b840191505092915050565b60008154600181166000811461158e57600181146115b4576115f8565b607f600283041661159f8187611d34565b955060ff1983168652602086019350506115f8565b600282046115c28187611d34565b95506115cd85611ceb565b60005b828110156115ef578154818901526001820191506020810190506115d0565b80880195505050505b505092915050565b600061160d602083611d45565b91507f546865206974656d2068617320616c7265616479206265656e20626f756768746000830152602082019050919050565b600061164d603083611d45565b91507f546865207265717569726564206465706f73697420666f72207468652070757260008301527f6368617365206e6f7420676976656e20000000000000000000000000000000006020830152604082019050919050565b60006116b3602683611d45565b91507f596f752068617665206e6f74207061696420746865207365637572697479206460008301527f65706f73697400000000000000000000000000000000000000000000000000006020830152604082019050919050565b6000611719603483611d45565b91507f746865206974656d20616c72656164792068617320612062757965722c696e2060008301527f6d69647374206f66207472616e73616374696f6e0000000000000000000000006020830152604082019050919050565b600061177f602c83611d45565b91507f54686973206973206e6f7420796f7572206c697374696e6720796f752063616e60008301527f742073656c6c20746869732000000000000000000000000000000000000000006020830152604082019050919050565b60006117e5602483611d45565b91507f596f7520617265206e6f742074686520627579657220666f722074686973206960008301527f74656d20000000000000000000000000000000000000000000000000000000006020830152604082019050919050565b600061184b601c83611d45565b91507f596f752063616e742062757920796f7572206f776e206974656d7320000000006000830152602082019050919050565b600061188b601583611d45565b91507f4c697374696e6720696420697320696e76616c696400000000000000000000006000830152602082019050919050565b6000610140830160008301516118d76000860182611ac8565b5060208301516118ea602086018261145a565b5060408301516118fd604086018261145a565b5060608301516119106060860182611ac8565b50608083015184820360808601526119288282611538565b91505060a083015184820360a08601526119428282611538565b91505060c083015161195760c08601826114de565b5060e083015161196a60e08601826114de565b5061010083015161197f6101008601826114ed565b50610120830151611994610120860182611ac8565b508091505092915050565b6000610140830160008084015490506119b781611eb3565b6119c46000870182611ac8565b50600184015490506119d581611e7f565b6119e2602087018261145a565b50600284015490506119f381611e7f565b611a00604087018261145a565b5060038401549050611a1181611eb3565b611a1e6060870182611ac8565b50600484018583036080870152611a358382611571565b9250506005840185830360a0870152611a4e8382611571565b92505060068401549050611a6181611e99565b611a6e60c08701826114de565b50611a7881611ecd565b611a8560e08701826114de565b50611a8f81611ee7565b611a9d6101008701826114ed565b5060078401549050611aae81611eb3565b611abc610120870182611ac8565b50819250505092915050565b611ad181611deb565b82525050565b611ae081611deb565b82525050565b6000608082019050611afb600083018961144b565b611b086020830188611ad7565b8181036040830152611b1b81868861150b565b90508181036060830152611b3081848661150b565b9050979650505050505050565b60006020820190508181036000830152611b578184611469565b905092915050565b6000602082019050611b7460008301846114fc565b92915050565b60006020820190508181036000830152611b9581848661150b565b90509392505050565b60006020820190508181036000830152611bb781611600565b9050919050565b60006020820190508181036000830152611bd781611640565b9050919050565b60006020820190508181036000830152611bf7816116a6565b9050919050565b60006020820190508181036000830152611c178161170c565b9050919050565b60006020820190508181036000830152611c3781611772565b9050919050565b60006020820190508181036000830152611c57816117d8565b9050919050565b60006020820190508181036000830152611c778161183e565b9050919050565b60006020820190508181036000830152611c978161187e565b9050919050565b60006020820190508181036000830152611cb8818461199f565b905092915050565b6000602082019050611cd56000830184611ad7565b92915050565b6000819050602082019050919050565b60008190508160005260206000209050919050565b600081519050919050565b600081519050919050565b6000602082019050919050565b600082825260208201905092915050565b600082825260208201905092915050565b600082825260208201905092915050565b600073ffffffffffffffffffffffffffffffffffffffff82169050919050565b600060ff82169050919050565b600060ff82169050919050565b6000819050919050565b6000611da582611dcb565b9050919050565b60008115159050919050565b6000819050611dc682611f39565b919050565b600073ffffffffffffffffffffffffffffffffffffffff82169050919050565b6000819050919050565b6000611e0082611e19565b9050919050565b6000611e1282611db8565b9050919050565b6000611e2482611e2b565b9050919050565b6000611e3682611dcb565b9050919050565b82818337600083830152505050565b60005b83811015611e6a578082015181840152602081019050611e4f565b83811115611e79576000848401525b50505050565b6000611e92611e8d83611f12565b611d56565b9050919050565b6000611eac611ea783611f12565b611d76565b9050919050565b6000611ec6611ec183611f12565b611d90565b9050919050565b6000611ee0611edb83611f2c565b611d76565b9050919050565b6000611efa611ef583611f1f565b611d83565b9050919050565b6000601f19601f8301169050919050565b60008160001c9050919050565b60008160101c9050919050565b60008160081c9050919050565b60058110611f4357fe5b50565b611f4f81611deb565b8114611f5a57600080fd5b5056fea365627a7a723158209e3cf5c559a01162c4c16e5de5fb85542fff5dcff6fbb23eee472d274023218f6c6578706572696d656e74616cf564736f6c63430005100040",
  "source": "// SPDX-License-Identifier: MIT\npragma solidity >=0.4.22 <0.9.0;\npragma experimental ABIEncoderV2;\n\ncontract Market {\n    uint256 current_listing_id = 0;\n    uint256 public activelistings = 0;\n    address payable cur_seller;\n    address payable cur_buyer;\n\n    // structure for each listings\n    /// @dev uint is the unique listing id\n    /// @dev seller stores the seller address\n    /// @dev buyer stores the buyer address\n    /// @dev price is the price of the item\n    /// @dev item_name is the name of the item\n    /// @dev item_description has the description of the item\n    /// @dev status indicates whether the item is already sold(2), purchased and yet to be delivered (1) or available (0)\n\n    struct listings {\n        uint256 listing_id;\n        address payable seller;\n        address payable buyer;\n        uint256 price;\n        string item_name;\n        string item_description;\n        bool sold_or_withdrawn;\n        bool buyer_alloted;\n        State state;\n        uint256 status;\n        //address owner\n    }\n\n    /// @dev this event is emitted when a listing is created\n    event ListingCreated(\n        uint256 indexed listing_id,\n        address seller,\n        uint256 price,\n        string item_name,\n        string item_description\n    );\n    /// @dev this event is for when listing is modified ,item sold or withdrawn\n    event ListingChanged(address indexed seller, uint256 indexed index);\n    /// @dev this event is for when item purchase is requested by buyer\n    event PurchaseRequested(listings list, address indexed buyer);\n    /// @dev this event is for when seller confirms item purchase by buyer\n    /// @dev the hash of the item string is added the block chain from where the buyer can retrieve and decrypt\n    event encryptedKey(uint256 indexed listing_id, string H);\n    /// event emitted when the a item is bought and both the seller and buyer gets the money/item\n    event PurchaseComplete(listings list);\n    /// @dev this event is for when transaction is aborted\n    event Aborted();\n\n    // create a listing for all possible listing id and make it private\n    mapping(uint256 => listings) private Listings;\n\n    enum State {\n        Created,\n        Active,\n        Sold,\n        Delivered,\n        Inactive\n    }\n    State public state;\n\n    modifier condition(bool _condition) {\n        require(_condition);\n        _;\n    }\n\n    // // Only the buyer can call this function.\n    // error OnlyBuyer;\n    // // Only the seller can call this function.\n    // error OnlySeller;\n    // // Check invalid state of listing\n    // error InvalidState;\n\n    // modifier onlyBuyer() {\n    //     if (msg.sender != cur_buyer) revert OnlyBuyer;\n    //     _;\n    // }\n\n    // modifier onlySeller() {\n    //     if (msg.sender != cur_seller) revert OnlySeller;\n    //     _;\n    // }\n    // modifier inState(State _state, uint256 listing_id) {\n    //     if (_state != Listings[listing_id].state) revert InvalidState;\n    //     _;\n    // }\n\n    //create a listing for sale in the market place\n    //onlySeller\n    function createListings(\n        uint256 price,\n        string calldata item_name,\n        string calldata item_description\n    ) external payable condition(price > 0) {\n        // require(price > 0, \"Price cannot be 0 wei\");\n        uint256 listing_id = current_listing_id;\n        current_listing_id += 1;\n        activelistings += 1;\n\n        Listings[listing_id] = listings(\n            listing_id,\n            msg.sender,\n            address(0),\n            price,\n            item_name,\n            item_description,\n            false,\n            false,\n            State.Active,\n            0\n        );\n        // emit the update\n        emit ListingCreated(\n            listing_id,\n            msg.sender,\n            price,\n            item_name,\n            item_description\n        );\n        emit ListingChanged(msg.sender, activelistings);\n    }\n\n    /* Returns all unsold/unwithdrawn market items */\n    ///@dev returns a list of active listings\n    function fetchactivelistings() external view returns (listings[] memory) {\n        uint256 currentIndex = 0;\n\n        listings[] memory active_list = new listings[](activelistings);\n        for (uint256 i = 0; i < current_listing_id; i++) {\n            // only consider listings which are unsold/not withdrawn\n            if (Listings[i].status == 0) {\n                listings storage currentlisting = Listings[i];\n                active_list[currentIndex] = currentlisting;\n                currentIndex += 1;\n            }\n        }\n        return active_list;\n    }\n\n    //request from buyer to seller for item's purchase\n    // the contract emits a event to let the seller know that an buyer has been found\n    /// @dev listing id is the id of the item buyer is interested in\n    function requestBuy(uint256 listing_id) external payable {\n        require(\n            listing_id < current_listing_id && listing_id >= 0,\n            \"Listing id is invalid\"\n        ); // Check for valid listing id\n        require(\n            !Listings[listing_id].sold_or_withdrawn,\n            \"The item has already been bought\"\n        ); // Check if the item is still available\n        require(\n            !Listings[listing_id].buyer_alloted,\n            \"the item already has a buyer,in midst of transaction\"\n        ); // Check whether item has a buyer already\n        require(\n            msg.value == 2 * Listings[listing_id].price,\n            \"The required deposit for the purchase not given \"\n        ); // check whether you have provided 2 times the selling price,for security purposes\n        require(\n            msg.sender != Listings[listing_id].seller,\n            \"You cant buy your own items \"\n        );\n        //Check that the seller is not the buyer\n\n        // let the seller know you have found a buyer\n        Listings[listing_id].buyer = msg.sender;\n        Listings[listing_id].buyer_alloted = true;\n        emit PurchaseRequested(Listings[listing_id], msg.sender);\n    }\n\n    //Sale of item from seller's side\n    // transaction from the seller\n    /// @dev listing id is the id of the item being sold_\n    /// @dev H is the hashed key for the item string (Hashed using the public key of the buyer off-chain)\n    function sellItem(uint256 listing_id, string calldata H) external payable {\n        require(\n            listing_id < current_listing_id && listing_id >= 0,\n            \"Listing id is invalid\"\n        ); // Check for valid listing id\n        require(\n            !Listings[listing_id].sold_or_withdrawn,\n            \"The item has already been bought\"\n        ); // Check if the item is still available\n        require(\n            msg.sender == Listings[listing_id].seller,\n            \"This is not your listing you cant sell this \"\n        );\n        // check whether the caller is the seller\n        require(\n            msg.value == 2 * Listings[listing_id].price,\n            \"You have not paid the security deposit\"\n        );\n        // Check the security deposits\n        // Listings[listing_id].sold_or_withdrawn = true;\n\n        emit encryptedKey(listing_id, H);\n    }\n\n    //Confirmation from buyer on receiving item\n    // the buyer confirms to get the refund of the money owed.(price)\n    // the seller gets his amount + price (3 * price)\n    /// @dev the listing id is the item being exchanged\n    function confirmDelivery(uint256 listing_id) external payable {\n        require(\n            listing_id < current_listing_id && listing_id >= 0,\n            \"Listing id is invalid\"\n        ); // Check for valid listing id\n        require(\n            !Listings[listing_id].sold_or_withdrawn,\n            \"The item has already been bought\"\n        ); // Check if the item is still available\n        require(\n            msg.sender == Listings[listing_id].buyer,\n            \"You are not the buyer for this item \"\n        );\n        // check whether buyer is the messenger\n        //refund the seller\n        Listings[listing_id].sold_or_withdrawn = true;\n        Listings[listing_id].seller.transfer(3 * Listings[listing_id].price);\n        // refund the buyer\n        Listings[listing_id].buyer.transfer(Listings[listing_id].price);\n        activelistings -= 1;\n        emit ListingChanged(Listings[listing_id].seller, listing_id);\n        emit PurchaseComplete(Listings[listing_id]);\n    }\n\n    // Abort the purchase and reclaim the ether.\n    // Can only be called by the seller before\n    // onlySeller\n    // inState(State.Created, listing_id)\n    function abort(uint256 listing_id) public {\n        emit Aborted();\n        Listings[listing_id].state = State.Inactive;\n        // We use transfer here directly and it is reentrancy-safe\n        Listings[listing_id].seller.transfer(address(this).balance);\n        activelistings += 1;\n    }\n}\n",
  "sourcePath": "/home/rutvij/programming/Assignments/DTBC/Block-Chain-Collab/Assignments/1/contracts/Market.sol",
  "compiler": {
    "name": "solc",
    "version": "0.5.16+commit.9c3226ce.Emscripten.clang"
  },
  "schemaVersion": "3.4.3",
  "updatedAt": "2021-09-19T22:57:02.461Z",
  "devdoc": {
    "methods": {
      "confirmDelivery(uint256)": {
        "details": "the listing id is the item being exchanged"
      },
      "fetchactivelistings()": {
        "details": "returns a list of active listings"
      },
      "requestBuy(uint256)": {
        "details": "listing id is the id of the item buyer is interested in"
      },
      "sellItem(uint256,string)": {
        "details": "listing id is the id of the item being sold_H is the hashed key for the item string (Hashed using the public key of the buyer off-chain)"
      }
    }
  },
  "userdoc": {
    "methods": {}
  }
}