{
  "contractName": "Market",
  "abi": [
    {
      "anonymous": false,
      "inputs": [
        {
          "indexed": true,
          "internalType": "address",
          "name": "seller",
          "type": "address"
        },
        {
          "indexed": true,
          "internalType": "uint256",
          "name": "index",
          "type": "uint256"
        }
      ],
      "name": "ListingChanged",
      "type": "event"
    },
    {
      "anonymous": false,
      "inputs": [
        {
          "indexed": true,
          "internalType": "uint256",
          "name": "listing_id",
          "type": "uint256"
        },
        {
          "indexed": false,
          "internalType": "address",
          "name": "seller",
          "type": "address"
        },
        {
          "indexed": false,
          "internalType": "uint256",
          "name": "price",
          "type": "uint256"
        },
        {
          "indexed": false,
          "internalType": "string",
          "name": "item_name",
          "type": "string"
        },
        {
          "indexed": false,
          "internalType": "string",
          "name": "item_description",
          "type": "string"
        }
      ],
      "name": "ListingCreated",
      "type": "event"
    },
    {
      "anonymous": false,
      "inputs": [
        {
          "indexed": true,
          "internalType": "uint256",
          "name": "listing_id",
          "type": "uint256"
        },
        {
          "indexed": true,
          "internalType": "address",
          "name": "buyer",
          "type": "address"
        }
      ],
      "name": "PurchaseRequested",
      "type": "event"
    },
    {
      "anonymous": false,
      "inputs": [
        {
          "indexed": true,
          "internalType": "uint256",
          "name": "listing_id",
          "type": "uint256"
        },
        {
          "indexed": true,
          "internalType": "bytes32",
          "name": "H",
          "type": "bytes32"
        }
      ],
      "name": "encryptedKey",
      "type": "event"
    },
    {
      "constant": true,
      "inputs": [],
      "name": "activelistings",
      "outputs": [
        {
          "internalType": "uint256",
          "name": "",
          "type": "uint256"
        }
      ],
      "payable": false,
      "stateMutability": "view",
      "type": "function"
    },
    {
      "constant": false,
      "inputs": [
        {
          "internalType": "uint256",
          "name": "price",
          "type": "uint256"
        },
        {
          "internalType": "string",
          "name": "item_name",
          "type": "string"
        },
        {
          "internalType": "string",
          "name": "item_description",
          "type": "string"
        }
      ],
      "name": "createListings",
      "outputs": [],
      "payable": true,
      "stateMutability": "payable",
      "type": "function"
    },
    {
      "constant": true,
      "inputs": [],
      "name": "fetchactivelistings",
      "outputs": [
        {
          "components": [
            {
              "internalType": "uint256",
              "name": "listing_id",
              "type": "uint256"
            },
            {
              "internalType": "address payable",
              "name": "seller",
              "type": "address"
            },
            {
              "internalType": "uint256",
              "name": "price",
              "type": "uint256"
            },
            {
              "internalType": "string",
              "name": "item_name",
              "type": "string"
            },
            {
              "internalType": "string",
              "name": "item_description",
              "type": "string"
            },
            {
              "internalType": "bool",
              "name": "sold_or_withdrawn",
              "type": "bool"
            }
          ],
          "internalType": "struct Market.listings[]",
          "name": "",
          "type": "tuple[]"
        }
      ],
      "payable": false,
      "stateMutability": "view",
      "type": "function"
    },
    {
      "constant": false,
      "inputs": [
        {
          "internalType": "uint256",
          "name": "listing_id",
          "type": "uint256"
        }
      ],
      "name": "requestBuy",
      "outputs": [],
      "payable": true,
      "stateMutability": "payable",
      "type": "function"
    },
    {
      "constant": false,
      "inputs": [
        {
          "internalType": "uint256",
          "name": "listing_id",
          "type": "uint256"
        },
        {
          "internalType": "bytes32",
          "name": "H",
          "type": "bytes32"
        }
      ],
      "name": "sellItem",
      "outputs": [],
      "payable": true,
      "stateMutability": "payable",
      "type": "function"
    },
    {
      "constant": false,
      "inputs": [
        {
          "internalType": "uint256",
          "name": "listing_id",
          "type": "uint256"
        }
      ],
      "name": "confirmDelivery",
      "outputs": [],
      "payable": true,
      "stateMutability": "payable",
      "type": "function"
    }
  ],
  "bytecode": "0x608060405260008055600060015534801561001957600080fd5b50610ffb806100296000396000f3fe6080604052600436106100555760003560e01c806314e24f6d1461005a5780631faa35381461007657806332a22bb6146100a15780638187671c146100bd578063bc355290146100d9578063fd84cb9714610104575b600080fd5b610074600480360361006f9190810190610a42565b610120565b005b34801561008257600080fd5b5061008b6103b2565b6040516100989190610dac565b60405180910390f35b6100bb60048036036100b691908101906109dd565b61065b565b005b6100d760048036036100d29190810190610a06565b610757565b005b3480156100e557600080fd5b506100ee61086d565b6040516100fb9190610e2e565b60405180910390f35b61011e600480360361011991908101906109dd565b610873565b005b60008511610163576040517f08c379a000000000000000000000000000000000000000000000000000000000815260040161015a90610dee565b60405180910390fd5b60008054905060016000808282540192505081905550600180600082825401925050819055506040518060c001604052808281526020013373ffffffffffffffffffffffffffffffffffffffff16815260200187815260200186868080601f016020809104026020016040519081016040528093929190818152602001838380828437600081840152601f19601f82011690508083019250505050505050815260200184848080601f016020809104026020016040519081016040528093929190818152602001838380828437600081840152601f19601f82011690508083019250505050505050815260200160001515815250600260008381526020019081526020016000206000820151816000015560208201518160010160006101000a81548173ffffffffffffffffffffffffffffffffffffffff021916908373ffffffffffffffffffffffffffffffffffffffff1602179055506040820151816002015560608201518160030190805190602001906102e1929190610876565b5060808201518160040190805190602001906102fe929190610876565b5060a08201518160050160006101000a81548160ff021916908315150217905550905050807f6046a0779403a9b58628db4e89f8fb48ddd1844ca3df25a728482823988b43af33888888888860405161035c96959493929190610d55565b60405180910390a26001543373ffffffffffffffffffffffffffffffffffffffff167fe5317da7a2a5a513758a425cd8d8926ce3e58f239f2c630a790fc6b038dd3bd060405160405180910390a3505050505050565b6060600080905060606001546040519080825280602002602001820160405280156103f757816020015b6103e46108f6565b8152602001906001900390816103dc5790505b50905060008090505b60005481101561065257600015156002600083815260200190815260200160002060050160009054906101000a900460ff1615151415610645576000600260008381526020019081526020016000209050806040518060c0016040529081600082015481526020016001820160009054906101000a900473ffffffffffffffffffffffffffffffffffffffff1673ffffffffffffffffffffffffffffffffffffffff1673ffffffffffffffffffffffffffffffffffffffff16815260200160028201548152602001600382018054600181600116156101000203166002900480601f0160208091040260200160405190810160405280929190818152602001828054600181600116156101000203166002900480156105605780601f1061053557610100808354040283529160200191610560565b820191906000526020600020905b81548152906001019060200180831161054357829003601f168201915b50505050508152602001600482018054600181600116156101000203166002900480601f0160208091040260200160405190810160405280929190818152602001828054600181600116156101000203166002900480156106025780601f106105d757610100808354040283529160200191610602565b820191906000526020600020905b8154815290600101906020018083116105e557829003601f168201915b505050505081526020016005820160009054906101000a900460ff16151515158152505083858151811061063257fe5b6020026020010181905250600184019350505b8080600101915050610400565b50809250505090565b6000548110801561066d575060008110155b6106ac576040517f08c379a00000000000000000000000000000000000000000000000000000000081526004016106a390610e0e565b60405180910390fd5b6002600082815260200190815260200160002060050160009054906101000a900460ff1615610710576040517f08c379a000000000000000000000000000000000000000000000000000000000815260040161070790610dce565b60405180910390fd5b3373ffffffffffffffffffffffffffffffffffffffff16817fc09888d0d13bc8be6e776deb914e6e8696b8167f87668e53dc967dd7ebb8a50060405160405180910390a350565b60005482108015610769575060008210155b6107a8576040517f08c379a000000000000000000000000000000000000000000000000000000000815260040161079f90610e0e565b60405180910390fd5b6002600083815260200190815260200160002060050160009054906101000a900460ff161561080c576040517f08c379a000000000000000000000000000000000000000000000000000000000815260040161080390610dce565b60405180910390fd5b60016002600084815260200190815260200160002060050160006101000a81548160ff02191690831515021790555080827fd77f9ef70dcce300cc85a999bedd0fd68bf02a025732e45d8132702ee5d5229160405160405180910390a35050565b60015481565b50565b828054600181600116156101000203166002900490600052602060002090601f016020900481019282601f106108b757805160ff19168380011785556108e5565b828001600101855582156108e5579182015b828111156108e45782518255916020019190600101906108c9565b5b5090506108f29190610944565b5090565b6040518060c0016040528060008152602001600073ffffffffffffffffffffffffffffffffffffffff1681526020016000815260200160608152602001606081526020016000151581525090565b61096691905b8082111561096257600081600090555060010161094a565b5090565b90565b60008135905061097881610f8a565b92915050565b60008083601f84011261099057600080fd5b8235905067ffffffffffffffff8111156109a957600080fd5b6020830191508360018202830111156109c157600080fd5b9250929050565b6000813590506109d781610fa1565b92915050565b6000602082840312156109ef57600080fd5b60006109fd848285016109c8565b91505092915050565b60008060408385031215610a1957600080fd5b6000610a27858286016109c8565b9250506020610a3885828601610969565b9150509250929050565b600080600080600060608688031215610a5a57600080fd5b6000610a68888289016109c8565b955050602086013567ffffffffffffffff811115610a8557600080fd5b610a918882890161097e565b9450945050604086013567ffffffffffffffff811115610ab057600080fd5b610abc8882890161097e565b92509250509295509295909350565b6000610ad78383610ca7565b905092915050565b610ae881610f01565b82525050565b610af781610eaf565b82525050565b6000610b0882610e59565b610b128185610e7c565b935083602082028501610b2485610e49565b8060005b85811015610b605784840389528151610b418582610acb565b9450610b4c83610e6f565b925060208a01995050600181019050610b28565b50829750879550505050505092915050565b610b7b81610ec1565b82525050565b6000610b8d8385610e9e565b9350610b9a838584610f37565b610ba383610f79565b840190509392505050565b6000610bb982610e64565b610bc38185610e8d565b9350610bd3818560208601610f46565b610bdc81610f79565b840191505092915050565b6000610bf4602083610e9e565b91507f546865206974656d2068617320616c7265616479206265656e20626f756768746000830152602082019050919050565b6000610c34601583610e9e565b91507f50726963652063616e6e6f7420626520302077656900000000000000000000006000830152602082019050919050565b6000610c74601583610e9e565b91507f4c697374696e6720696420697320696e76616c696400000000000000000000006000830152602082019050919050565b600060c083016000830151610cbf6000860182610d37565b506020830151610cd26020860182610aee565b506040830151610ce56040860182610d37565b5060608301518482036060860152610cfd8282610bae565b91505060808301518482036080860152610d178282610bae565b91505060a0830151610d2c60a0860182610b72565b508091505092915050565b610d4081610ef7565b82525050565b610d4f81610ef7565b82525050565b6000608082019050610d6a6000830189610adf565b610d776020830188610d46565b8181036040830152610d8a818688610b81565b90508181036060830152610d9f818486610b81565b9050979650505050505050565b60006020820190508181036000830152610dc68184610afd565b905092915050565b60006020820190508181036000830152610de781610be7565b9050919050565b60006020820190508181036000830152610e0781610c27565b9050919050565b60006020820190508181036000830152610e2781610c67565b9050919050565b6000602082019050610e436000830184610d46565b92915050565b6000819050602082019050919050565b600081519050919050565b600081519050919050565b6000602082019050919050565b600082825260208201905092915050565b600082825260208201905092915050565b600082825260208201905092915050565b6000610eba82610ed7565b9050919050565b60008115159050919050565b6000819050919050565b600073ffffffffffffffffffffffffffffffffffffffff82169050919050565b6000819050919050565b6000610f0c82610f13565b9050919050565b6000610f1e82610f25565b9050919050565b6000610f3082610ed7565b9050919050565b82818337600083830152505050565b60005b83811015610f64578082015181840152602081019050610f49565b83811115610f73576000848401525b50505050565b6000601f19601f8301169050919050565b610f9381610ecd565b8114610f9e57600080fd5b50565b610faa81610ef7565b8114610fb557600080fd5b5056fea365627a7a72315820f356d03fe26b945d26416a0187d141decc930188262fe98969e16e0ac0ebfcd96c6578706572696d656e74616cf564736f6c63430005100040",
  "source": "// SPDX-License-Identifier: MIT\npragma solidity >=0.4.22 <0.9.0;\npragma experimental ABIEncoderV2;\n\ncontract Market {\n    uint256 current_listing_id = 0;\n    uint256 public activelistings = 0;\n\n    // structure for each listings\n    /// @dev uint is the unique listing id\n    /// @dev seller stores the seller address\n    /// @dev price is the price of the item\n    /// @dev item_name is the name of the item\n    /// @dev item_description has the description of the item\n    /// @dev sold indicates whether the item is already sold or not\n\n    struct listings {\n        uint256 listing_id;\n        address payable seller;\n        uint256 price;\n        string item_name;\n        string item_description;\n        bool sold_or_withdrawn;\n        //address owner\n    }\n\n    // structure for each sale\n    /// @dev uint is the unique listing id of the item\n    /// @dev seller stores the seller address\n    /// @dev buyer stores the buyer address\n    /// @dev secret_key is the unique string authorising the sale\n\n    // struct sales {\n    //     uint256 listing_id;\n    //     address payable seller;\n    //     address payable buyer;\n    //     string secret_key;\n    // }\n\n    /// @dev this event is emitted when a listing is created\n    event ListingCreated(\n        uint256 indexed listing_id,\n        address seller,\n        uint256 price,\n        string item_name,\n        string item_description\n    );\n    /// @dev this event is for when listing is modified ,item sold or withdrawn\n    event ListingChanged(address indexed seller, uint256 indexed index);\n    /// @dev this event is for when item purchase is requested by buyer\n    event PurchaseRequested(uint256 indexed listing_id, address indexed buyer);\n    /// @dev this event is for when seller confirms item purchase by buyer\n    event encryptedKey(uint256 indexed listing_id, bytes32 indexed H);\n\n    /// @dev this event is emitted when a sale is initiated\n    // event SaleCreated(\n    //     uint256 indexed listing_id,\n    //     address indexed seller,\n    //     address indexed buyer\n    // );\n\n    // create a listing for all possible listing id and make it private\n    mapping(uint256 => listings) private Listings;\n\n    // create a listing for all possible listing id and make it private\n    // mapping(uint256 => sales) private Sales;\n\n    // function randomKeyGenerator() pure returns (string) {\n    //     return string(keccak256(abi.encodePacked(now)));\n    // }\n\n    //create a listing for sale in the market place\n    function createListings(\n        uint256 price,\n        string calldata item_name,\n        string calldata item_description\n    ) external payable {\n        require(price > 0, \"Price cannot be 0 wei\");\n\n        uint256 listing_id = current_listing_id;\n        current_listing_id += 1;\n        activelistings += 1;\n\n        Listings[listing_id] = listings(\n            listing_id,\n            msg.sender,\n            price,\n            item_name,\n            item_description,\n            false\n        );\n        // emit the update\n        emit ListingCreated(\n            listing_id,\n            msg.sender,\n            price,\n            item_name,\n            item_description\n        );\n        emit ListingChanged(msg.sender, activelistings);\n    }\n\n    /* Returns all unsold/unwithdrawn market items */\n    function fetchactivelistings() external view returns (listings[] memory) {\n        uint256 currentIndex = 0;\n\n        listings[] memory active_list = new listings[](activelistings);\n        for (uint256 i = 0; i < current_listing_id; i++) {\n            // only consider listings which are unsold/not withdrawn\n            if (Listings[i].sold_or_withdrawn == false) {\n                listings storage currentlisting = Listings[i];\n                active_list[currentIndex] = currentlisting;\n                currentIndex += 1;\n            }\n        }\n        return active_list;\n    }\n\n    //request from buyer to seller for item's purchase\n    function requestBuy(uint256 listing_id) external payable {\n        require(\n            listing_id < current_listing_id && listing_id >= 0,\n            \"Listing id is invalid\"\n        ); // Check for valid listing id\n        require(\n            !Listings[listing_id].sold_or_withdrawn,\n            \"The item has already been bought\"\n        ); // Check if the item is still available\n        emit PurchaseRequested(listing_id, msg.sender);\n    }\n\n    //Sale of item from seller's side\n    function sellItem(uint256 listing_id, bytes32 H) external payable {\n        require(\n            listing_id < current_listing_id && listing_id >= 0,\n            \"Listing id is invalid\"\n        ); // Check for valid listing id\n        require(\n            !Listings[listing_id].sold_or_withdrawn,\n            \"The item has already been bought\"\n        ); // Check if the item is still available\n        Listings[listing_id].sold_or_withdrawn = true;\n        emit encryptedKey(listing_id, H);\n    }\n\n    //Confirmation from buyer on receiving item\n    function confirmDelivery(uint256 listing_id) external payable {}\n}\n",
  "sourcePath": "/home/rutvij/programming/Assignments/DTBC/Block-Chain-Collab/Assignments/1/contracts/Market.sol",
  "compiler": {
    "name": "solc",
    "version": "0.5.16+commit.9c3226ce.Emscripten.clang"
  },
  "schemaVersion": "3.4.3",
  "updatedAt": "2021-09-19T18:50:48.690Z",
  "devdoc": {
    "methods": {}
  },
  "userdoc": {
    "methods": {}
  }
}