{
  "contractName": "Market",
  "abi": [
    {
      "anonymous": false,
      "inputs": [
        {
          "indexed": true,
          "internalType": "address",
          "name": "seller",
          "type": "address"
        },
        {
          "indexed": true,
          "internalType": "uint256",
          "name": "index",
          "type": "uint256"
        }
      ],
      "name": "ListingChanged",
      "type": "event"
    },
    {
      "anonymous": false,
      "inputs": [
        {
          "indexed": true,
          "internalType": "uint256",
          "name": "listing_id",
          "type": "uint256"
        },
        {
          "indexed": false,
          "internalType": "address",
          "name": "seller",
          "type": "address"
        },
        {
          "indexed": false,
          "internalType": "uint256",
          "name": "price",
          "type": "uint256"
        },
        {
          "indexed": false,
          "internalType": "string",
          "name": "item_name",
          "type": "string"
        },
        {
          "indexed": false,
          "internalType": "string",
          "name": "item_description",
          "type": "string"
        }
      ],
      "name": "ListingCreated",
      "type": "event"
    },
    {
      "constant": true,
      "inputs": [],
      "name": "activelistings",
      "outputs": [
        {
          "internalType": "uint256",
          "name": "",
          "type": "uint256"
        }
      ],
      "payable": false,
      "stateMutability": "view",
      "type": "function"
    },
    {
      "constant": false,
      "inputs": [
        {
          "internalType": "uint256",
          "name": "price",
          "type": "uint256"
        },
        {
          "internalType": "string",
          "name": "item_name",
          "type": "string"
        },
        {
          "internalType": "string",
          "name": "item_description",
          "type": "string"
        }
      ],
      "name": "createListings",
      "outputs": [],
      "payable": true,
      "stateMutability": "payable",
      "type": "function"
    },
    {
      "constant": true,
      "inputs": [],
      "name": "fetchactivelistings",
      "outputs": [
        {
          "components": [
            {
              "internalType": "uint256",
              "name": "listing_id",
              "type": "uint256"
            },
            {
              "internalType": "address payable",
              "name": "seller",
              "type": "address"
            },
            {
              "internalType": "uint256",
              "name": "price",
              "type": "uint256"
            },
            {
              "internalType": "string",
              "name": "item_name",
              "type": "string"
            },
            {
              "internalType": "string",
              "name": "item_description",
              "type": "string"
            },
            {
              "internalType": "bool",
              "name": "sold_or_withdrawn",
              "type": "bool"
            }
          ],
          "internalType": "struct Market.listings[]",
          "name": "",
          "type": "tuple[]"
        }
      ],
      "payable": false,
      "stateMutability": "view",
      "type": "function"
    }
  ],
  "bytecode": "0x608060405260008055600060015534801561001957600080fd5b50610afc806100296000396000f3fe6080604052600436106100345760003560e01c806314e24f6d146100395780631faa353814610055578063bc35529014610080575b600080fd5b610053600480360361004e91908101906106fc565b6100ab565b005b34801561006157600080fd5b5061006a6102fb565b6040516100779190610953565b60405180910390f35b34801561008c57600080fd5b506100956105a4565b6040516100a29190610995565b60405180910390f35b600085116100ee576040517f08c379a00000000000000000000000000000000000000000000000000000000081526004016100e590610975565b60405180910390fd5b60008054905060016000808282540192505081905550600180600082825401925050819055506040518060c001604052808281526020013373ffffffffffffffffffffffffffffffffffffffff16815260200187815260200186868080601f016020809104026020016040519081016040528093929190818152602001838380828437600081840152601f19601f82011690508083019250505050505050815260200184848080601f016020809104026020016040519081016040528093929190818152602001838380828437600081840152601f19601f82011690508083019250505050505050815260200160001515815250600260008381526020019081526020016000206000820151816000015560208201518160010160006101000a81548173ffffffffffffffffffffffffffffffffffffffff021916908373ffffffffffffffffffffffffffffffffffffffff16021790555060408201518160020155606082015181600301908051906020019061026c9291906105aa565b5060808201518160040190805190602001906102899291906105aa565b5060a08201518160050160006101000a81548160ff0219169083151502179055509050506001543373ffffffffffffffffffffffffffffffffffffffff167fe5317da7a2a5a513758a425cd8d8926ce3e58f239f2c630a790fc6b038dd3bd060405160405180910390a3505050505050565b60606000809050606060015460405190808252806020026020018201604052801561034057816020015b61032d61062a565b8152602001906001900390816103255790505b50905060008090505b60005481101561059b57600015156002600083815260200190815260200160002060050160009054906101000a900460ff161515141561058e576000600260008381526020019081526020016000209050806040518060c0016040529081600082015481526020016001820160009054906101000a900473ffffffffffffffffffffffffffffffffffffffff1673ffffffffffffffffffffffffffffffffffffffff1673ffffffffffffffffffffffffffffffffffffffff16815260200160028201548152602001600382018054600181600116156101000203166002900480601f0160208091040260200160405190810160405280929190818152602001828054600181600116156101000203166002900480156104a95780601f1061047e576101008083540402835291602001916104a9565b820191906000526020600020905b81548152906001019060200180831161048c57829003601f168201915b50505050508152602001600482018054600181600116156101000203166002900480601f01602080910402602001604051908101604052809291908181526020018280546001816001161561010002031660029004801561054b5780601f106105205761010080835404028352916020019161054b565b820191906000526020600020905b81548152906001019060200180831161052e57829003601f168201915b505050505081526020016005820160009054906101000a900460ff16151515158152505083858151811061057b57fe5b6020026020010181905250600184019350505b8080600101915050610349565b50809250505090565b60015481565b828054600181600116156101000203166002900490600052602060002090601f016020900481019282601f106105eb57805160ff1916838001178555610619565b82800160010185558215610619579182015b828111156106185782518255916020019190600101906105fd565b5b5090506106269190610678565b5090565b6040518060c0016040528060008152602001600073ffffffffffffffffffffffffffffffffffffffff1681526020016000815260200160608152602001606081526020016000151581525090565b61069a91905b8082111561069657600081600090555060010161067e565b5090565b90565b60008083601f8401126106af57600080fd5b8235905067ffffffffffffffff8111156106c857600080fd5b6020830191508360018202830111156106e057600080fd5b9250929050565b6000813590506106f681610aa2565b92915050565b60008060008060006060868803121561071457600080fd5b6000610722888289016106e7565b955050602086013567ffffffffffffffff81111561073f57600080fd5b61074b8882890161069d565b9450945050604086013567ffffffffffffffff81111561076a57600080fd5b6107768882890161069d565b92509250509295509295909350565b600061079183836108a5565b905092915050565b6107a281610a16565b82525050565b60006107b3826109c0565b6107bd81856109e3565b9350836020820285016107cf856109b0565b8060005b8581101561080b57848403895281516107ec8582610785565b94506107f7836109d6565b925060208a019950506001810190506107d3565b50829750879550505050505092915050565b61082681610a28565b82525050565b6000610837826109cb565b61084181856109f4565b9350610851818560208601610a5e565b61085a81610a91565b840191505092915050565b6000610872601583610a05565b91507f50726963652063616e6e6f7420626520302077656900000000000000000000006000830152602082019050919050565b600060c0830160008301516108bd6000860182610935565b5060208301516108d06020860182610799565b5060408301516108e36040860182610935565b50606083015184820360608601526108fb828261082c565b91505060808301518482036080860152610915828261082c565b91505060a083015161092a60a086018261081d565b508091505092915050565b61093e81610a54565b82525050565b61094d81610a54565b82525050565b6000602082019050818103600083015261096d81846107a8565b905092915050565b6000602082019050818103600083015261098e81610865565b9050919050565b60006020820190506109aa6000830184610944565b92915050565b6000819050602082019050919050565b600081519050919050565b600081519050919050565b6000602082019050919050565b600082825260208201905092915050565b600082825260208201905092915050565b600082825260208201905092915050565b6000610a2182610a34565b9050919050565b60008115159050919050565b600073ffffffffffffffffffffffffffffffffffffffff82169050919050565b6000819050919050565b60005b83811015610a7c578082015181840152602081019050610a61565b83811115610a8b576000848401525b50505050565b6000601f19601f8301169050919050565b610aab81610a54565b8114610ab657600080fd5b5056fea365627a7a72315820d9a36e6fbbee66fe2e107e9df658f798c16edefa902fba9fa7de4742128e2b346c6578706572696d656e74616cf564736f6c63430005100040",
  "source": "// SPDX-License-Identifier: MIT\npragma solidity >=0.4.22 <0.9.0;\npragma experimental ABIEncoderV2;\n\ncontract Market{\n    \n\n    uint256 current_id = 0 ;\n    uint256 public activelistings = 0;\n    \n    // structure for each listings \n    /// @dev uint is the unique listing id\n    /// @dev seller stores the seller address \n    /// @dev price is the price of the item \n    /// @dev item_name is the name of the item \n    /// @dev item_description has the description of the item \n    /// @dev sold indicates whether the item is already sold or not\n    \n    struct listings {\n        uint256 listing_id;\n        address payable seller;\n        uint256 price;\n        string item_name;\n        string item_description;\n        bool sold_or_withdrawn;\n        \n        //address owner\n\n    }\n    struct displayed_listings {\n\n        uint256 listing_id;\n        address payable seller;\n        uint256 price;\n        string item_name;\n        string item_description;\n    }\n\n    event ListingCreated (\n    uint indexed listing_id,\n    address seller,\n    uint256 price,\n    string item_name,\n    string item_description\n  );\n    \n    event ListingChanged(address indexed seller, uint256 indexed index);\n\n    // create a listing for all possible listing id and make it private\n    mapping(uint256 => listings) private Listings;\n\n    //create a listing for sale in the market place\n    function createListings(\n        uint256 price,\n        string calldata item_name,\n        string calldata item_description\n        ) external payable  {\n    require(price > 0, \"Price cannot be 0 wei\");\n    \n    \n    uint256 listing_id = current_id;\n    current_id += 1;\n    activelistings += 1;\n  \n    Listings[listing_id] =  listings(\n      listing_id,\n      msg.sender,\n      price, \n      item_name,\n      item_description,\n      false\n      \n    );\n    emit ListingChanged(msg.sender, activelistings);\n  }\n\n  /* Returns all unsold/unwithdrawn market items */\n  function fetchactivelistings() external view returns (listings[] memory) {\n    \n    uint256 currentIndex = 0;\n\n    listings[] memory active_list = new listings[](activelistings);\n    for (uint256 i = 0; i < current_id; i++) {\n      if (Listings[i].sold_or_withdrawn == false)  {\n        \n        listings storage currentlisting = Listings[i];\n        active_list[currentIndex] = currentlisting;\n        currentIndex += 1;\n      }\n    }\n    return active_list;\n  }\n}",
  "sourcePath": "/home/tathagato/Block-Chain-Collab/Assignments/1/contracts/Market.sol",
  "compiler": {
    "name": "solc",
    "version": "0.5.16+commit.9c3226ce.Emscripten.clang"
  },
  "schemaVersion": "3.4.3",
  "updatedAt": "2021-09-19T11:19:33.791Z",
  "networkType": "ethereum",
  "devdoc": {
    "methods": {}
  },
  "userdoc": {
    "methods": {}
  }
}