{
  "contractName": "Market",
  "abi": [
    {
      "anonymous": false,
      "inputs": [
        {
          "indexed": true,
          "internalType": "address",
          "name": "seller",
          "type": "address"
        },
        {
          "indexed": true,
          "internalType": "uint256",
          "name": "index",
          "type": "uint256"
        }
      ],
      "name": "ListingChanged",
      "type": "event"
    },
    {
      "anonymous": false,
      "inputs": [
        {
          "indexed": true,
          "internalType": "uint256",
          "name": "listing_id",
          "type": "uint256"
        },
        {
          "indexed": false,
          "internalType": "address",
          "name": "seller",
          "type": "address"
        },
        {
          "indexed": false,
          "internalType": "uint256",
          "name": "price",
          "type": "uint256"
        },
        {
          "indexed": false,
          "internalType": "string",
          "name": "item_name",
          "type": "string"
        },
        {
          "indexed": false,
          "internalType": "string",
          "name": "item_description",
          "type": "string"
        }
      ],
      "name": "ListingCreated",
      "type": "event"
    },
    {
      "anonymous": false,
      "inputs": [
        {
          "components": [
            {
              "internalType": "uint256",
              "name": "listing_id",
              "type": "uint256"
            },
            {
              "internalType": "address payable",
              "name": "seller",
              "type": "address"
            },
            {
              "internalType": "uint256",
              "name": "price",
              "type": "uint256"
            },
            {
              "internalType": "string",
              "name": "item_name",
              "type": "string"
            },
            {
              "internalType": "string",
              "name": "item_description",
              "type": "string"
            },
            {
              "internalType": "bool",
              "name": "sold_or_withdrawn",
              "type": "bool"
            },
            {
              "internalType": "bool",
              "name": "buyer_alloted",
              "type": "bool"
            },
            {
              "internalType": "address payable",
              "name": "buyer",
              "type": "address"
            },
            {
              "internalType": "string",
              "name": "pubkey",
              "type": "string"
            }
          ],
          "indexed": false,
          "internalType": "struct Market.listings",
          "name": "list",
          "type": "tuple"
        }
      ],
      "name": "PurchaseComplete",
      "type": "event"
    },
    {
      "anonymous": false,
      "inputs": [
        {
          "components": [
            {
              "internalType": "uint256",
              "name": "listing_id",
              "type": "uint256"
            },
            {
              "internalType": "address payable",
              "name": "seller",
              "type": "address"
            },
            {
              "internalType": "uint256",
              "name": "price",
              "type": "uint256"
            },
            {
              "internalType": "string",
              "name": "item_name",
              "type": "string"
            },
            {
              "internalType": "string",
              "name": "item_description",
              "type": "string"
            },
            {
              "internalType": "bool",
              "name": "sold_or_withdrawn",
              "type": "bool"
            },
            {
              "internalType": "bool",
              "name": "buyer_alloted",
              "type": "bool"
            },
            {
              "internalType": "address payable",
              "name": "buyer",
              "type": "address"
            },
            {
              "internalType": "string",
              "name": "pubkey",
              "type": "string"
            }
          ],
          "indexed": false,
          "internalType": "struct Market.listings",
          "name": "list",
          "type": "tuple"
        },
        {
          "indexed": true,
          "internalType": "address",
          "name": "buyer",
          "type": "address"
        },
        {
          "indexed": false,
          "internalType": "string",
          "name": "public_key",
          "type": "string"
        }
      ],
      "name": "PurchaseRequested",
      "type": "event"
    },
    {
      "anonymous": false,
      "inputs": [
        {
          "indexed": true,
          "internalType": "uint256",
          "name": "listing_id",
          "type": "uint256"
        },
        {
          "indexed": false,
          "internalType": "string",
          "name": "H",
          "type": "string"
        }
      ],
      "name": "encryptedKey",
      "type": "event"
    },
    {
      "constant": true,
      "inputs": [],
      "name": "activelistings",
      "outputs": [
        {
          "internalType": "uint256",
          "name": "",
          "type": "uint256"
        }
      ],
      "payable": false,
      "stateMutability": "view",
      "type": "function"
    },
    {
      "constant": false,
      "inputs": [
        {
          "internalType": "uint256",
          "name": "price",
          "type": "uint256"
        },
        {
          "internalType": "string",
          "name": "item_name",
          "type": "string"
        },
        {
          "internalType": "string",
          "name": "item_description",
          "type": "string"
        }
      ],
      "name": "createListings",
      "outputs": [],
      "payable": true,
      "stateMutability": "payable",
      "type": "function"
    },
    {
      "constant": true,
      "inputs": [],
      "name": "fetchactivelistings",
      "outputs": [
        {
          "components": [
            {
              "internalType": "uint256",
              "name": "listing_id",
              "type": "uint256"
            },
            {
              "internalType": "address payable",
              "name": "seller",
              "type": "address"
            },
            {
              "internalType": "uint256",
              "name": "price",
              "type": "uint256"
            },
            {
              "internalType": "string",
              "name": "item_name",
              "type": "string"
            },
            {
              "internalType": "string",
              "name": "item_description",
              "type": "string"
            },
            {
              "internalType": "bool",
              "name": "sold_or_withdrawn",
              "type": "bool"
            },
            {
              "internalType": "bool",
              "name": "buyer_alloted",
              "type": "bool"
            },
            {
              "internalType": "address payable",
              "name": "buyer",
              "type": "address"
            },
            {
              "internalType": "string",
              "name": "pubkey",
              "type": "string"
            }
          ],
          "internalType": "struct Market.listings[]",
          "name": "",
          "type": "tuple[]"
        }
      ],
      "payable": false,
      "stateMutability": "view",
      "type": "function"
    },
    {
      "constant": false,
      "inputs": [
        {
          "internalType": "uint256",
          "name": "listing_id",
          "type": "uint256"
        },
        {
          "internalType": "string",
          "name": "public_key",
          "type": "string"
        }
      ],
      "name": "requestBuy",
      "outputs": [],
      "payable": true,
      "stateMutability": "payable",
      "type": "function"
    },
    {
      "constant": false,
      "inputs": [
        {
          "internalType": "uint256",
          "name": "listing_id",
          "type": "uint256"
        },
        {
          "internalType": "string",
          "name": "H",
          "type": "string"
        }
      ],
      "name": "sellItem",
      "outputs": [],
      "payable": true,
      "stateMutability": "payable",
      "type": "function"
    },
    {
      "constant": false,
      "inputs": [
        {
          "internalType": "uint256",
          "name": "listing_id",
          "type": "uint256"
        }
      ],
      "name": "confirmDelivery",
      "outputs": [],
      "payable": true,
      "stateMutability": "payable",
      "type": "function"
    }
  ],
  "bytecode": "0x608060405260008055600060015534801561001957600080fd5b50611eb4806100296000396000f3fe6080604052600436106100555760003560e01c806314e24f6d1461005a5780631faa35381461007657806384febc4b146100a1578063bc355290146100bd578063f09c4905146100e8578063fd84cb9714610104575b600080fd5b610074600480360361006f91908101906112d3565b610120565b005b34801561008257600080fd5b5061008b610473565b6040516100989190611a52565b60405180910390f35b6100bb60048036036100b6919081019061127b565b610830565b005b3480156100c957600080fd5b506100d2610a23565b6040516100df9190611c13565b60405180910390f35b61010260048036036100fd919081019061127b565b610a29565b005b61011e60048036036101199190810190611252565b610d55565b005b60008511610163576040517f08c379a000000000000000000000000000000000000000000000000000000000815260040161015a90611b58565b60405180910390fd5b60008054905060016000808282540192505081905550600180600082825401925050819055506040518061012001604052808281526020013373ffffffffffffffffffffffffffffffffffffffff16815260200187815260200186868080601f016020809104026020016040519081016040528093929190818152602001838380828437600081840152601f19601f82011690508083019250505050505050815260200184848080601f016020809104026020016040519081016040528093929190818152602001838380828437600081840152601f19601f820116905080830192505050505050508152602001600015158152602001600015158152602001600073ffffffffffffffffffffffffffffffffffffffff16815260200160405180602001604052806000815250815250600260008381526020019081526020016000206000820151816000015560208201518160010160006101000a81548173ffffffffffffffffffffffffffffffffffffffff021916908373ffffffffffffffffffffffffffffffffffffffff16021790555060408201518160020155606082015181600301908051906020019061031d929190611052565b50608082015181600401908051906020019061033a929190611052565b5060a08201518160050160006101000a81548160ff02191690831515021790555060c08201518160050160016101000a81548160ff02191690831515021790555060e08201518160050160026101000a81548173ffffffffffffffffffffffffffffffffffffffff021916908373ffffffffffffffffffffffffffffffffffffffff1602179055506101008201518160060190805190602001906103df929190611052565b50905050807f6046a0779403a9b58628db4e89f8fb48ddd1844ca3df25a728482823988b43af33888888888860405161041d969594939291906119fb565b60405180910390a26001543373ffffffffffffffffffffffffffffffffffffffff167fe5317da7a2a5a513758a425cd8d8926ce3e58f239f2c630a790fc6b038dd3bd060405160405180910390a3505050505050565b6060600080905060606001546040519080825280602002602001820160405280156104b857816020015b6104a56110d2565b81526020019060019003908161049d5790505b50905060008090505b60005481101561082757600015156002600083815260200190815260200160002060050160009054906101000a900460ff161515141561081a5760006002600083815260200190815260200160002090508060405180610120016040529081600082015481526020016001820160009054906101000a900473ffffffffffffffffffffffffffffffffffffffff1673ffffffffffffffffffffffffffffffffffffffff1673ffffffffffffffffffffffffffffffffffffffff16815260200160028201548152602001600382018054600181600116156101000203166002900480601f0160208091040260200160405190810160405280929190818152602001828054600181600116156101000203166002900480156106225780601f106105f757610100808354040283529160200191610622565b820191906000526020600020905b81548152906001019060200180831161060557829003601f168201915b50505050508152602001600482018054600181600116156101000203166002900480601f0160208091040260200160405190810160405280929190818152602001828054600181600116156101000203166002900480156106c45780601f10610699576101008083540402835291602001916106c4565b820191906000526020600020905b8154815290600101906020018083116106a757829003601f168201915b505050505081526020016005820160009054906101000a900460ff161515151581526020016005820160019054906101000a900460ff161515151581526020016005820160029054906101000a900473ffffffffffffffffffffffffffffffffffffffff1673ffffffffffffffffffffffffffffffffffffffff1673ffffffffffffffffffffffffffffffffffffffff168152602001600682018054600181600116156101000203166002900480601f0160208091040260200160405190810160405280929190818152602001828054600181600116156101000203166002900480156107f25780601f106107c7576101008083540402835291602001916107f2565b820191906000526020600020905b8154815290600101906020018083116107d557829003601f168201915b50505050508152505083858151811061080757fe5b6020026020010181905250600184019350505b80806001019150506104c1565b50809250505090565b60005483108015610842575060008310155b610881576040517f08c379a000000000000000000000000000000000000000000000000000000000815260040161087890611b98565b60405180910390fd5b6002600084815260200190815260200160002060050160009054906101000a900460ff16156108e5576040517f08c379a00000000000000000000000000000000000000000000000000000000081526004016108dc90611a98565b60405180910390fd5b6002600084815260200190815260200160002060010160009054906101000a900473ffffffffffffffffffffffffffffffffffffffff1673ffffffffffffffffffffffffffffffffffffffff163373ffffffffffffffffffffffffffffffffffffffff1614610989576040517f08c379a000000000000000000000000000000000000000000000000000000000815260040161098090611b18565b60405180910390fd5b600260008481526020019081526020016000206002015460020234146109e4576040517f08c379a00000000000000000000000000000000000000000000000000000000081526004016109db90611ad8565b60405180910390fd5b827f45bd963234a41bc8d75b2e2caf57f0987f5d405e1d4bbf09b919faeff927937c8383604051610a16929190611a74565b60405180910390a2505050565b60015481565b60005483108015610a3b575060008310155b610a7a576040517f08c379a0000000000000000000000000000000000000000000000000000000008152600401610a7190611b98565b60405180910390fd5b6002600084815260200190815260200160002060050160009054906101000a900460ff1615610ade576040517f08c379a0000000000000000000000000000000000000000000000000000000008152600401610ad590611a98565b60405180910390fd5b6002600084815260200190815260200160002060050160019054906101000a900460ff1615610b42576040517f08c379a0000000000000000000000000000000000000000000000000000000008152600401610b3990611af8565b60405180910390fd5b60026000848152602001908152602001600020600201546002023414610b9d576040517f08c379a0000000000000000000000000000000000000000000000000000000008152600401610b9490611ab8565b60405180910390fd5b6002600084815260200190815260200160002060010160009054906101000a900473ffffffffffffffffffffffffffffffffffffffff1673ffffffffffffffffffffffffffffffffffffffff163373ffffffffffffffffffffffffffffffffffffffff161415610c42576040517f08c379a0000000000000000000000000000000000000000000000000000000008152600401610c3990611b78565b60405180910390fd5b8181600260008681526020019081526020016000206006019190610c6792919061114e565b50336002600085815260200190815260200160002060050160026101000a81548173ffffffffffffffffffffffffffffffffffffffff021916908373ffffffffffffffffffffffffffffffffffffffff16021790555060016002600085815260200190815260200160002060050160016101000a81548160ff0219169083151502179055503373ffffffffffffffffffffffffffffffffffffffff167f11a4cbc84484821c352dc49a54e7466753f52d24ced9075fab45d0ce28c4895e600260008681526020019081526020016000208484604051610d4893929190611bda565b60405180910390a2505050565b60005481108015610d67575060008110155b610da6576040517f08c379a0000000000000000000000000000000000000000000000000000000008152600401610d9d90611b98565b60405180910390fd5b6002600082815260200190815260200160002060050160009054906101000a900460ff1615610e0a576040517f08c379a0000000000000000000000000000000000000000000000000000000008152600401610e0190611a98565b60405180910390fd5b6002600082815260200190815260200160002060050160029054906101000a900473ffffffffffffffffffffffffffffffffffffffff1673ffffffffffffffffffffffffffffffffffffffff163373ffffffffffffffffffffffffffffffffffffffff1614610eae576040517f08c379a0000000000000000000000000000000000000000000000000000000008152600401610ea590611b38565b60405180910390fd5b60016002600083815260200190815260200160002060050160006101000a81548160ff0219169083151502179055506002600082815260200190815260200160002060010160009054906101000a900473ffffffffffffffffffffffffffffffffffffffff1673ffffffffffffffffffffffffffffffffffffffff166108fc60026000848152602001908152602001600020600201546003029081150290604051600060405180830381858888f19350505050158015610f72573d6000803e3d6000fd5b506002600082815260200190815260200160002060050160029054906101000a900473ffffffffffffffffffffffffffffffffffffffff1673ffffffffffffffffffffffffffffffffffffffff166108fc60026000848152602001908152602001600020600201549081150290604051600060405180830381858888f19350505050158015611005573d6000803e3d6000fd5b507f5916c2eba58b0a8b7e0f37cc6ab9c2157848315760f96c2e3efe21c9cf8ecc5c600260008381526020019081526020016000206040516110479190611bb8565b60405180910390a150565b828054600181600116156101000203166002900490600052602060002090601f016020900481019282601f1061109357805160ff19168380011785556110c1565b828001600101855582156110c1579182015b828111156110c05782518255916020019190600101906110a5565b5b5090506110ce91906111ce565b5090565b60405180610120016040528060008152602001600073ffffffffffffffffffffffffffffffffffffffff168152602001600081526020016060815260200160608152602001600015158152602001600015158152602001600073ffffffffffffffffffffffffffffffffffffffff168152602001606081525090565b828054600181600116156101000203166002900490600052602060002090601f016020900481019282601f1061118f57803560ff19168380011785556111bd565b828001600101855582156111bd579182015b828111156111bc5782358255916020019190600101906111a1565b5b5090506111ca91906111ce565b5090565b6111f091905b808211156111ec5760008160009055506001016111d4565b5090565b90565b60008083601f84011261120557600080fd5b8235905067ffffffffffffffff81111561121e57600080fd5b60208301915083600182028301111561123657600080fd5b9250929050565b60008135905061124c81611e5a565b92915050565b60006020828403121561126457600080fd5b60006112728482850161123d565b91505092915050565b60008060006040848603121561129057600080fd5b600061129e8682870161123d565b935050602084013567ffffffffffffffff8111156112bb57600080fd5b6112c7868287016111f3565b92509250509250925092565b6000806000806000606086880312156112eb57600080fd5b60006112f98882890161123d565b955050602086013567ffffffffffffffff81111561131657600080fd5b611322888289016111f3565b9450945050604086013567ffffffffffffffff81111561134157600080fd5b61134d888289016111f3565b92509250509295509295909350565b60006113688383611805565b905092915050565b61137981611d28565b82525050565b61138881611ce0565b82525050565b600061139982611c53565b6113a38185611c76565b9350836020820285016113b585611c2e565b8060005b858110156113f157848403895281516113d2858261135c565b94506113dd83611c69565b925060208a019950506001810190506113b9565b50829750879550505050505092915050565b61140c81611cf2565b82525050565b600061141e8385611c98565b935061142b838584611d5e565b61143483611e22565b840190509392505050565b600061144a82611c5e565b6114548185611c87565b9350611464818560208601611d6d565b61146d81611e22565b840191505092915050565b60008154600181166000811461149557600181146114bb576114ff565b607f60028304166114a68187611c87565b955060ff1983168652602086019350506114ff565b600282046114c98187611c87565b95506114d485611c3e565b60005b828110156114f6578154818901526001820191506020810190506114d7565b80880195505050505b505092915050565b6000611514602083611c98565b91507f546865206974656d2068617320616c7265616479206265656e20626f756768746000830152602082019050919050565b6000611554603083611c98565b91507f546865207265717569726564206465706f73697420666f72207468652070757260008301527f6368617365206e6f7420676976656e20000000000000000000000000000000006020830152604082019050919050565b60006115ba602683611c98565b91507f596f752068617665206e6f74207061696420746865207365637572697479206460008301527f65706f73697400000000000000000000000000000000000000000000000000006020830152604082019050919050565b6000611620603483611c98565b91507f746865206974656d20616c72656164792068617320612062757965722c696e2060008301527f6d69647374206f66207472616e73616374696f6e0000000000000000000000006020830152604082019050919050565b6000611686602c83611c98565b91507f54686973206973206e6f7420796f7572206c697374696e6720796f752063616e60008301527f742073656c6c20746869732000000000000000000000000000000000000000006020830152604082019050919050565b60006116ec602483611c98565b91507f596f7520617265206e6f742074686520627579657220666f722074686973206960008301527f74656d20000000000000000000000000000000000000000000000000000000006020830152604082019050919050565b6000611752601583611c98565b91507f50726963652063616e6e6f7420626520302077656900000000000000000000006000830152602082019050919050565b6000611792601c83611c98565b91507f596f752063616e742062757920796f7572206f776e206974656d7320000000006000830152602082019050919050565b60006117d2601583611c98565b91507f4c697374696e6720696420697320696e76616c696400000000000000000000006000830152602082019050919050565b60006101208301600083015161181e60008601826119dd565b506020830151611831602086018261137f565b50604083015161184460408601826119dd565b506060830151848203606086015261185c828261143f565b91505060808301518482036080860152611876828261143f565b91505060a083015161188b60a0860182611403565b5060c083015161189e60c0860182611403565b5060e08301516118b160e086018261137f565b506101008301518482036101008601526118cb828261143f565b9150508091505092915050565b6000610120830160008084015490506118f081611dd4565b6118fd60008701826119dd565b506001840154905061190e81611da0565b61191b602087018261137f565b506002840154905061192c81611dd4565b61193960408701826119dd565b506003840185830360608701526119508382611478565b9250506004840185830360808701526119698382611478565b9250506005840154905061197c81611dba565b61198960a0870182611403565b5061199381611dee565b6119a060c0870182611403565b506119aa81611e08565b6119b760e087018261137f565b50600684018583036101008701526119cf8382611478565b925050819250505092915050565b6119e681611d1e565b82525050565b6119f581611d1e565b82525050565b6000608082019050611a106000830189611370565b611a1d60208301886119ec565b8181036040830152611a30818688611412565b90508181036060830152611a45818486611412565b9050979650505050505050565b60006020820190508181036000830152611a6c818461138e565b905092915050565b60006020820190508181036000830152611a8f818486611412565b90509392505050565b60006020820190508181036000830152611ab181611507565b9050919050565b60006020820190508181036000830152611ad181611547565b9050919050565b60006020820190508181036000830152611af1816115ad565b9050919050565b60006020820190508181036000830152611b1181611613565b9050919050565b60006020820190508181036000830152611b3181611679565b9050919050565b60006020820190508181036000830152611b51816116df565b9050919050565b60006020820190508181036000830152611b7181611745565b9050919050565b60006020820190508181036000830152611b9181611785565b9050919050565b60006020820190508181036000830152611bb1816117c5565b9050919050565b60006020820190508181036000830152611bd281846118d8565b905092915050565b60006040820190508181036000830152611bf481866118d8565b90508181036020830152611c09818486611412565b9050949350505050565b6000602082019050611c2860008301846119ec565b92915050565b6000819050602082019050919050565b60008190508160005260206000209050919050565b600081519050919050565b600081519050919050565b6000602082019050919050565b600082825260208201905092915050565b600082825260208201905092915050565b600082825260208201905092915050565b600073ffffffffffffffffffffffffffffffffffffffff82169050919050565b600060ff82169050919050565b6000819050919050565b6000611ceb82611cfe565b9050919050565b60008115159050919050565b600073ffffffffffffffffffffffffffffffffffffffff82169050919050565b6000819050919050565b6000611d3382611d3a565b9050919050565b6000611d4582611d4c565b9050919050565b6000611d5782611cfe565b9050919050565b82818337600083830152505050565b60005b83811015611d8b578082015181840152602081019050611d70565b83811115611d9a576000848401525b50505050565b6000611db3611dae83611e33565b611ca9565b9050919050565b6000611dcd611dc883611e33565b611cc9565b9050919050565b6000611de7611de283611e33565b611cd6565b9050919050565b6000611e01611dfc83611e4d565b611cc9565b9050919050565b6000611e1b611e1683611e40565b611ca9565b9050919050565b6000601f19601f8301169050919050565b60008160001c9050919050565b60008160101c9050919050565b60008160081c9050919050565b611e6381611d1e565b8114611e6e57600080fd5b5056fea365627a7a72315820105c9ab389fe06fb28228ae152539505c5238fac1b02d90f0d724fa86268f4086c6578706572696d656e74616cf564736f6c63430005100040",
  "source": "// SPDX-License-Identifier: MIT\npragma solidity >=0.4.22 <0.9.0;\npragma experimental ABIEncoderV2;\n\ncontract Market {\n    uint256 current_listing_id = 0;\n    uint256 public activelistings = 0;\n\n    // structure for each listings\n    /// @dev uint is the unique listing id\n    /// @dev seller stores the seller address\n    /// @dev price is the price of the item\n    /// @dev item_name is the name of the item\n    /// @dev item_description has the description of the item\n    /// @dev sold indicates whether the item is already sold or not\n    /// @dev buyer_alloted denotes whether some buyer has requested to purchase the listing\n    /// @dev buyer is the address of the buyer\n    /// @dev pubkey is the pubkey of the buyer and is assigned at the time of request of purchase\n\n    struct listings {\n        uint256 listing_id;\n        address payable seller;\n        uint256 price;\n        string item_name;\n        string item_description;\n        bool sold_or_withdrawn;\n        bool buyer_alloted;\n        address payable buyer;\n        string pubkey;\n        //address owner\n    }\n\n    // structure for each sale\n    /// @dev uint is the unique listing id of the item\n    /// @dev seller stores the seller address\n    /// @dev buyer stores the buyer address\n    /// @dev secret_key is the unique string authorising the sale\n\n    // struct sales {\n    //     uint256 listing_id;\n    //     address payable seller;\n    //     address payable buyer;\n    //     string secret_key;\n    // }\n\n    /// @dev this event is emitted when a listing is created\n    event ListingCreated(\n        uint256 indexed listing_id,\n        address seller,\n        uint256 price,\n        string item_name,\n        string item_description\n    );\n    /// @dev this event is for when listing is modified ,item sold or withdrawn\n    event ListingChanged(address indexed seller, uint256 indexed index);\n    /// @dev this event is for when item purchase is requested by buyer\n    event PurchaseRequested(listings list, address indexed buyer,string public_key);\n    /// @dev this event is for when seller confirms item purchase by buyer\n    /// @dev the hash of the item string is added the block chain from where the buyer can retrieve and decrypt\n    event encryptedKey(uint256 indexed listing_id, string H);\n    /// event emitted when the a item is bought and both the seller and buyer gets the money/item\n    event PurchaseComplete(listings list);\n\n    /// @dev this event is emitted when a sale is initiated\n    // event SaleCreated(\n    //     uint256 indexed listing_id,\n    //     address indexed seller,\n    //     address indexed buyer\n    // );\n\n    // create a listing for all possible listing id and make it private\n    mapping(uint256 => listings) private Listings;\n\n    // create a listing for all possible listing id and make it private\n    // mapping(uint256 => sales) private Sales;\n\n    // function randomKeyGenerator() pure returns (string) {\n    //     return string(keccak256(abi.encodePacked(now)));\n    // }\n\n    //create a listing for sale in the market place\n    function createListings(\n        uint256 price,\n        string calldata item_name,\n        string calldata item_description\n    ) external payable {\n        require(price > 0, \"Price cannot be 0 wei\");\n\n        uint256 listing_id = current_listing_id;\n        current_listing_id += 1;\n        activelistings += 1;\n\n        Listings[listing_id] = listings(\n            listing_id,\n            msg.sender,\n            price,\n            item_name,\n            item_description,\n            false, \n            false,\n            address(0), \n            ''\n        );\n        // emit the update\n        emit ListingCreated(\n            listing_id,\n            msg.sender,\n            price,\n            item_name,\n            item_description\n        );\n        emit ListingChanged(msg.sender, activelistings);\n    }\n\n    /* Returns all unsold/unwithdrawn market items */\n    ///@dev returns a list of active listings\n    function fetchactivelistings() external view returns (listings[] memory) {\n        uint256 currentIndex = 0;\n\n        listings[] memory active_list = new listings[](activelistings);\n        for (uint256 i = 0; i < current_listing_id; i++) {\n            // only consider listings which are unsold/not withdrawn\n            if (Listings[i].sold_or_withdrawn == false) {\n                listings storage currentlisting = Listings[i];\n                active_list[currentIndex] = currentlisting;\n                currentIndex += 1;\n            }\n        }\n        return active_list;\n    }\n\n    //request from buyer to seller for item's purchase\n    // the contract emits a event to let the seller know that an buyer has been found\n    /// @dev listing id is the id of the item buyer is interested in\n    function requestBuy(uint256 listing_id,string calldata public_key) external payable {\n        require(\n            listing_id < current_listing_id && listing_id >= 0,\n            \"Listing id is invalid\"\n        ); // Check for valid listing id\n        require(\n            !Listings[listing_id].sold_or_withdrawn,\n            \"The item has already been bought\"\n        ); // Check if the item is still available\n        require(\n          !Listings[listing_id].buyer_alloted,\n          \"the item already has a buyer,in midst of transaction\"\n        ); // Check whether item has a buyer already\n        require(\n          msg.value == 2*Listings[listing_id].price,\n          \"The required deposit for the purchase not given \"\n        );// check whether you have provided 2 times the selling price,for security purposes\n        require(\n          msg.sender != Listings[listing_id].seller,\n          \"You cant buy your own items \"\n        );\n        //Check that the seller is not the buyer\n\n        // let the seller know you have found a buyer\n        Listings[listing_id].pubkey = public_key;\n        Listings[listing_id].buyer = msg.sender;\n        Listings[listing_id].buyer_alloted = true;\n        emit PurchaseRequested(Listings[listing_id], msg.sender,public_key);\n    }\n\n    //Sale of item from seller's side\n    // transaction from the seller \n    /// @dev listing id is the id of the item being sold_\n    /// @dev H is the hashed key for the item string (Hashed using the public key of the buyer off-chain)\n    function sellItem(uint256 listing_id,string calldata  H) external payable {\n        require(\n            listing_id < current_listing_id && listing_id >= 0,\n            \"Listing id is invalid\"\n        ); // Check for valid listing id\n        require(\n            !Listings[listing_id].sold_or_withdrawn,\n            \"The item has already been bought\"\n        ); // Check if the item is still available\n        require(\n          msg.sender == Listings[listing_id].seller,\n          \"This is not your listing you cant sell this \"\n        );\n        // check whether the caller is the seller\n        require(\n          msg.value == 2*Listings[listing_id].price,\n          \"You have not paid the security deposit\"\n        );\n        // Check the security deposits\n        //Listings[listing_id].sold_or_withdrawn = true;\n\n        emit encryptedKey(listing_id, H);\n    }\n\n    //Confirmation from buyer on receiving item\n    // the buyer confirms to get the refund of the money owed.(price)\n    // the seller gets his amount + price (3 * price)\n    /// @dev the listing id is the item being exchanged\n    function confirmDelivery(uint256 listing_id) external payable {\n    require(\n            listing_id < current_listing_id && listing_id >= 0,\n            \"Listing id is invalid\"\n        ); // Check for valid listing id\n        require(\n            !Listings[listing_id].sold_or_withdrawn,\n            \"The item has already been bought\"\n        ); // Check if the item is still available\n        require(\n          msg.sender == Listings[listing_id].buyer,\n          \"You are not the buyer for this item \"\n        );\n        // check whether buyer is the messenger\n        //refund the seller\n        Listings[listing_id].sold_or_withdrawn = true;\n        Listings[listing_id].seller.transfer(3*Listings[listing_id].price);\n        // refund the buyer\n        Listings[listing_id].buyer.transfer(Listings[listing_id].price);\n        emit PurchaseComplete(Listings[listing_id]);\n\n\n    }\n}\n",
  "sourcePath": "/home/tathagato/Block-Chain-Collab/Assignments/1/contracts/Market.sol",
  "compiler": {
    "name": "solc",
    "version": "0.5.16+commit.9c3226ce.Emscripten.clang"
  },
  "schemaVersion": "3.4.3",
  "updatedAt": "2021-09-19T23:48:53.938Z",
  "networkType": "ethereum",
  "devdoc": {
    "methods": {
      "confirmDelivery(uint256)": {
        "details": "the listing id is the item being exchanged"
      },
      "fetchactivelistings()": {
        "details": "returns a list of active listings"
      },
      "requestBuy(uint256,string)": {
        "details": "listing id is the id of the item buyer is interested in"
      },
      "sellItem(uint256,string)": {
        "details": "listing id is the id of the item being sold_H is the hashed key for the item string (Hashed using the public key of the buyer off-chain)"
      }
    }
  },
  "userdoc": {
    "methods": {}
  }
}