{
  "contractName": "Market",
  "abi": [
    {
      "anonymous": false,
      "inputs": [],
      "name": "Aborted",
      "type": "event"
    },
    {
      "anonymous": false,
      "inputs": [
        {
          "indexed": true,
          "internalType": "address",
          "name": "seller",
          "type": "address"
        },
        {
          "indexed": true,
          "internalType": "uint256",
          "name": "index",
          "type": "uint256"
        }
      ],
      "name": "ListingChanged",
      "type": "event"
    },
    {
      "anonymous": false,
      "inputs": [
        {
          "indexed": true,
          "internalType": "uint256",
          "name": "listing_id",
          "type": "uint256"
        },
        {
          "indexed": false,
          "internalType": "address",
          "name": "seller",
          "type": "address"
        },
        {
          "indexed": false,
          "internalType": "uint256",
          "name": "price",
          "type": "uint256"
        },
        {
          "indexed": false,
          "internalType": "string",
          "name": "item_name",
          "type": "string"
        },
        {
          "indexed": false,
          "internalType": "string",
          "name": "item_description",
          "type": "string"
        }
      ],
      "name": "ListingCreated",
      "type": "event"
    },
    {
      "anonymous": false,
      "inputs": [
        {
          "components": [
            {
              "internalType": "uint256",
              "name": "listing_id",
              "type": "uint256"
            },
            {
              "internalType": "address payable",
              "name": "seller",
              "type": "address"
            },
            {
              "internalType": "address payable",
              "name": "buyer",
              "type": "address"
            },
            {
              "internalType": "uint256",
              "name": "price",
              "type": "uint256"
            },
            {
              "internalType": "string",
              "name": "item_name",
              "type": "string"
            },
            {
              "internalType": "string",
              "name": "item_description",
              "type": "string"
            },
            {
              "internalType": "bool",
              "name": "sold_or_withdrawn",
              "type": "bool"
            },
            {
              "internalType": "bool",
              "name": "buyer_alloted",
              "type": "bool"
            },
            {
              "internalType": "enum Market.State",
              "name": "state",
              "type": "uint8"
            }
          ],
          "indexed": false,
          "internalType": "struct Market.listings",
          "name": "list",
          "type": "tuple"
        }
      ],
      "name": "PurchaseComplete",
      "type": "event"
    },
    {
      "anonymous": false,
      "inputs": [
        {
          "components": [
            {
              "internalType": "uint256",
              "name": "listing_id",
              "type": "uint256"
            },
            {
              "internalType": "address payable",
              "name": "seller",
              "type": "address"
            },
            {
              "internalType": "address payable",
              "name": "buyer",
              "type": "address"
            },
            {
              "internalType": "uint256",
              "name": "price",
              "type": "uint256"
            },
            {
              "internalType": "string",
              "name": "item_name",
              "type": "string"
            },
            {
              "internalType": "string",
              "name": "item_description",
              "type": "string"
            },
            {
              "internalType": "bool",
              "name": "sold_or_withdrawn",
              "type": "bool"
            },
            {
              "internalType": "bool",
              "name": "buyer_alloted",
              "type": "bool"
            },
            {
              "internalType": "enum Market.State",
              "name": "state",
              "type": "uint8"
            }
          ],
          "indexed": false,
          "internalType": "struct Market.listings",
          "name": "list",
          "type": "tuple"
        },
        {
          "indexed": true,
          "internalType": "address",
          "name": "buyer",
          "type": "address"
        }
      ],
      "name": "PurchaseRequested",
      "type": "event"
    },
    {
      "anonymous": false,
      "inputs": [
        {
          "indexed": true,
          "internalType": "uint256",
          "name": "listing_id",
          "type": "uint256"
        },
        {
          "indexed": false,
          "internalType": "string",
          "name": "H",
          "type": "string"
        }
      ],
      "name": "encryptedKey",
      "type": "event"
    },
    {
      "constant": true,
      "inputs": [],
      "name": "activelistings",
      "outputs": [
        {
          "internalType": "uint256",
          "name": "",
          "type": "uint256"
        }
      ],
      "payable": false,
      "stateMutability": "view",
      "type": "function"
    },
    {
      "constant": true,
      "inputs": [],
      "name": "state",
      "outputs": [
        {
          "internalType": "enum Market.State",
          "name": "",
          "type": "uint8"
        }
      ],
      "payable": false,
      "stateMutability": "view",
      "type": "function"
    },
    {
      "constant": true,
      "inputs": [
        {
          "internalType": "address",
          "name": "account",
          "type": "address"
        }
      ],
      "name": "getAccountBalance",
      "outputs": [
        {
          "internalType": "uint256",
          "name": "accountBalance",
          "type": "uint256"
        }
      ],
      "payable": false,
      "stateMutability": "view",
      "type": "function"
    },
    {
      "constant": false,
      "inputs": [
        {
          "internalType": "uint256",
          "name": "price",
          "type": "uint256"
        },
        {
          "internalType": "string",
          "name": "item_name",
          "type": "string"
        },
        {
          "internalType": "string",
          "name": "item_description",
          "type": "string"
        }
      ],
      "name": "createListings",
      "outputs": [],
      "payable": true,
      "stateMutability": "payable",
      "type": "function"
    },
    {
      "constant": true,
      "inputs": [],
      "name": "fetchactivelistings",
      "outputs": [
        {
          "components": [
            {
              "internalType": "uint256",
              "name": "listing_id",
              "type": "uint256"
            },
            {
              "internalType": "address payable",
              "name": "seller",
              "type": "address"
            },
            {
              "internalType": "address payable",
              "name": "buyer",
              "type": "address"
            },
            {
              "internalType": "uint256",
              "name": "price",
              "type": "uint256"
            },
            {
              "internalType": "string",
              "name": "item_name",
              "type": "string"
            },
            {
              "internalType": "string",
              "name": "item_description",
              "type": "string"
            },
            {
              "internalType": "bool",
              "name": "sold_or_withdrawn",
              "type": "bool"
            },
            {
              "internalType": "bool",
              "name": "buyer_alloted",
              "type": "bool"
            },
            {
              "internalType": "enum Market.State",
              "name": "state",
              "type": "uint8"
            }
          ],
          "internalType": "struct Market.listings[]",
          "name": "",
          "type": "tuple[]"
        }
      ],
      "payable": false,
      "stateMutability": "view",
      "type": "function"
    },
    {
      "constant": false,
      "inputs": [
        {
          "internalType": "uint256",
          "name": "listing_id",
          "type": "uint256"
        }
      ],
      "name": "requestBuy",
      "outputs": [],
      "payable": true,
      "stateMutability": "payable",
      "type": "function"
    },
    {
      "constant": false,
      "inputs": [
        {
          "internalType": "uint256",
          "name": "listing_id",
          "type": "uint256"
        },
        {
          "internalType": "string",
          "name": "H",
          "type": "string"
        }
      ],
      "name": "sellItem",
      "outputs": [],
      "payable": true,
      "stateMutability": "payable",
      "type": "function"
    },
    {
      "constant": false,
      "inputs": [
        {
          "internalType": "uint256",
          "name": "listing_id",
          "type": "uint256"
        }
      ],
      "name": "confirmDelivery",
      "outputs": [],
      "payable": true,
      "stateMutability": "payable",
      "type": "function"
    },
    {
      "constant": false,
      "inputs": [
        {
          "internalType": "uint256",
          "name": "listing_id",
          "type": "uint256"
        }
      ],
      "name": "abort",
      "outputs": [],
      "payable": false,
      "stateMutability": "nonpayable",
      "type": "function"
    }
  ],
  "bytecode": "0x608060405260008055600060015534801561001957600080fd5b5061210b806100296000396000f3fe6080604052600436106100865760003560e01c806393423e9c1161005957806393423e9c1461010a578063bc35529014610147578063c19d93fb14610172578063e50701f41461019d578063fd84cb97146101c657610086565b806314e24f6d1461008b5780631faa3538146100a757806332a22bb6146100d257806384febc4b146100ee575b600080fd5b6100a560048036036100a09190810190611524565b6101e2565b005b3480156100b357600080fd5b506100bc61050a565b6040516100c99190611c7f565b60405180910390f35b6100ec60048036036100e791908101906114a3565b610852565b005b610108600480360361010391908101906114cc565b610bab565b005b34801561011657600080fd5b50610131600480360361012c919081019061147a565b610da5565b60405161013e9190611e02565b60405180910390f35b34801561015357600080fd5b5061015c610dc6565b6040516101699190611e02565b60405180910390f35b34801561017e57600080fd5b50610187610dcc565b6040516101949190611ca1565b60405180910390f35b3480156101a957600080fd5b506101c460048036036101bf91908101906114a3565b610ddf565b005b6101e060048036036101db91908101906114a3565b610f4c565b005b60008511806101f057600080fd5b60008054905060016000808282540192505081905550600180600082825401925050819055506040518061012001604052808281526020013373ffffffffffffffffffffffffffffffffffffffff168152602001600073ffffffffffffffffffffffffffffffffffffffff16815260200188815260200187878080601f016020809104026020016040519081016040528093929190818152602001838380828437600081840152601f19601f82011690508083019250505050505050815260200185858080601f016020809104026020016040519081016040528093929190818152602001838380828437600081840152601f19601f8201169050808301925050505050505081526020016000151581526020016000151581526020016001600481111561031a57fe5b815250600260008381526020019081526020016000206000820151816000015560208201518160010160006101000a81548173ffffffffffffffffffffffffffffffffffffffff021916908373ffffffffffffffffffffffffffffffffffffffff16021790555060408201518160020160006101000a81548173ffffffffffffffffffffffffffffffffffffffff021916908373ffffffffffffffffffffffffffffffffffffffff1602179055506060820151816003015560808201518160040190805190602001906103ee9291906112da565b5060a082015181600501908051906020019061040b9291906112da565b5060c08201518160060160006101000a81548160ff02191690831515021790555060e08201518160060160016101000a81548160ff0219169083151502179055506101008201518160060160026101000a81548160ff0219169083600481111561047157fe5b0217905550905050807f6046a0779403a9b58628db4e89f8fb48ddd1844ca3df25a728482823988b43af3389898989896040516104b396959493929190611c28565b60405180910390a26001543373ffffffffffffffffffffffffffffffffffffffff167fe5317da7a2a5a513758a425cd8d8926ce3e58f239f2c630a790fc6b038dd3bd060405160405180910390a350505050505050565b60606000809050606060015460405190808252806020026020018201604052801561054f57816020015b61053c61135a565b8152602001906001900390816105345790505b50905060008090505b60005481101561084957600015156002600083815260200190815260200160002060060160009054906101000a900460ff161515141561083c5760006002600083815260200190815260200160002090508060405180610120016040529081600082015481526020016001820160009054906101000a900473ffffffffffffffffffffffffffffffffffffffff1673ffffffffffffffffffffffffffffffffffffffff1673ffffffffffffffffffffffffffffffffffffffff1681526020016002820160009054906101000a900473ffffffffffffffffffffffffffffffffffffffff1673ffffffffffffffffffffffffffffffffffffffff1673ffffffffffffffffffffffffffffffffffffffff16815260200160038201548152602001600482018054600181600116156101000203166002900480601f01602080910402602001604051908101604052809291908181526020018280546001816001161561010002031660029004801561070f5780601f106106e45761010080835404028352916020019161070f565b820191906000526020600020905b8154815290600101906020018083116106f257829003601f168201915b50505050508152602001600582018054600181600116156101000203166002900480601f0160208091040260200160405190810160405280929190818152602001828054600181600116156101000203166002900480156107b15780601f10610786576101008083540402835291602001916107b1565b820191906000526020600020905b81548152906001019060200180831161079457829003601f168201915b505050505081526020016006820160009054906101000a900460ff161515151581526020016006820160019054906101000a900460ff161515151581526020016006820160029054906101000a900460ff16600481111561080e57fe5b600481111561081957fe5b8152505083858151811061082957fe5b6020026020010181905250600184019350505b8080600101915050610558565b50809250505090565b803373ffffffffffffffffffffffffffffffffffffffff166002600083815260200190815260200160002060010160009054906101000a900473ffffffffffffffffffffffffffffffffffffffff1673ffffffffffffffffffffffffffffffffffffffff1614156108f8576040517f08c379a00000000000000000000000000000000000000000000000000000000081526004016108ef90611dc0565b60405180910390fd5b816000548110801561090b575060008110155b61094a576040517f08c379a000000000000000000000000000000000000000000000000000000000815260040161094190611d40565b60405180910390fd5b826002600082815260200190815260200160002060060160009054906101000a900460ff16156109af576040517f08c379a00000000000000000000000000000000000000000000000000000000081526004016109a690611da0565b60405180910390fd5b8360006109bb33610da5565b905034811015610a00576040517f08c379a00000000000000000000000000000000000000000000000000000000081526004016109f790611ce0565b60405180910390fd5b6002600087815260200190815260200160002060060160019054906101000a900460ff1615610a64576040517f08c379a0000000000000000000000000000000000000000000000000000000008152600401610a5b90611d80565b60405180910390fd5b60026000878152602001908152602001600020600301546002023414610abf576040517f08c379a0000000000000000000000000000000000000000000000000000000008152600401610ab690611d20565b60405180910390fd5b336002600088815260200190815260200160002060020160006101000a81548173ffffffffffffffffffffffffffffffffffffffff021916908373ffffffffffffffffffffffffffffffffffffffff16021790555060016002600088815260200190815260200160002060060160016101000a81548160ff0219169083151502179055503373ffffffffffffffffffffffffffffffffffffffff167f382a6a2b3d59b21d632fb85228a3329c39ddf89ec75dbffb977d54848267851060026000898152602001908152602001600020604051610b9b9190611de0565b60405180910390a2505050505050565b8260005481108015610bbe575060008110155b610bfd576040517f08c379a0000000000000000000000000000000000000000000000000000000008152600401610bf490611d40565b60405180910390fd5b833373ffffffffffffffffffffffffffffffffffffffff166002600083815260200190815260200160002060020160009054906101000a900473ffffffffffffffffffffffffffffffffffffffff1673ffffffffffffffffffffffffffffffffffffffff161415610ca3576040517f08c379a0000000000000000000000000000000000000000000000000000000008152600401610c9a90611d00565b60405180910390fd5b846002600082815260200190815260200160002060060160009054906101000a900460ff1615610d08576040517f08c379a0000000000000000000000000000000000000000000000000000000008152600401610cff90611da0565b60405180910390fd5b60026000878152602001908152602001600020600301546002023414610d63576040517f08c379a0000000000000000000000000000000000000000000000000000000008152600401610d5a90611d60565b60405180910390fd5b857f45bd963234a41bc8d75b2e2caf57f0987f5d405e1d4bbf09b919faeff927937c8686604051610d95929190611cbc565b60405180910390a2505050505050565b60008173ffffffffffffffffffffffffffffffffffffffff16319050919050565b60015481565b600360009054906101000a900460ff1681565b806002600082815260200190815260200160002060060160009054906101000a900460ff1615610e44576040517f08c379a0000000000000000000000000000000000000000000000000000000008152600401610e3b90611da0565b60405180910390fd5b7f72c874aeff0b183a56e2b79c71b46e1aed4dee5e09862134b8821ba2fddbf8bf60405160405180910390a160046002600084815260200190815260200160002060060160026101000a81548160ff02191690836004811115610ea357fe5b0217905550600160008154809291906001900391905055506002600083815260200190815260200160002060010160009054906101000a900473ffffffffffffffffffffffffffffffffffffffff1673ffffffffffffffffffffffffffffffffffffffff166108fc479081150290604051600060405180830381858888f19350505050158015610f37573d6000803e3d6000fd5b50600180600082825401925050819055505050565b8060005481108015610f5f575060008110155b610f9e576040517f08c379a0000000000000000000000000000000000000000000000000000000008152600401610f9590611d40565b60405180910390fd5b813373ffffffffffffffffffffffffffffffffffffffff166002600083815260200190815260200160002060010160009054906101000a900473ffffffffffffffffffffffffffffffffffffffff1673ffffffffffffffffffffffffffffffffffffffff161415611044576040517f08c379a000000000000000000000000000000000000000000000000000000000815260040161103b90611dc0565b60405180910390fd5b826002600082815260200190815260200160002060060160009054906101000a900460ff16156110a9576040517f08c379a00000000000000000000000000000000000000000000000000000000081526004016110a090611da0565b60405180910390fd5b60016002600086815260200190815260200160002060060160006101000a81548160ff0219169083151502179055506002600085815260200190815260200160002060010160009054906101000a900473ffffffffffffffffffffffffffffffffffffffff1673ffffffffffffffffffffffffffffffffffffffff166108fc60026000878152602001908152602001600020600301546003029081150290604051600060405180830381858888f1935050505015801561116d573d6000803e3d6000fd5b506002600085815260200190815260200160002060020160009054906101000a900473ffffffffffffffffffffffffffffffffffffffff1673ffffffffffffffffffffffffffffffffffffffff166108fc60026000878152602001908152602001600020600301549081150290604051600060405180830381858888f19350505050158015611200573d6000803e3d6000fd5b5060018060008282540392505081905550836002600086815260200190815260200160002060010160009054906101000a900473ffffffffffffffffffffffffffffffffffffffff1673ffffffffffffffffffffffffffffffffffffffff167fe5317da7a2a5a513758a425cd8d8926ce3e58f239f2c630a790fc6b038dd3bd060405160405180910390a37f2f4f99c1a14dde9d397a66d20b6f1ebee672fcdfe0daf39cdd4f1a346fc16db5600260008681526020019081526020016000206040516112cc9190611de0565b60405180910390a150505050565b828054600181600116156101000203166002900490600052602060002090601f016020900481019282601f1061131b57805160ff1916838001178555611349565b82800160010185558215611349579182015b8281111561134857825182559160200191906001019061132d565b5b50905061135691906113e1565b5090565b60405180610120016040528060008152602001600073ffffffffffffffffffffffffffffffffffffffff168152602001600073ffffffffffffffffffffffffffffffffffffffff168152602001600081526020016060815260200160608152602001600015158152602001600015158152602001600060048111156113db57fe5b81525090565b61140391905b808211156113ff5760008160009055506001016113e7565b5090565b90565b6000813590506114158161209a565b92915050565b60008083601f84011261142d57600080fd5b8235905067ffffffffffffffff81111561144657600080fd5b60208301915083600182028301111561145e57600080fd5b9250929050565b600081359050611474816120b1565b92915050565b60006020828403121561148c57600080fd5b600061149a84828501611406565b91505092915050565b6000602082840312156114b557600080fd5b60006114c384828501611465565b91505092915050565b6000806000604084860312156114e157600080fd5b60006114ef86828701611465565b935050602084013567ffffffffffffffff81111561150c57600080fd5b6115188682870161141b565b92509250509250925092565b60008060008060006060868803121561153c57600080fd5b600061154a88828901611465565b955050602086013567ffffffffffffffff81111561156757600080fd5b6115738882890161141b565b9450945050604086013567ffffffffffffffff81111561159257600080fd5b61159e8882890161141b565b92509250509295509295909350565b60006115b98383611a34565b905092915050565b6115ca81611f49565b82525050565b6115d981611eee565b82525050565b60006115ea82611e42565b6115f48185611e65565b93508360208202850161160685611e1d565b8060005b85811015611642578484038952815161162385826115ad565b945061162e83611e58565b925060208a0199505060018101905061160a565b50829750879550505050505092915050565b61165d81611f00565b82525050565b61166c81611f5b565b82525050565b61167b81611f5b565b82525050565b600061168d8385611e87565b935061169a838584611f91565b6116a383612055565b840190509392505050565b60006116b982611e4d565b6116c38185611e76565b93506116d3818560208601611fa0565b6116dc81612055565b840191505092915050565b600081546001811660008114611704576001811461172a5761176e565b607f60028304166117158187611e76565b955060ff19831686526020860193505061176e565b600282046117388187611e76565b955061174385611e2d565b60005b8281101561176557815481890152600182019150602081019050611746565b80880195505050505b505092915050565b6000611783602383611e87565b91507f496e737566696369656e742042616c616e636520666f72207472616e7361637460008301527f696f6e00000000000000000000000000000000000000000000000000000000006020830152604082019050919050565b60006117e9600e83611e87565b91507f496e76616c69642053656c6c65720000000000000000000000000000000000006000830152602082019050919050565b6000611829603083611e87565b91507f546865207265717569726564206465706f73697420666f72207468652070757260008301527f6368617365206e6f7420676976656e20000000000000000000000000000000006020830152604082019050919050565b600061188f601283611e87565b91507f496e76616c6964204c697374696e6720496400000000000000000000000000006000830152602082019050919050565b60006118cf602683611e87565b91507f596f752068617665206e6f74207061696420746865207365637572697479206460008301527f65706f73697400000000000000000000000000000000000000000000000000006020830152604082019050919050565b6000611935603483611e87565b91507f746865206974656d20616c72656164792068617320612062757965722c696e2060008301527f6d69647374206f66207472616e73616374696f6e0000000000000000000000006020830152604082019050919050565b600061199b602883611e87565b91507f4974656d2068617320616c7265616479206265656e20626f75676874202f207760008301527f697468647261776e0000000000000000000000000000000000000000000000006020830152604082019050919050565b6000611a01600d83611e87565b91507f496e76616c6964204275796572000000000000000000000000000000000000006000830152602082019050919050565b600061012083016000830151611a4d6000860182611c0a565b506020830151611a6060208601826115d0565b506040830151611a7360408601826115d0565b506060830151611a866060860182611c0a565b5060808301518482036080860152611a9e82826116ae565b91505060a083015184820360a0860152611ab882826116ae565b91505060c0830151611acd60c0860182611654565b5060e0830151611ae060e0860182611654565b50610100830151611af5610100860182611663565b508091505092915050565b600061012083016000808401549050611b1881612007565b611b256000870182611c0a565b5060018401549050611b3681611fd3565b611b4360208701826115d0565b5060028401549050611b5481611fd3565b611b6160408701826115d0565b5060038401549050611b7281612007565b611b7f6060870182611c0a565b50600484018583036080870152611b9683826116e7565b9250506005840185830360a0870152611baf83826116e7565b92505060068401549050611bc281611fed565b611bcf60c0870182611654565b50611bd981612021565b611be660e0870182611654565b50611bf08161203b565b611bfe610100870182611663565b50819250505092915050565b611c1381611f3f565b82525050565b611c2281611f3f565b82525050565b6000608082019050611c3d60008301896115c1565b611c4a6020830188611c19565b8181036040830152611c5d818688611681565b90508181036060830152611c72818486611681565b9050979650505050505050565b60006020820190508181036000830152611c9981846115df565b905092915050565b6000602082019050611cb66000830184611672565b92915050565b60006020820190508181036000830152611cd7818486611681565b90509392505050565b60006020820190508181036000830152611cf981611776565b9050919050565b60006020820190508181036000830152611d19816117dc565b9050919050565b60006020820190508181036000830152611d398161181c565b9050919050565b60006020820190508181036000830152611d5981611882565b9050919050565b60006020820190508181036000830152611d79816118c2565b9050919050565b60006020820190508181036000830152611d9981611928565b9050919050565b60006020820190508181036000830152611db98161198e565b9050919050565b60006020820190508181036000830152611dd9816119f4565b9050919050565b60006020820190508181036000830152611dfa8184611b00565b905092915050565b6000602082019050611e176000830184611c19565b92915050565b6000819050602082019050919050565b60008190508160005260206000209050919050565b600081519050919050565b600081519050919050565b6000602082019050919050565b600082825260208201905092915050565b600082825260208201905092915050565b600082825260208201905092915050565b600073ffffffffffffffffffffffffffffffffffffffff82169050919050565b600060ff82169050919050565b600060ff82169050919050565b6000819050919050565b6000611ee782611f1f565b9050919050565b6000611ef982611f1f565b9050919050565b60008115159050919050565b6000819050611f1a8261208d565b919050565b600073ffffffffffffffffffffffffffffffffffffffff82169050919050565b6000819050919050565b6000611f5482611f6d565b9050919050565b6000611f6682611f0c565b9050919050565b6000611f7882611f7f565b9050919050565b6000611f8a82611f1f565b9050919050565b82818337600083830152505050565b60005b83811015611fbe578082015181840152602081019050611fa3565b83811115611fcd576000848401525b50505050565b6000611fe6611fe183612066565b611e98565b9050919050565b6000612000611ffb83612066565b611eb8565b9050919050565b600061201a61201583612066565b611ed2565b9050919050565b600061203461202f83612080565b611eb8565b9050919050565b600061204e61204983612073565b611ec5565b9050919050565b6000601f19601f8301169050919050565b60008160001c9050919050565b60008160101c9050919050565b60008160081c9050919050565b6005811061209757fe5b50565b6120a381611edc565b81146120ae57600080fd5b50565b6120ba81611f3f565b81146120c557600080fd5b5056fea365627a7a723158202acb2ea4e0af7f2fbcc89456d9efc2281f3627997dd440b7ff0a421b645706616c6578706572696d656e74616cf564736f6c63430005100040",
  "source": "// SPDX-License-Identifier: MIT\npragma solidity >=0.4.22 <0.9.0;\npragma experimental ABIEncoderV2;\n\ncontract Market {\n    uint256 current_listing_id = 0;\n    uint256 public activelistings = 0;\n\n    // structure for each listings\n    /// @dev uint is the unique listing id\n    /// @dev seller stores the seller address\n    /// @dev buyer stores the buyer address\n    /// @dev price is the price of the item\n    /// @dev item_name is the name of the item\n    /// @dev item_description has the description of the item\n\n    struct listings {\n        uint256 listing_id;\n        address payable seller;\n        address payable buyer;\n        uint256 price;\n        string item_name;\n        string item_description;\n        bool sold_or_withdrawn;\n        bool buyer_alloted;\n        State state;\n    }\n\n    /// @dev this event is emitted when a listing is created\n    event ListingCreated(\n        uint256 indexed listing_id,\n        address seller,\n        uint256 price,\n        string item_name,\n        string item_description\n    );\n    /// @dev this event is for when listing is modified ,item sold or withdrawn\n    event ListingChanged(address indexed seller, uint256 indexed index);\n    /// @dev this event is for when item purchase is requested by buyer\n    event PurchaseRequested(listings list, address indexed buyer);\n    /// @dev this event is for when seller confirms item purchase by buyer\n    /// @dev the hash of the item string is added the block chain from where the buyer can retrieve and decrypt\n    event encryptedKey(uint256 indexed listing_id, string H);\n    /// event emitted when the a item is bought and both the seller and buyer gets the money/item\n    event PurchaseComplete(listings list);\n    /// @dev this event is for when transaction is aborted\n    event Aborted();\n\n    // create a listing for all possible listing id and make it private\n    mapping(uint256 => listings) private Listings;\n\n    enum State {\n        Created,\n        Active,\n        Sold,\n        Delivered,\n        Inactive\n    }\n    State public state;\n\n    modifier condition(bool _condition) {\n        require(_condition);\n        _;\n    }\n\n    modifier ValidBuyer(uint256 listing_id) {\n        require(Listings[listing_id].seller != msg.sender, \"Invalid Buyer\");\n        _;\n    }\n\n    modifier ValidSeller(uint256 listing_id) {\n        require(Listings[listing_id].buyer != msg.sender, \"Invalid Seller\");\n        _;\n    }\n\n    modifier SufficientBalance(uint256 listing_id) {\n        uint256 balance = getAccountBalance(msg.sender);\n        require(balance >= msg.value, \"Insuficient Balance for transaction\");\n        _;\n    }\n\n    modifier CheckState(uint256 listing_id) {\n        require(\n            !Listings[listing_id].sold_or_withdrawn,\n            \"Item has already been bought / withdrawn\"\n        );\n        _;\n    }\n\n    modifier ValidListing(uint256 listing_id) {\n        require(\n            listing_id < current_listing_id && listing_id >= 0,\n            \"Invalid Listing Id\"\n        );\n        _;\n    }\n\n    // function randomKeyGenerator() pure returns (string) {\n    //     return string(keccak256(abi.encodePacked(now)));\n    // }\n\n    function getAccountBalance(address account)\n        public\n        view\n        returns (uint256 accountBalance)\n    {\n        accountBalance = account.balance;\n    }\n\n    //create a listing for sale in the market place\n    //onlySeller\n    function createListings(\n        uint256 price,\n        string calldata item_name,\n        string calldata item_description\n    ) external payable condition(price > 0) {\n        uint256 listing_id = current_listing_id;\n        current_listing_id += 1;\n        activelistings += 1;\n\n        Listings[listing_id] = listings(\n            listing_id,\n            msg.sender,\n            address(0),\n            price,\n            item_name,\n            item_description,\n            false,\n            false,\n            State.Active\n        );\n        // emit the update\n        emit ListingCreated(\n            listing_id,\n            msg.sender,\n            price,\n            item_name,\n            item_description\n        );\n        emit ListingChanged(msg.sender, activelistings);\n    }\n\n    /* Returns all unsold/unwithdrawn market items */\n    ///@dev returns a list of active listings\n    function fetchactivelistings() external view returns (listings[] memory) {\n        uint256 currentIndex = 0;\n\n        listings[] memory active_list = new listings[](activelistings);\n        for (uint256 i = 0; i < current_listing_id; i++) {\n            // only consider listings which are unsold/not withdrawn\n            if (Listings[i].sold_or_withdrawn == false) {\n                listings storage currentlisting = Listings[i];\n                active_list[currentIndex] = currentlisting;\n                currentIndex += 1;\n            }\n        }\n        return active_list;\n    }\n\n    /// Request from buyer to seller for item's purchase\n    /// the contract emits a event to let the seller know that an buyer has been found\n    /// @dev listing id is the id of the item buyer is interested in\n    function requestBuy(uint256 listing_id)\n        external\n        payable\n        ValidBuyer(listing_id)\n        ValidListing(listing_id)\n        CheckState(listing_id)\n        SufficientBalance(listing_id)\n    {\n        /// Check whether item has a buyer already\n        require(\n            !Listings[listing_id].buyer_alloted,\n            \"the item already has a buyer,in midst of transaction\"\n        );\n        /// Check whether you have provided 2 times the selling price,for security purposes\n        require(\n            msg.value == 2 * Listings[listing_id].price,\n            \"The required deposit for the purchase not given \"\n        );\n\n        /// Let the seller know you have found a buyer\n        Listings[listing_id].buyer = msg.sender;\n        Listings[listing_id].buyer_alloted = true;\n        emit PurchaseRequested(Listings[listing_id], msg.sender);\n    }\n\n    /// Sale of item from seller's side\n    /// Transaction from the seller\n    /// @dev listing id is the id of the item being sold_\n    /// @dev H is the hashed key for the item string (Hashed using the public key of the buyer off-chain)\n    function sellItem(uint256 listing_id, string calldata H)\n        external\n        payable\n        ValidListing(listing_id)\n        ValidSeller(listing_id)\n        CheckState(listing_id)\n    {\n        /// Check the security deposits\n        require(\n            msg.value == 2 * Listings[listing_id].price,\n            \"You have not paid the security deposit\"\n        );\n        // Check the security deposits\n        // Listings[listing_id].sold_or_withdrawn = true;\n\n        emit encryptedKey(listing_id, H);\n    }\n\n    /// Confirmation from buyer on receiving item\n    /// the buyer confirms to get the refund of the money owed.(price)\n    /// the seller gets his amount + price (3 * price)\n    /// @dev the listing id is the item being exchanged\n    function confirmDelivery(uint256 listing_id)\n        external\n        payable\n        ValidListing(listing_id)\n        ValidBuyer(listing_id)\n        CheckState(listing_id)\n    {\n        /// Refund the seller\n        Listings[listing_id].sold_or_withdrawn = true;\n        Listings[listing_id].seller.transfer(3 * Listings[listing_id].price);\n        /// Refund the buyer\n        Listings[listing_id].buyer.transfer(Listings[listing_id].price);\n        activelistings -= 1;\n        emit ListingChanged(Listings[listing_id].seller, listing_id);\n        emit PurchaseComplete(Listings[listing_id]);\n    }\n\n    /// Abort the purchase and reclaim the ether.\n    function abort(uint256 listing_id) public CheckState(listing_id) {\n        emit Aborted();\n        Listings[listing_id].state = State.Inactive;\n        activelistings--;\n        Listings[listing_id].seller.transfer(address(this).balance);\n        activelistings += 1;\n    }\n}\n",
  "sourcePath": "/home/rutvij/programming/Assignments/DTBC/Block-Chain-Collab/Assignments/1/contracts/Market.sol",
  "compiler": {
    "name": "solc",
    "version": "0.5.16+commit.9c3226ce.Emscripten.clang"
  },
  "schemaVersion": "3.4.3",
  "updatedAt": "2021-09-19T23:43:20.104Z",
  "devdoc": {
    "methods": {
      "confirmDelivery(uint256)": {
        "details": "the listing id is the item being exchanged"
      },
      "fetchactivelistings()": {
        "details": "returns a list of active listings"
      },
      "requestBuy(uint256)": {
        "details": "listing id is the id of the item buyer is interested in"
      },
      "sellItem(uint256,string)": {
        "details": "listing id is the id of the item being sold_H is the hashed key for the item string (Hashed using the public key of the buyer off-chain)"
      }
    }
  },
  "userdoc": {
    "methods": {
      "abort(uint256)": {
        "notice": "Abort the purchase and reclaim the ether."
      },
      "confirmDelivery(uint256)": {
        "notice": "Confirmation from buyer on receiving item the buyer confirms to get the refund of the money owed.(price) the seller gets his amount + price (3 * price)"
      },
      "requestBuy(uint256)": {
        "notice": "Request from buyer to seller for item's purchase the contract emits a event to let the seller know that an buyer has been found"
      },
      "sellItem(uint256,string)": {
        "notice": "Sale of item from seller's side Transaction from the seller"
      }
    }
  }
}