{
  "contractName": "Market",
  "abi": [
    {
      "anonymous": false,
      "inputs": [
        {
          "indexed": true,
          "internalType": "address",
          "name": "seller",
          "type": "address"
        },
        {
          "indexed": true,
          "internalType": "uint256",
          "name": "index",
          "type": "uint256"
        }
      ],
      "name": "ListingChanged",
      "type": "event"
    },
    {
      "anonymous": false,
      "inputs": [
        {
          "indexed": true,
          "internalType": "uint256",
          "name": "listing_id",
          "type": "uint256"
        },
        {
          "indexed": false,
          "internalType": "address",
          "name": "seller",
          "type": "address"
        },
        {
          "indexed": false,
          "internalType": "uint256",
          "name": "price",
          "type": "uint256"
        },
        {
          "indexed": false,
          "internalType": "string",
          "name": "item_name",
          "type": "string"
        },
        {
          "indexed": false,
          "internalType": "string",
          "name": "item_description",
          "type": "string"
        }
      ],
      "name": "ListingCreated",
      "type": "event"
    },
    {
      "anonymous": false,
      "inputs": [
        {
          "components": [
            {
              "internalType": "uint256",
              "name": "listing_id",
              "type": "uint256"
            },
            {
              "internalType": "address payable",
              "name": "seller",
              "type": "address"
            },
            {
              "internalType": "uint256",
              "name": "price",
              "type": "uint256"
            },
            {
              "internalType": "string",
              "name": "item_name",
              "type": "string"
            },
            {
              "internalType": "string",
              "name": "item_description",
              "type": "string"
            },
            {
              "internalType": "bool",
              "name": "sold_or_withdrawn",
              "type": "bool"
            },
            {
              "internalType": "bool",
              "name": "buyer_alloted",
              "type": "bool"
            },
            {
              "internalType": "address payable",
              "name": "buyer",
              "type": "address"
            }
          ],
          "indexed": false,
          "internalType": "struct Market.listings",
          "name": "list",
          "type": "tuple"
        }
      ],
      "name": "PurchaseComplete",
      "type": "event"
    },
    {
      "anonymous": false,
      "inputs": [
        {
          "components": [
            {
              "internalType": "uint256",
              "name": "listing_id",
              "type": "uint256"
            },
            {
              "internalType": "address payable",
              "name": "seller",
              "type": "address"
            },
            {
              "internalType": "uint256",
              "name": "price",
              "type": "uint256"
            },
            {
              "internalType": "string",
              "name": "item_name",
              "type": "string"
            },
            {
              "internalType": "string",
              "name": "item_description",
              "type": "string"
            },
            {
              "internalType": "bool",
              "name": "sold_or_withdrawn",
              "type": "bool"
            },
            {
              "internalType": "bool",
              "name": "buyer_alloted",
              "type": "bool"
            },
            {
              "internalType": "address payable",
              "name": "buyer",
              "type": "address"
            }
          ],
          "indexed": false,
          "internalType": "struct Market.listings",
          "name": "list",
          "type": "tuple"
        },
        {
          "indexed": true,
          "internalType": "address",
          "name": "buyer",
          "type": "address"
        }
      ],
      "name": "PurchaseRequested",
      "type": "event"
    },
    {
      "anonymous": false,
      "inputs": [
        {
          "indexed": true,
          "internalType": "uint256",
          "name": "listing_id",
          "type": "uint256"
        },
        {
          "indexed": true,
          "internalType": "string",
          "name": "H",
          "type": "string"
        }
      ],
      "name": "encryptedKey",
      "type": "event"
    },
    {
      "constant": true,
      "inputs": [],
      "name": "activelistings",
      "outputs": [
        {
          "internalType": "uint256",
          "name": "",
          "type": "uint256"
        }
      ],
      "payable": false,
      "stateMutability": "view",
      "type": "function"
    },
    {
      "constant": false,
      "inputs": [
        {
          "internalType": "uint256",
          "name": "price",
          "type": "uint256"
        },
        {
          "internalType": "string",
          "name": "item_name",
          "type": "string"
        },
        {
          "internalType": "string",
          "name": "item_description",
          "type": "string"
        }
      ],
      "name": "createListings",
      "outputs": [],
      "payable": true,
      "stateMutability": "payable",
      "type": "function"
    },
    {
      "constant": true,
      "inputs": [],
      "name": "fetchactivelistings",
      "outputs": [
        {
          "components": [
            {
              "internalType": "uint256",
              "name": "listing_id",
              "type": "uint256"
            },
            {
              "internalType": "address payable",
              "name": "seller",
              "type": "address"
            },
            {
              "internalType": "uint256",
              "name": "price",
              "type": "uint256"
            },
            {
              "internalType": "string",
              "name": "item_name",
              "type": "string"
            },
            {
              "internalType": "string",
              "name": "item_description",
              "type": "string"
            },
            {
              "internalType": "bool",
              "name": "sold_or_withdrawn",
              "type": "bool"
            },
            {
              "internalType": "bool",
              "name": "buyer_alloted",
              "type": "bool"
            },
            {
              "internalType": "address payable",
              "name": "buyer",
              "type": "address"
            }
          ],
          "internalType": "struct Market.listings[]",
          "name": "",
          "type": "tuple[]"
        }
      ],
      "payable": false,
      "stateMutability": "view",
      "type": "function"
    },
    {
      "constant": false,
      "inputs": [
        {
          "internalType": "uint256",
          "name": "listing_id",
          "type": "uint256"
        }
      ],
      "name": "requestBuy",
      "outputs": [],
      "payable": true,
      "stateMutability": "payable",
      "type": "function"
    },
    {
      "constant": false,
      "inputs": [
        {
          "internalType": "uint256",
          "name": "listing_id",
          "type": "uint256"
        },
        {
          "internalType": "string",
          "name": "H",
          "type": "string"
        }
      ],
      "name": "sellItem",
      "outputs": [],
      "payable": true,
      "stateMutability": "payable",
      "type": "function"
    },
    {
      "constant": false,
      "inputs": [
        {
          "internalType": "uint256",
          "name": "listing_id",
          "type": "uint256"
        }
      ],
      "name": "confirmDelivery",
      "outputs": [],
      "payable": true,
      "stateMutability": "payable",
      "type": "function"
    }
  ],
  "bytecode": "0x608060405260008055600060015534801561001957600080fd5b50611c0c806100296000396000f3fe6080604052600436106100555760003560e01c806314e24f6d1461005a5780631faa35381461007657806332a22bb6146100a157806384febc4b146100bd578063bc355290146100d9578063fd84cb9714610104575b600080fd5b610074600480360361006f91908101906110fb565b610120565b005b34801561008257600080fd5b5061008b610440565b604051610098919061181c565b60405180910390f35b6100bb60048036036100b6919081019061107a565b61075b565b005b6100d760048036036100d291908101906110a3565b610a5b565b005b3480156100e557600080fd5b506100ee610bfe565b6040516100fb9190611960565b60405180910390f35b61011e6004803603610119919081019061107a565b610c04565b005b60008511610163576040517f08c379a000000000000000000000000000000000000000000000000000000000815260040161015a906118de565b60405180910390fd5b60008054905060016000808282540192505081905550600180600082825401925050819055506040518061010001604052808281526020013373ffffffffffffffffffffffffffffffffffffffff16815260200187815260200186868080601f016020809104026020016040519081016040528093929190818152602001838380828437600081840152601f19601f82011690508083019250505050505050815260200184848080601f016020809104026020016040519081016040528093929190818152602001838380828437600081840152601f19601f820116905080830192505050505050508152602001600015158152602001600015158152602001600073ffffffffffffffffffffffffffffffffffffffff16815250600260008381526020019081526020016000206000820151816000015560208201518160010160006101000a81548173ffffffffffffffffffffffffffffffffffffffff021916908373ffffffffffffffffffffffffffffffffffffffff160217905550604082015181600201556060820151816003019080519060200190610308929190610f01565b506080820151816004019080519060200190610325929190610f01565b5060a08201518160050160006101000a81548160ff02191690831515021790555060c08201518160050160016101000a81548160ff02191690831515021790555060e08201518160050160026101000a81548173ffffffffffffffffffffffffffffffffffffffff021916908373ffffffffffffffffffffffffffffffffffffffff160217905550905050807f6046a0779403a9b58628db4e89f8fb48ddd1844ca3df25a728482823988b43af3388888888886040516103ea969594939291906117c5565b60405180910390a26001543373ffffffffffffffffffffffffffffffffffffffff167fe5317da7a2a5a513758a425cd8d8926ce3e58f239f2c630a790fc6b038dd3bd060405160405180910390a3505050505050565b60606000809050606060015460405190808252806020026020018201604052801561048557816020015b610472610f81565b81526020019060019003908161046a5790505b50905060008090505b60005481101561075257600015156002600083815260200190815260200160002060050160009054906101000a900460ff16151514156107455760006002600083815260200190815260200160002090508060405180610100016040529081600082015481526020016001820160009054906101000a900473ffffffffffffffffffffffffffffffffffffffff1673ffffffffffffffffffffffffffffffffffffffff1673ffffffffffffffffffffffffffffffffffffffff16815260200160028201548152602001600382018054600181600116156101000203166002900480601f0160208091040260200160405190810160405280929190818152602001828054600181600116156101000203166002900480156105ef5780601f106105c4576101008083540402835291602001916105ef565b820191906000526020600020905b8154815290600101906020018083116105d257829003601f168201915b50505050508152602001600482018054600181600116156101000203166002900480601f0160208091040260200160405190810160405280929190818152602001828054600181600116156101000203166002900480156106915780601f1061066657610100808354040283529160200191610691565b820191906000526020600020905b81548152906001019060200180831161067457829003601f168201915b505050505081526020016005820160009054906101000a900460ff161515151581526020016005820160019054906101000a900460ff161515151581526020016005820160029054906101000a900473ffffffffffffffffffffffffffffffffffffffff1673ffffffffffffffffffffffffffffffffffffffff1673ffffffffffffffffffffffffffffffffffffffff168152505083858151811061073257fe5b6020026020010181905250600184019350505b808060010191505061048e565b50809250505090565b6000548110801561076d575060008110155b6107ac576040517f08c379a00000000000000000000000000000000000000000000000000000000081526004016107a39061191e565b60405180910390fd5b6002600082815260200190815260200160002060050160009054906101000a900460ff1615610810576040517f08c379a00000000000000000000000000000000000000000000000000000000081526004016108079061183e565b60405180910390fd5b6002600082815260200190815260200160002060050160019054906101000a900460ff1615610874576040517f08c379a000000000000000000000000000000000000000000000000000000000815260040161086b9061187e565b60405180910390fd5b600260008281526020019081526020016000206002015460020234146108cf576040517f08c379a00000000000000000000000000000000000000000000000000000000081526004016108c69061185e565b60405180910390fd5b6002600082815260200190815260200160002060010160009054906101000a900473ffffffffffffffffffffffffffffffffffffffff1673ffffffffffffffffffffffffffffffffffffffff163373ffffffffffffffffffffffffffffffffffffffff161415610974576040517f08c379a000000000000000000000000000000000000000000000000000000000815260040161096b906118fe565b60405180910390fd5b336002600083815260200190815260200160002060050160026101000a81548173ffffffffffffffffffffffffffffffffffffffff021916908373ffffffffffffffffffffffffffffffffffffffff16021790555060016002600083815260200190815260200160002060050160016101000a81548160ff0219169083151502179055503373ffffffffffffffffffffffffffffffffffffffff167fc3f2ccff97bcb038225e9a4e1cd2433c6db2af7e3a3c6d2c566327a0ee263ba360026000848152602001908152602001600020604051610a50919061193e565b60405180910390a250565b60005483108015610a6d575060008310155b610aac576040517f08c379a0000000000000000000000000000000000000000000000000000000008152600401610aa39061191e565b60405180910390fd5b6002600084815260200190815260200160002060050160009054906101000a900460ff1615610b10576040517f08c379a0000000000000000000000000000000000000000000000000000000008152600401610b079061183e565b60405180910390fd5b6002600084815260200190815260200160002060010160009054906101000a900473ffffffffffffffffffffffffffffffffffffffff1673ffffffffffffffffffffffffffffffffffffffff163373ffffffffffffffffffffffffffffffffffffffff1614610bb4576040517f08c379a0000000000000000000000000000000000000000000000000000000008152600401610bab9061189e565b60405180910390fd5b8181604051610bc49291906117ac565b6040518091039020837f45bd963234a41bc8d75b2e2caf57f0987f5d405e1d4bbf09b919faeff927937c60405160405180910390a3505050565b60015481565b60005481108015610c16575060008110155b610c55576040517f08c379a0000000000000000000000000000000000000000000000000000000008152600401610c4c9061191e565b60405180910390fd5b6002600082815260200190815260200160002060050160009054906101000a900460ff1615610cb9576040517f08c379a0000000000000000000000000000000000000000000000000000000008152600401610cb09061183e565b60405180910390fd5b6002600082815260200190815260200160002060050160029054906101000a900473ffffffffffffffffffffffffffffffffffffffff1673ffffffffffffffffffffffffffffffffffffffff163373ffffffffffffffffffffffffffffffffffffffff1614610d5d576040517f08c379a0000000000000000000000000000000000000000000000000000000008152600401610d54906118be565b60405180910390fd5b60016002600083815260200190815260200160002060050160006101000a81548160ff0219169083151502179055506002600082815260200190815260200160002060010160009054906101000a900473ffffffffffffffffffffffffffffffffffffffff1673ffffffffffffffffffffffffffffffffffffffff166108fc60026000848152602001908152602001600020600201546003029081150290604051600060405180830381858888f19350505050158015610e21573d6000803e3d6000fd5b506002600082815260200190815260200160002060050160029054906101000a900473ffffffffffffffffffffffffffffffffffffffff1673ffffffffffffffffffffffffffffffffffffffff166108fc60026000848152602001908152602001600020600201549081150290604051600060405180830381858888f19350505050158015610eb4573d6000803e3d6000fd5b507f89bed0924ead259299f8162f719209f6b5f9b604a167646b1fa26d8106792cef60026000838152602001908152602001600020604051610ef6919061193e565b60405180910390a150565b828054600181600116156101000203166002900490600052602060002090601f016020900481019282601f10610f4257805160ff1916838001178555610f70565b82800160010185558215610f70579182015b82811115610f6f578251825591602001919060010190610f54565b5b509050610f7d9190610ff6565b5090565b60405180610100016040528060008152602001600073ffffffffffffffffffffffffffffffffffffffff168152602001600081526020016060815260200160608152602001600015158152602001600015158152602001600073ffffffffffffffffffffffffffffffffffffffff1681525090565b61101891905b80821115611014576000816000905550600101610ffc565b5090565b90565b60008083601f84011261102d57600080fd5b8235905067ffffffffffffffff81111561104657600080fd5b60208301915083600182028301111561105e57600080fd5b9250929050565b60008135905061107481611bb2565b92915050565b60006020828403121561108c57600080fd5b600061109a84828501611065565b91505092915050565b6000806000604084860312156110b857600080fd5b60006110c686828701611065565b935050602084013567ffffffffffffffff8111156110e357600080fd5b6110ef8682870161101b565b92509250509250925092565b60008060008060006060868803121561111357600080fd5b600061112188828901611065565b955050602086013567ffffffffffffffff81111561113e57600080fd5b61114a8882890161101b565b9450945050604086013567ffffffffffffffff81111561116957600080fd5b6111758882890161101b565b92509250509295509295909350565b600061119083836115ec565b905092915050565b6111a181611a80565b82525050565b6111b081611a38565b82525050565b60006111c1826119a0565b6111cb81856119c3565b9350836020820285016111dd8561197b565b8060005b8581101561121957848403895281516111fa8582611184565b9450611205836119b6565b925060208a019950506001810190506111e1565b50829750879550505050505092915050565b61123481611a4a565b82525050565b600061124683856119e5565b9350611253838584611ab6565b61125c83611b7a565b840190509392505050565b600061127383856119f6565b9350611280838584611ab6565b82840190509392505050565b6000611297826119ab565b6112a181856119d4565b93506112b1818560208601611ac5565b6112ba81611b7a565b840191505092915050565b6000815460018116600081146112e257600181146113085761134c565b607f60028304166112f381876119d4565b955060ff19831686526020860193505061134c565b6002820461131681876119d4565b95506113218561198b565b60005b8281101561134357815481890152600182019150602081019050611324565b80880195505050505b505092915050565b60006113616020836119e5565b91507f546865206974656d2068617320616c7265616479206265656e20626f756768746000830152602082019050919050565b60006113a16030836119e5565b91507f546865207265717569726564206465706f73697420666f72207468652070757260008301527f6368617365206e6f7420676976656e20000000000000000000000000000000006020830152604082019050919050565b60006114076034836119e5565b91507f746865206974656d20616c72656164792068617320612062757965722c696e2060008301527f6d69647374206f66207472616e73616374696f6e0000000000000000000000006020830152604082019050919050565b600061146d602c836119e5565b91507f54686973206973206e6f7420796f7572206c697374696e6720796f752063616e60008301527f742073656c6c20746869732000000000000000000000000000000000000000006020830152604082019050919050565b60006114d36024836119e5565b91507f596f7520617265206e6f742074686520627579657220666f722074686973206960008301527f74656d20000000000000000000000000000000000000000000000000000000006020830152604082019050919050565b60006115396015836119e5565b91507f50726963652063616e6e6f7420626520302077656900000000000000000000006000830152602082019050919050565b6000611579601c836119e5565b91507f596f752063616e742062757920796f7572206f776e206974656d7320000000006000830152602082019050919050565b60006115b96015836119e5565b91507f4c697374696e6720696420697320696e76616c696400000000000000000000006000830152602082019050919050565b600061010083016000830151611605600086018261178e565b50602083015161161860208601826111a7565b50604083015161162b604086018261178e565b5060608301518482036060860152611643828261128c565b9150506080830151848203608086015261165d828261128c565b91505060a083015161167260a086018261122b565b5060c083015161168560c086018261122b565b5060e083015161169860e08601826111a7565b508091505092915050565b6000610100830160008084015490506116bb81611b2c565b6116c8600087018261178e565b50600184015490506116d981611af8565b6116e660208701826111a7565b50600284015490506116f781611b2c565b611704604087018261178e565b5060038401858303606087015261171b83826112c5565b92505060048401858303608087015261173483826112c5565b9250506005840154905061174781611b12565b61175460a087018261122b565b5061175e81611b46565b61176b60c087018261122b565b5061177581611b60565b61178260e08701826111a7565b50819250505092915050565b61179781611a76565b82525050565b6117a681611a76565b82525050565b60006117b9828486611267565b91508190509392505050565b60006080820190506117da6000830189611198565b6117e7602083018861179d565b81810360408301526117fa81868861123a565b9050818103606083015261180f81848661123a565b9050979650505050505050565b6000602082019050818103600083015261183681846111b6565b905092915050565b6000602082019050818103600083015261185781611354565b9050919050565b6000602082019050818103600083015261187781611394565b9050919050565b60006020820190508181036000830152611897816113fa565b9050919050565b600060208201905081810360008301526118b781611460565b9050919050565b600060208201905081810360008301526118d7816114c6565b9050919050565b600060208201905081810360008301526118f78161152c565b9050919050565b600060208201905081810360008301526119178161156c565b9050919050565b60006020820190508181036000830152611937816115ac565b9050919050565b6000602082019050818103600083015261195881846116a3565b905092915050565b6000602082019050611975600083018461179d565b92915050565b6000819050602082019050919050565b60008190508160005260206000209050919050565b600081519050919050565b600081519050919050565b6000602082019050919050565b600082825260208201905092915050565b600082825260208201905092915050565b600082825260208201905092915050565b600081905092915050565b600073ffffffffffffffffffffffffffffffffffffffff82169050919050565b600060ff82169050919050565b6000819050919050565b6000611a4382611a56565b9050919050565b60008115159050919050565b600073ffffffffffffffffffffffffffffffffffffffff82169050919050565b6000819050919050565b6000611a8b82611a92565b9050919050565b6000611a9d82611aa4565b9050919050565b6000611aaf82611a56565b9050919050565b82818337600083830152505050565b60005b83811015611ae3578082015181840152602081019050611ac8565b83811115611af2576000848401525b50505050565b6000611b0b611b0683611b8b565b611a01565b9050919050565b6000611b25611b2083611b8b565b611a21565b9050919050565b6000611b3f611b3a83611b8b565b611a2e565b9050919050565b6000611b59611b5483611ba5565b611a21565b9050919050565b6000611b73611b6e83611b98565b611a01565b9050919050565b6000601f19601f8301169050919050565b60008160001c9050919050565b60008160101c9050919050565b60008160081c9050919050565b611bbb81611a76565b8114611bc657600080fd5b5056fea365627a7a723158202d9f11837f8d4d8df5f144ae55d570469f47ccc10342c794f0c1a527792aefa36c6578706572696d656e74616cf564736f6c63430005100040",
  "source": "// SPDX-License-Identifier: MIT\npragma solidity >=0.4.22 <0.9.0;\npragma experimental ABIEncoderV2;\n\ncontract Market {\n    uint256 current_listing_id = 0;\n    uint256 public activelistings = 0;\n\n    // structure for each listings\n    /// @dev uint is the unique listing id\n    /// @dev seller stores the seller address\n    /// @dev price is the price of the item\n    /// @dev item_name is the name of the item\n    /// @dev item_description has the description of the item\n    /// @dev sold indicates whether the item is already sold or not\n\n    struct listings {\n        uint256 listing_id;\n        address payable seller;\n        uint256 price;\n        string item_name;\n        string item_description;\n        bool sold_or_withdrawn;\n        bool buyer_alloted;\n        address payable buyer;\n        //address owner\n    }\n\n    // structure for each sale\n    /// @dev uint is the unique listing id of the item\n    /// @dev seller stores the seller address\n    /// @dev buyer stores the buyer address\n    /// @dev secret_key is the unique string authorising the sale\n\n    // struct sales {\n    //     uint256 listing_id;\n    //     address payable seller;\n    //     address payable buyer;\n    //     string secret_key;\n    // }\n\n    /// @dev this event is emitted when a listing is created\n    event ListingCreated(\n        uint256 indexed listing_id,\n        address seller,\n        uint256 price,\n        string item_name,\n        string item_description\n    );\n    /// @dev this event is for when listing is modified ,item sold or withdrawn\n    event ListingChanged(address indexed seller, uint256 indexed index);\n    /// @dev this event is for when item purchase is requested by buyer\n    event PurchaseRequested(listings list, address indexed buyer);\n    /// @dev this event is for when seller confirms item purchase by buyer\n    /// @dev the hash of the item string is added the block chain from where the buyer can retrieve and decrypt\n    event encryptedKey(uint256 indexed listing_id, string indexed H);\n    /// event emitted when the a item is bought and both the seller and buyer gets the money/item\n    event PurchaseComplete(listings list);\n\n    /// @dev this event is emitted when a sale is initiated\n    // event SaleCreated(\n    //     uint256 indexed listing_id,\n    //     address indexed seller,\n    //     address indexed buyer\n    // );\n\n    // create a listing for all possible listing id and make it private\n    mapping(uint256 => listings) private Listings;\n\n    // create a listing for all possible listing id and make it private\n    // mapping(uint256 => sales) private Sales;\n\n    // function randomKeyGenerator() pure returns (string) {\n    //     return string(keccak256(abi.encodePacked(now)));\n    // }\n\n    //create a listing for sale in the market place\n    function createListings(\n        uint256 price,\n        string calldata item_name,\n        string calldata item_description\n    ) external payable {\n        require(price > 0, \"Price cannot be 0 wei\");\n\n        uint256 listing_id = current_listing_id;\n        current_listing_id += 1;\n        activelistings += 1;\n\n        Listings[listing_id] = listings(\n            listing_id,\n            msg.sender,\n            price,\n            item_name,\n            item_description,\n            false, \n            false,\n            address(0)\n        );\n        // emit the update\n        emit ListingCreated(\n            listing_id,\n            msg.sender,\n            price,\n            item_name,\n            item_description\n        );\n        emit ListingChanged(msg.sender, activelistings);\n    }\n\n    /* Returns all unsold/unwithdrawn market items */\n    ///@dev returns a list of active listings\n    function fetchactivelistings() external view returns (listings[] memory) {\n        uint256 currentIndex = 0;\n\n        listings[] memory active_list = new listings[](activelistings);\n        for (uint256 i = 0; i < current_listing_id; i++) {\n            // only consider listings which are unsold/not withdrawn\n            if (Listings[i].sold_or_withdrawn == false) {\n                listings storage currentlisting = Listings[i];\n                active_list[currentIndex] = currentlisting;\n                currentIndex += 1;\n            }\n        }\n        return active_list;\n    }\n\n    //request from buyer to seller for item's purchase\n    // the contract emits a event to let the seller know that an buyer has been found\n    /// @dev listing id is the id of the item buyer is interested in\n    function requestBuy(uint256 listing_id) external payable {\n        require(\n            listing_id < current_listing_id && listing_id >= 0,\n            \"Listing id is invalid\"\n        ); // Check for valid listing id\n        require(\n            !Listings[listing_id].sold_or_withdrawn,\n            \"The item has already been bought\"\n        ); // Check if the item is still available\n        require(\n          !Listings[listing_id].buyer_alloted,\n          \"the item already has a buyer,in midst of transaction\"\n        ); // Check whether item has a buyer already\n        require(\n          msg.value == 2*Listings[listing_id].price,\n          \"The required deposit for the purchase not given \"\n        );// check whether you have provided 2 times the selling price,for security purposes\n        require(\n          msg.sender != Listings[listing_id].seller,\n          \"You cant buy your own items \"\n        );\n        //Check that the seller is not the buyer\n\n        // let the seller know you have found a buyer\n        Listings[listing_id].buyer = msg.sender;\n        Listings[listing_id].buyer_alloted = true;\n        emit PurchaseRequested(Listings[listing_id], msg.sender);\n    }\n\n    //Sale of item from seller's side\n    // transaction from the seller \n    /// @dev listing id is the id of the item being sold_\n    /// @dev H is the hashed key for the item string (Hashed using the public key of the buyer off-chain)\n    function sellItem(uint256 listing_id,string calldata  H) external payable {\n        require(\n            listing_id < current_listing_id && listing_id >= 0,\n            \"Listing id is invalid\"\n        ); // Check for valid listing id\n        require(\n            !Listings[listing_id].sold_or_withdrawn,\n            \"The item has already been bought\"\n        ); // Check if the item is still available\n        require(\n          msg.sender == Listings[listing_id].seller,\n          \"This is not your listing you cant sell this \"\n        );\n        // check whether the caller is the seller\n        //Listings[listing_id].sold_or_withdrawn = true;\n\n        emit encryptedKey(listing_id, H);\n    }\n\n    //Confirmation from buyer on receiving item\n    // the buyer confirms to get the refund of the money owed.(price)\n    // the seller gets his amount + price (3 * price)\n    /// @dev the listing id is the item being exchanged\n    function confirmDelivery(uint256 listing_id) external payable {\n    require(\n            listing_id < current_listing_id && listing_id >= 0,\n            \"Listing id is invalid\"\n        ); // Check for valid listing id\n        require(\n            !Listings[listing_id].sold_or_withdrawn,\n            \"The item has already been bought\"\n        ); // Check if the item is still available\n        require(\n          msg.sender == Listings[listing_id].buyer,\n          \"You are not the buyer for this item \"\n        );\n        // check whether buyer is the messenger\n        //refund the seller\n        Listings[listing_id].sold_or_withdrawn = true;\n        Listings[listing_id].seller.transfer(3*Listings[listing_id].price);\n        // refund the buyer\n        Listings[listing_id].buyer.transfer(Listings[listing_id].price);\n        emit PurchaseComplete(Listings[listing_id]);\n\n\n    }\n}\n",
  "sourcePath": "/home/tathagato/Block-Chain-Collab/Assignments/1/contracts/Market.sol",
  "compiler": {
    "name": "solc",
    "version": "0.5.16+commit.9c3226ce.Emscripten.clang"
  },
  "schemaVersion": "3.4.3",
  "updatedAt": "2021-09-19T21:10:10.504Z",
  "networkType": "ethereum",
  "devdoc": {
    "methods": {
      "confirmDelivery(uint256)": {
        "details": "the listing id is the item being exchanged"
      },
      "fetchactivelistings()": {
        "details": "returns a list of active listings"
      },
      "requestBuy(uint256)": {
        "details": "listing id is the id of the item buyer is interested in"
      },
      "sellItem(uint256,string)": {
        "details": "listing id is the id of the item being sold_H is the hashed key for the item string (Hashed using the public key of the buyer off-chain)"
      }
    }
  },
  "userdoc": {
    "methods": {}
  }
}