{
  "contractName": "LandRegistry",
  "abi": [
    {
      "anonymous": false,
      "inputs": [
        {
          "indexed": false,
          "internalType": "uint256",
          "name": "transaction_id",
          "type": "uint256"
        },
        {
          "indexed": false,
          "internalType": "uint256",
          "name": "buyer_id",
          "type": "uint256"
        }
      ],
      "name": "BuyPropertyRequest",
      "type": "event"
    },
    {
      "anonymous": false,
      "inputs": [
        {
          "indexed": false,
          "internalType": "uint256",
          "name": "citizen_id",
          "type": "uint256"
        },
        {
          "indexed": false,
          "internalType": "uint256",
          "name": "validator_id",
          "type": "uint256"
        }
      ],
      "name": "CitizenValidated",
      "type": "event"
    },
    {
      "anonymous": false,
      "inputs": [
        {
          "indexed": false,
          "internalType": "uint256",
          "name": "citizen_id",
          "type": "uint256"
        }
      ],
      "name": "CitizenValidationRequested",
      "type": "event"
    },
    {
      "anonymous": false,
      "inputs": [
        {
          "indexed": false,
          "internalType": "uint256",
          "name": "property_id",
          "type": "uint256"
        },
        {
          "indexed": false,
          "internalType": "uint256",
          "name": "previous_owner_id",
          "type": "uint256"
        },
        {
          "indexed": false,
          "internalType": "uint256",
          "name": "new_owner_id",
          "type": "uint256"
        }
      ],
      "name": "OwnershipChanged",
      "type": "event"
    },
    {
      "anonymous": false,
      "inputs": [
        {
          "indexed": false,
          "internalType": "uint256",
          "name": "transaction_id",
          "type": "uint256"
        },
        {
          "indexed": false,
          "internalType": "uint256",
          "name": "owner_id",
          "type": "uint256"
        }
      ],
      "name": "RegisterPropertyRequest",
      "type": "event"
    },
    {
      "anonymous": false,
      "inputs": [
        {
          "indexed": false,
          "internalType": "uint256",
          "name": "transaction_id",
          "type": "uint256"
        },
        {
          "indexed": false,
          "internalType": "uint256",
          "name": "seller_id",
          "type": "uint256"
        }
      ],
      "name": "SellPropertyRequest",
      "type": "event"
    },
    {
      "anonymous": false,
      "inputs": [
        {
          "indexed": false,
          "internalType": "uint256",
          "name": "transaction_id",
          "type": "uint256"
        }
      ],
      "name": "TransactionConfirmed",
      "type": "event"
    },
    {
      "anonymous": false,
      "inputs": [
        {
          "indexed": false,
          "internalType": "uint256",
          "name": "transaction_id",
          "type": "uint256"
        },
        {
          "indexed": false,
          "internalType": "uint256",
          "name": "validator_id",
          "type": "uint256"
        }
      ],
      "name": "TransactionEndorsed",
      "type": "event"
    },
    {
      "anonymous": false,
      "inputs": [
        {
          "indexed": false,
          "internalType": "uint256",
          "name": "validator_id",
          "type": "uint256"
        }
      ],
      "name": "ValidatorApproved",
      "type": "event"
    },
    {
      "anonymous": false,
      "inputs": [
        {
          "indexed": false,
          "internalType": "uint256",
          "name": "validator_id",
          "type": "uint256"
        }
      ],
      "name": "ValidatorValidationRequest",
      "type": "event"
    },
    {
      "constant": false,
      "inputs": [],
      "name": "start",
      "outputs": [],
      "payable": false,
      "stateMutability": "nonpayable",
      "type": "function"
    },
    {
      "constant": false,
      "inputs": [
        {
          "internalType": "string",
          "name": "name",
          "type": "string"
        },
        {
          "internalType": "string",
          "name": "proof",
          "type": "string"
        }
      ],
      "name": "registerValidator",
      "outputs": [],
      "payable": false,
      "stateMutability": "nonpayable",
      "type": "function"
    },
    {
      "constant": false,
      "inputs": [
        {
          "internalType": "string",
          "name": "name",
          "type": "string"
        },
        {
          "internalType": "string",
          "name": "identity_proof",
          "type": "string"
        }
      ],
      "name": "registerCitizen",
      "outputs": [],
      "payable": false,
      "stateMutability": "nonpayable",
      "type": "function"
    },
    {
      "constant": false,
      "inputs": [
        {
          "internalType": "uint256",
          "name": "validator_id",
          "type": "uint256"
        }
      ],
      "name": "approveValidator",
      "outputs": [],
      "payable": false,
      "stateMutability": "nonpayable",
      "type": "function"
    },
    {
      "constant": false,
      "inputs": [
        {
          "internalType": "uint256",
          "name": "citizen_id",
          "type": "uint256"
        }
      ],
      "name": "endorseCitizen",
      "outputs": [],
      "payable": false,
      "stateMutability": "nonpayable",
      "type": "function"
    },
    {
      "constant": false,
      "inputs": [
        {
          "internalType": "string",
          "name": "property_address",
          "type": "string"
        },
        {
          "internalType": "string",
          "name": "proof",
          "type": "string"
        }
      ],
      "name": "registerProperty",
      "outputs": [],
      "payable": true,
      "stateMutability": "payable",
      "type": "function"
    },
    {
      "constant": false,
      "inputs": [
        {
          "internalType": "uint256",
          "name": "property_id",
          "type": "uint256"
        },
        {
          "internalType": "uint256",
          "name": "buyer_id",
          "type": "uint256"
        },
        {
          "internalType": "string",
          "name": "proof",
          "type": "string"
        },
        {
          "internalType": "uint256",
          "name": "transaction_price",
          "type": "uint256"
        }
      ],
      "name": "SellProperty",
      "outputs": [],
      "payable": true,
      "stateMutability": "payable",
      "type": "function"
    },
    {
      "constant": false,
      "inputs": [
        {
          "internalType": "uint256",
          "name": "transaction_id",
          "type": "uint256"
        }
      ],
      "name": "ConfirmBuy",
      "outputs": [],
      "payable": false,
      "stateMutability": "nonpayable",
      "type": "function"
    },
    {
      "constant": false,
      "inputs": [
        {
          "internalType": "uint256",
          "name": "transaction_id",
          "type": "uint256"
        }
      ],
      "name": "endorseTransaction",
      "outputs": [],
      "payable": false,
      "stateMutability": "nonpayable",
      "type": "function"
    },
    {
      "constant": true,
      "inputs": [
        {
          "internalType": "uint256",
          "name": "property_id",
          "type": "uint256"
        }
      ],
      "name": "showPastOwnership",
      "outputs": [
        {
          "components": [
            {
              "internalType": "uint256",
              "name": "ownership_id",
              "type": "uint256"
            },
            {
              "internalType": "uint256",
              "name": "property_id",
              "type": "uint256"
            },
            {
              "internalType": "uint256",
              "name": "buying_cost",
              "type": "uint256"
            },
            {
              "internalType": "uint256",
              "name": "from",
              "type": "uint256"
            },
            {
              "internalType": "uint256",
              "name": "to",
              "type": "uint256"
            },
            {
              "internalType": "string",
              "name": "owner_name",
              "type": "string"
            },
            {
              "internalType": "uint256",
              "name": "owner_id",
              "type": "uint256"
            },
            {
              "internalType": "string",
              "name": "status",
              "type": "string"
            },
            {
              "internalType": "string",
              "name": "proof",
              "type": "string"
            }
          ],
          "internalType": "struct LandRegistry.ownership[]",
          "name": "",
          "type": "tuple[]"
        }
      ],
      "payable": false,
      "stateMutability": "view",
      "type": "function"
    }
  ],
  "bytecode": "0x608060405260016000556001805560016002556001600355600160045560196005556000600660006101000a81548173ffffffffffffffffffffffffffffffffffffffff021916908373ffffffffffffffffffffffffffffffffffffffff160217905550600260075534801561007457600080fd5b506133a2806100846000396000f3fe6080604052600436106100915760003560e01c80636e183d26116100595780636e183d261461016a578063b9d469fa14610193578063be9a6555146101bc578063c02a3f3a146101d3578063c0fa6573146101ef57610091565b8063045c24b9146100965780631b0f8ea8146100bf5780632177d71b146100db5780633d81380d14610118578063685353cc14610141575b600080fd5b3480156100a257600080fd5b506100bd60048036036100b891908101906127d3565b610218565b005b6100d960048036036100d4919081019061275e565b6103b5565b005b3480156100e757600080fd5b5061010260048036036100fd91908101906127d3565b610808565b60405161010f9190612ff7565b60405180910390f35b34801561012457600080fd5b5061013f600480360361013a919081019061275e565b610b0f565b005b34801561014d57600080fd5b50610168600480360361016391908101906127d3565b610dcb565b005b34801561017657600080fd5b50610191600480360361018c91908101906127d3565b6110c2565b005b34801561019f57600080fd5b506101ba60048036036101b591908101906127d3565b6112a5565b005b3480156101c857600080fd5b506101d1611e8f565b005b6101ed60048036036101e891908101906127fc565b611ed2565b005b3480156101fb57600080fd5b506102166004803603610211919081019061275e565b612296565b005b600660009054906101000a900473ffffffffffffffffffffffffffffffffffffffff1673ffffffffffffffffffffffffffffffffffffffff163373ffffffffffffffffffffffffffffffffffffffff16146102a8576040517f08c379a000000000000000000000000000000000000000000000000000000000815260040161029f90613179565b60405180910390fd5b8060025481106102ed576040517f08c379a00000000000000000000000000000000000000000000000000000000081526004016102e490613099565b60405180910390fd5b816003600d60008381526020019081526020016000205414610344576040517f08c379a000000000000000000000000000000000000000000000000000000000815260040161033b90613139565b60405180910390fd5b6001600a6000858152602001908152602001600020600301819055506004600d6000858152602001908152602001600020819055507f3a45f0697c2ad042d28b6679f70d695b90d55438dfbf3f43a44bba9dcf061c19836040516103a89190613219565b60405180910390a1505050565b6002600d6000600c60003373ffffffffffffffffffffffffffffffffffffffff1673ffffffffffffffffffffffffffffffffffffffff168152602001908152602001600020548152602001908152602001600020541461044a576040517f08c379a000000000000000000000000000000000000000000000000000000000815260040161044190613039565b60405180910390fd5b60055434101561048f576040517f08c379a000000000000000000000000000000000000000000000000000000000815260040161048690613199565b60405180910390fd5b6040518060c00160405280600054815260200185858080601f016020809104026020016040519081016040528093929190818152602001838380828437600081840152601f19601f820116905080830192505050505050508152602001600081526020016000815260200183838080601f016020809104026020016040519081016040528093929190818152602001838380828437600081840152601f19601f8201169050808301925050505050505081526020016001815250600860008054815260200190815260200160002060008201518160000155602082015181600101908051906020019061058392919061258e565b50604082015181600201556060820151816003015560808201518160040190805190602001906105b492919061258e565b5060a0820151816005015590505060405180610160016040528060008152602001600054815260200160008152602001600c60003373ffffffffffffffffffffffffffffffffffffffff1673ffffffffffffffffffffffffffffffffffffffff16815260200190815260200160002054815260200160045481526020016000815260200134815260200183838080601f016020809104026020016040519081016040528093929190818152602001838380828437600081840152601f19601f8201169050808301925050505050505081526020016000815260200160011515815260200160001515815250600b60006004548152602001908152602001600020600082015181600001556020820151816001015560408201518160020155606082015181600301556080820151816004015560a0820151816005015560c0820151816006015560e082015181600701908051906020019061071692919061258e565b5061010082015181600801556101208201518160090160006101000a81548160ff0219169083151502179055506101408201518160090160016101000a81548160ff0219169083151502179055509050507fb9c36de751f2bb6debfd859901414e1af986005884780e3d3b60b696cd7147bf600454600c60003373ffffffffffffffffffffffffffffffffffffffff1673ffffffffffffffffffffffffffffffffffffffff168152602001908152602001600020546040516107d9929190613234565b60405180910390a160016000808282540192505081905550600160046000828254019250508190555050505050565b6060600080905060006001600860008681526020019081526020016000206005015403905060608160405190808252806020026020018201604052801561086957816020015b61085661260e565b81526020019060019003908161084e5790505b5090506000600190505b60018301811015610b03576000600860008881526020019081526020016000206006016000838152602001908152602001600020905080604051806101200160405290816000820154815260200160018201548152602001600282015481526020016003820154815260200160048201548152602001600582018054600181600116156101000203166002900480601f0160208091040260200160405190810160405280929190818152602001828054600181600116156101000203166002900480156109815780601f1061095657610100808354040283529160200191610981565b820191906000526020600020905b81548152906001019060200180831161096457829003601f168201915b5050505050815260200160068201548152602001600782018054600181600116156101000203166002900480601f016020809104026020016040519081016040528092919081815260200182805460018160011615610100020316600290048015610a2d5780601f10610a0257610100808354040283529160200191610a2d565b820191906000526020600020905b815481529060010190602001808311610a1057829003601f168201915b50505050508152602001600882018054600181600116156101000203166002900480601f016020809104026020016040519081016040528092919081815260200182805460018160011615610100020316600290048015610acf5780601f10610aa457610100808354040283529160200191610acf565b820191906000526020600020905b815481529060010190602001808311610ab257829003601f168201915b505050505081525050838681518110610ae457fe5b6020026020010181905250600185019450508080600101915050610873565b50809350505050919050565b6000600d6000600c60003373ffffffffffffffffffffffffffffffffffffffff1673ffffffffffffffffffffffffffffffffffffffff168152602001908152602001600020548152602001908152602001600020541415610ba5576040517f08c379a0000000000000000000000000000000000000000000000000000000008152600401610b9c90613159565b60405180910390fd5b6040518060a0016040528060025481526020013373ffffffffffffffffffffffffffffffffffffffff16815260200185858080601f016020809104026020016040519081016040528093929190818152602001838380828437600081840152601f19601f8201169050808301925050505050505081526020016000815260200183838080601f016020809104026020016040519081016040528093929190818152602001838380828437600081840152601f19601f82011690508083019250505050505050815250600a600060025481526020019081526020016000206000820151816000015560208201518160010160006101000a81548173ffffffffffffffffffffffffffffffffffffffff021916908373ffffffffffffffffffffffffffffffffffffffff1602179055506040820151816002019080519060200190610cef92919061258e565b50606082015181600301556080820151816004019080519060200190610d1692919061258e565b509050507f30343cc1cbfad924b65f919dc7a93ffe9d779c4b0d346cb3fb6d8cb314842641600254604051610d4b9190613219565b60405180910390a16003600d6000600254815260200190815260200160002081905550600254600c60003373ffffffffffffffffffffffffffffffffffffffff1673ffffffffffffffffffffffffffffffffffffffff16815260200190815260200160002081905550600160026000828254019250508190555050505050565b806004548110610e10576040517f08c379a0000000000000000000000000000000000000000000000000000000008152600401610e0790613019565b60405180910390fd5b8160001515600b600083815260200190815260200160002060090160019054906101000a900460ff16151514610e7b576040517f08c379a0000000000000000000000000000000000000000000000000000000008152600401610e7290613059565b60405180910390fd5b8260011515600b600083815260200190815260200160002060090160009054906101000a900460ff1615151415610ee7576040517f08c379a0000000000000000000000000000000000000000000000000000000008152600401610ede906130f9565b60405180910390fd5b6002600d6000600c60003373ffffffffffffffffffffffffffffffffffffffff1673ffffffffffffffffffffffffffffffffffffffff1681526020019081526020016000205481526020019081526020016000205414610f7c576040517f08c379a0000000000000000000000000000000000000000000000000000000008152600401610f7390613039565b60405180910390fd5b83600b600082815260200190815260200160002060030154600c60003373ffffffffffffffffffffffffffffffffffffffff1673ffffffffffffffffffffffffffffffffffffffff1681526020019081526020016000205414611014576040517f08c379a000000000000000000000000000000000000000000000000000000000815260040161100b90613079565b60405180910390fd5b6001600b600087815260200190815260200160002060090160006101000a81548160ff0219169083151502179055507f51cb7a18ff7e2dbeac898b3567add71443bd352ca9b78d55a86011bfb92b92b785600c60003373ffffffffffffffffffffffffffffffffffffffff1673ffffffffffffffffffffffffffffffffffffffff168152602001908152602001600020546040516110b3929190613234565b60405180910390a15050505050565b6004600d6000600c60003373ffffffffffffffffffffffffffffffffffffffff1673ffffffffffffffffffffffffffffffffffffffff1681526020019081526020016000205481526020019081526020016000205414611157576040517f08c379a000000000000000000000000000000000000000000000000000000000815260040161114e906131b9565b60405180910390fd5b80600154811061119c576040517f08c379a000000000000000000000000000000000000000000000000000000000815260040161119390613099565b60405180910390fd5b816001600d600083815260200190815260200160002054146111f3576040517f08c379a00000000000000000000000000000000000000000000000000000000081526004016111ea906131f9565b60405180910390fd5b600160096000858152602001908152602001600020600401819055506002600d6000858152602001908152602001600020819055507fcb83f19ca8087028640142b134d1823b25cad3032e6c2d4f52a1a2310c62153283600c60003373ffffffffffffffffffffffffffffffffffffffff1673ffffffffffffffffffffffffffffffffffffffff16815260200190815260200160002054604051611298929190613234565b60405180910390a1505050565b6004600d6000600c60003373ffffffffffffffffffffffffffffffffffffffff1673ffffffffffffffffffffffffffffffffffffffff168152602001908152602001600020548152602001908152602001600020541461133a576040517f08c379a0000000000000000000000000000000000000000000000000000000008152600401611331906131b9565b60405180910390fd5b8060001515600b600083815260200190815260200160002060090160019054906101000a900460ff161515146113a5576040517f08c379a000000000000000000000000000000000000000000000000000000000815260040161139c90613059565b60405180910390fd5b8160045481106113ea576040517f08c379a00000000000000000000000000000000000000000000000000000000081526004016113e190613019565b60405180910390fd5b8260011515600b600083815260200190815260200160002060090160009054906101000a900460ff16151514611455576040517f08c379a000000000000000000000000000000000000000000000000000000000815260040161144c906131d9565b60405180910390fd5b6001600b6000868152602001908152602001600020600801600082825401925050819055506001600b6000868152602001908152602001600020600a016000600c60003373ffffffffffffffffffffffffffffffffffffffff1673ffffffffffffffffffffffffffffffffffffffff16815260200190815260200160002054815260200190815260200160002060006101000a81548160ff0219169083151502179055506001600a6000600c60003373ffffffffffffffffffffffffffffffffffffffff1673ffffffffffffffffffffffffffffffffffffffff168152602001908152602001600020548152602001908152602001600020600501600086815260200190815260200160002060006101000a81548160ff021916908315150217905550600754600b60008681526020019081526020016000206008015410611e11576000600b6000868152602001908152602001600020600001541415611934576000600b6000868152602001908152602001600020600101549050600b600086815260200190815260200160002060030154600860008381526020019081526020016000206003018190555060016008600083815260200190815260200160002060020181905550600060086000838152602001908152602001600020600501549050600160086000848152602001908152602001600020600501600082825401925050819055506040518061012001604052808281526020018381526020016000815260200160008152602001600b600089815260200190815260200160002060030154815260200160096000600b60008b81526020019081526020016000206003015481526020019081526020016000206002018054600181600116156101000203166002900480601f0160208091040260200160405190810160405280929190818152602001828054600181600116156101000203166002900480156117605780601f1061173557610100808354040283529160200191611760565b820191906000526020600020905b81548152906001019060200180831161174357829003601f168201915b50505050508152602001600b60008981526020019081526020016000206003015481526020016040518060400160405280600681526020017f4f574e494e4700000000000000000000000000000000000000000000000000008152508152602001600b60008981526020019081526020016000206007018054600181600116156101000203166002900480601f01602080910402602001604051908101604052809291908181526020018280546001816001161561010002031660029004801561186b5780601f106118405761010080835404028352916020019161186b565b820191906000526020600020905b81548152906001019060200180831161184e57829003601f168201915b5050505050815250600860008481526020019081526020016000206006016000838152602001908152602001600020600082015181600001556020820151816001015560408201518160020155606082015181600301556080820151816004015560a08201518160050190805190602001906118e892919061258e565b5060c0820151816006015560e082015181600701908051906020019061190f92919061258e565b5061010082015181600801908051906020019061192d92919061258e565b5090505050505b6001600b6000868152602001908152602001600020600001541415611dd9576000600b6000868152602001908152602001600020600101549050600b6000868152602001908152602001600020600301546008600083815260200190815260200160002060030181905550600160086000838152602001908152602001600020600201819055506000600860008381526020019081526020016000206005015490506040518060400160405280600481526020017f534f4c44000000000000000000000000000000000000000000000000000000008152506008600084815260200190815260200160002060060160006001840381526020019081526020016000206007019080519060200190611a4c92919061265a565b5060016008600084815260200190815260200160002060050160008282540192505081905550604051806101200160405280828152602001838152602001600b6000898152602001908152602001600020600501548152602001600b6000898152602001908152602001600020600201548152602001600b600089815260200190815260200160002060030154815260200160096000600b60008b81526020019081526020016000206003015481526020019081526020016000206002018054600181600116156101000203166002900480601f016020809104026020016040519081016040528092919081815260200182805460018160011615610100020316600290048015611b9e5780601f10611b7357610100808354040283529160200191611b9e565b820191906000526020600020905b815481529060010190602001808311611b8157829003601f168201915b50505050508152602001600b60008981526020019081526020016000206003015481526020016040518060400160405280600681526020017f4f574e494e4700000000000000000000000000000000000000000000000000008152508152602001600b60008981526020019081526020016000206007018054600181600116156101000203166002900480601f016020809104026020016040519081016040528092919081815260200182805460018160011615610100020316600290048015611ca95780601f10611c7e57610100808354040283529160200191611ca9565b820191906000526020600020905b815481529060010190602001808311611c8c57829003601f168201915b5050505050815250600860008481526020019081526020016000206006016000838152602001908152602001600020600082015181600001556020820151816001015560408201518160020155606082015181600301556080820151816004015560a0820151816005019080519060200190611d2692919061258e565b5060c0820151816006015560e0820151816007019080519060200190611d4d92919061258e565b50610100820151816008019080519060200190611d6b92919061258e565b509050507fd38b1585e60a769d6b95e2a1aff6f82d3eeae413c372c97cdbfca2a5b242979282600b600089815260200190815260200160002060020154600b60008a815260200190815260200160002060030154604051611dce9392919061325d565b60405180910390a150505b7fef524c298d730e7d5714dbe2fce9d4eca7de755a12628704719170afda39678b84604051611e089190613219565b60405180910390a15b7f52aabfdb29ec15987670b211d91aada3455ded0ad8ef7bd3671878f95cafdb8684600c60003373ffffffffffffffffffffffffffffffffffffffff1673ffffffffffffffffffffffffffffffffffffffff16815260200190815260200160002054604051611e81929190613234565b60405180910390a150505050565b33600660006101000a81548173ffffffffffffffffffffffffffffffffffffffff021916908373ffffffffffffffffffffffffffffffffffffffff160217905550565b846001600860008381526020019081526020016000206002015414611f2c576040517f08c379a0000000000000000000000000000000000000000000000000000000008152600401611f23906130b9565b60405180910390fd5b85600c60003373ffffffffffffffffffffffffffffffffffffffff1673ffffffffffffffffffffffffffffffffffffffff16815260200190815260200160002054600860008381526020019081526020016000206003015414611fc4576040517f08c379a0000000000000000000000000000000000000000000000000000000008152600401611fbb906130d9565b60405180910390fd5b856002600d6000838152602001908152602001600020541461201b576040517f08c379a000000000000000000000000000000000000000000000000000000000815260040161201290613119565b60405180910390fd5b600554341015612060576040517f08c379a000000000000000000000000000000000000000000000000000000000815260040161205790613199565b60405180910390fd5b60405180610160016040528060018152602001898152602001600c60003373ffffffffffffffffffffffffffffffffffffffff1673ffffffffffffffffffffffffffffffffffffffff168152602001908152602001600020548152602001888152602001600454815260200185815260200134815260200187878080601f016020809104026020016040519081016040528093929190818152602001838380828437600081840152601f19601f8201169050808301925050505050505081526020016000815260200160001515815260200160001515815250600b60006004548152602001908152602001600020600082015181600001556020820151816001015560408201518160020155606082015181600301556080820151816004015560a0820151816005015560c0820151816006015560e08201518160070190805190602001906121b092919061258e565b5061010082015181600801556101208201518160090160006101000a81548160ff0219169083151502179055506101408201518160090160016101000a81548160ff0219169083151502179055509050507ff8a78184d923e6278a602951430ae544b9df75db26ab03994a57704299f75889600454600c60003373ffffffffffffffffffffffffffffffffffffffff1673ffffffffffffffffffffffffffffffffffffffff16815260200190815260200160002054604051612273929190613234565b60405180910390a160016004600082825401925050819055505050505050505050565b6000600d6000600c60003373ffffffffffffffffffffffffffffffffffffffff1673ffffffffffffffffffffffffffffffffffffffff16815260200190815260200160002054815260200190815260200160002054141561232c576040517f08c379a000000000000000000000000000000000000000000000000000000000815260040161232390613159565b60405180910390fd5b6040518060a0016040528060015481526020013373ffffffffffffffffffffffffffffffffffffffff16815260200185858080601f016020809104026020016040519081016040528093929190818152602001838380828437600081840152601f19601f82011690508083019250505050505050815260200183838080601f016020809104026020016040519081016040528093929190818152602001838380828437600081840152601f19601f82011690508083019250505050505050815260200160008152506009600060015481526020019081526020016000206000820151816000015560208201518160010160006101000a81548173ffffffffffffffffffffffffffffffffffffffff021916908373ffffffffffffffffffffffffffffffffffffffff160217905550604082015181600201908051906020019061247692919061258e565b50606082015181600301908051906020019061249392919061258e565b50608082015181600401559050507f62bc4f144ba0f5342c0821a39176e22e4ea83eb4fccbb4947d2aefd55c74465b6001546040516124d29190613219565b60405180910390a1600154600c60003373ffffffffffffffffffffffffffffffffffffffff1673ffffffffffffffffffffffffffffffffffffffff168152602001908152602001600020819055506001600d6000600c60003373ffffffffffffffffffffffffffffffffffffffff1673ffffffffffffffffffffffffffffffffffffffff168152602001908152602001600020548152602001908152602001600020819055506001806000828254019250508190555050505050565b828054600181600116156101000203166002900490600052602060002090601f016020900481019282601f106125cf57805160ff19168380011785556125fd565b828001600101855582156125fd579182015b828111156125fc5782518255916020019190600101906125e1565b5b50905061260a91906126da565b5090565b6040518061012001604052806000815260200160008152602001600081526020016000815260200160008152602001606081526020016000815260200160608152602001606081525090565b828054600181600116156101000203166002900490600052602060002090601f016020900481019282601f1061269b57805160ff19168380011785556126c9565b828001600101855582156126c9579182015b828111156126c85782518255916020019190600101906126ad565b5b5090506126d691906126da565b5090565b6126fc91905b808211156126f85760008160009055506001016126e0565b5090565b90565b60008083601f84011261271157600080fd5b8235905067ffffffffffffffff81111561272a57600080fd5b60208301915083600182028301111561274257600080fd5b9250929050565b60008135905061275881613348565b92915050565b6000806000806040858703121561277457600080fd5b600085013567ffffffffffffffff81111561278e57600080fd5b61279a878288016126ff565b9450945050602085013567ffffffffffffffff8111156127b957600080fd5b6127c5878288016126ff565b925092505092959194509250565b6000602082840312156127e557600080fd5b60006127f384828501612749565b91505092915050565b60008060008060006080868803121561281457600080fd5b600061282288828901612749565b955050602061283388828901612749565b945050604086013567ffffffffffffffff81111561285057600080fd5b61285c888289016126ff565b9350935050606061286f88828901612749565b9150509295509295909350565b60006128888383612f06565b905092915050565b600061289b826132a4565b6128a581856132c7565b9350836020820285016128b785613294565b8060005b858110156128f357848403895281516128d4858261287c565b94506128df836132ba565b925060208a019950506001810190506128bb565b50829750879550505050505092915050565b6000612910826132af565b61291a81856132d8565b935061292a818560208601613304565b61293381613337565b840191505092915050565b600061294b601a836132e9565b91507f4e6f7420612076616c6964205472616e73616374696f6e2049440000000000006000830152602082019050919050565b600061298b6027836132e9565b91507f46756e6374696f6e2043616c6c6572204e6f74206120436f6e6669726d65642060008301527f436974697a656e000000000000000000000000000000000000000000000000006020830152604082019050919050565b60006129f16026836132e9565b91507f5472616e73616374696f6e2068617320616c7265616479206265656e20636f6e60008301527f6669726d656400000000000000000000000000000000000000000000000000006020830152604082019050919050565b6000612a576029836132e9565b91507f5472616e73616374696f6e20696420616e6420627579657220696420646f657360008301527f6e2774206d6174636800000000000000000000000000000000000000000000006020830152604082019050919050565b6000612abd6019836132e9565b91507f5468652056616c696461746f722049442069732077726f6e67000000000000006000830152602082019050919050565b6000612afd602f836132e9565b91507f4c616e64205265636f72642068617320746f206265656e20636f6e6669726d6560008301527f6420746f207468652053797374656d00000000000000000000000000000000006020830152604082019050919050565b6000612b636030836132e9565b91507f4f6e6c79204f776e6572206f66207468652070726f70657274792063616e207360008301527f656c6c207468652070726f7065727479000000000000000000000000000000006020830152604082019050919050565b6000612bc9602d836132e9565b91507f42757965722068617320616c726561647920636f6e6669726d6564202074686960008301527f73205472616e73616374696f6e000000000000000000000000000000000000006020830152604082019050919050565b6000612c2f6024836132e9565b91507f42757965725f4944206973206e6f7420617070726f707269617465204275796560008301527f72204944000000000000000000000000000000000000000000000000000000006020830152604082019050919050565b6000612c956032836132e9565b91507f4861736e2774206265656e2061736b656420746f2062652061757468656e746960008301527f63617465642061732056616c696461746f7200000000000000000000000000006020830152604082019050919050565b6000612cfb6012836132e9565b91507f416c7265616479205265676973746572656400000000000000000000000000006000830152602082019050919050565b6000612d3b6029836132e9565b91507f596f7520617265206e6f7420616c6c6f77656420746f207065666f726d20746860008301527f697320616374696f6e00000000000000000000000000000000000000000000006020830152604082019050919050565b6000612da16032836132e9565b91507f43616e6e6f7420526571756573742061205472616e73616374696f6e2057697460008301527f686f757420706179696e672061204665652000000000000000000000000000006020830152604082019050919050565b6000612e076029836132e9565b91507f46756e6374696f6e2043616c6c6572204e6f74206120436f6e6669726d65642060008301527f56616c696461746f7200000000000000000000000000000000000000000000006020830152604082019050919050565b6000612e6d601d836132e9565b91507f43616e7420456e646f7273652074686973205472616e73616374696f6e0000006000830152602082019050919050565b6000612ead6030836132e9565b91507f4861736e2774206265656e2061736b656420746f2062652061757468656e746960008301527f636174656420617320436974697a656e000000000000000000000000000000006020830152604082019050919050565b600061012083016000830151612f1f6000860182612fd9565b506020830151612f326020860182612fd9565b506040830151612f456040860182612fd9565b506060830151612f586060860182612fd9565b506080830151612f6b6080860182612fd9565b5060a083015184820360a0860152612f838282612905565b91505060c0830151612f9860c0860182612fd9565b5060e083015184820360e0860152612fb08282612905565b915050610100830151848203610100860152612fcc8282612905565b9150508091505092915050565b612fe2816132fa565b82525050565b612ff1816132fa565b82525050565b600060208201905081810360008301526130118184612890565b905092915050565b600060208201905081810360008301526130328161293e565b9050919050565b600060208201905081810360008301526130528161297e565b9050919050565b60006020820190508181036000830152613072816129e4565b9050919050565b6000602082019050818103600083015261309281612a4a565b9050919050565b600060208201905081810360008301526130b281612ab0565b9050919050565b600060208201905081810360008301526130d281612af0565b9050919050565b600060208201905081810360008301526130f281612b56565b9050919050565b6000602082019050818103600083015261311281612bbc565b9050919050565b6000602082019050818103600083015261313281612c22565b9050919050565b6000602082019050818103600083015261315281612c88565b9050919050565b6000602082019050818103600083015261317281612cee565b9050919050565b6000602082019050818103600083015261319281612d2e565b9050919050565b600060208201905081810360008301526131b281612d94565b9050919050565b600060208201905081810360008301526131d281612dfa565b9050919050565b600060208201905081810360008301526131f281612e60565b9050919050565b6000602082019050818103600083015261321281612ea0565b9050919050565b600060208201905061322e6000830184612fe8565b92915050565b60006040820190506132496000830185612fe8565b6132566020830184612fe8565b9392505050565b60006060820190506132726000830186612fe8565b61327f6020830185612fe8565b61328c6040830184612fe8565b949350505050565b6000819050602082019050919050565b600081519050919050565b600081519050919050565b6000602082019050919050565b600082825260208201905092915050565b600082825260208201905092915050565b600082825260208201905092915050565b6000819050919050565b60005b83811015613322578082015181840152602081019050613307565b83811115613331576000848401525b50505050565b6000601f19601f8301169050919050565b613351816132fa565b811461335c57600080fd5b5056fea365627a7a72315820565402ffafe792c1ddbfe44090feed867133447106bca798ea18058e460c91b46c6578706572696d656e74616cf564736f6c63430005100040",
  "source": "/// SPDX-License-Identifier: MIT\npragma solidity >=0.4.22 <0.9.0;\npragma experimental ABIEncoderV2;\n\n\n\n\n\ncontract LandRegistry {\n\n// ************************************************ SOME USEFULE GLOBAL DATA VARIABLES **************************************\n\n    ///@dev used to assign id to the newly registered properties\n    uint256 current_property_id = 1;\n    ///@dev used to assign id to the newly registered citizen nodes.\n    uint256 current_citizen_id = 1;\n    ///@dev used to assign id to the newly registered validator nodes.\n    uint256 current_validator_id = 1;\n    ///@dev used to assign a id to a owner,property parir\n    uint256 current_ownership_id = 1;\n    ///@dev used to assign id to the transaction_id\n    uint256 current_transaction_id = 1;\n    ///@dev currently set transaction fee\n    ///@dev fee can be increased to decrease traffic\n    ///@dev important for bogus request to bog up the system\n    uint256 current_transaction_fee = 25;\n\n    ///@notice stores the address of the owner of the contract (Here the Goverment)\n    ///@dev only he or she can call the certain function\n    address contract_owner = address(0);\n\n    ///stores the minmimum votes one need to confirm a transaction\n    uint256 threshold = 2;\n\n\n// ************************************************** REQUIRED STRUCTS **********************************************\n\n    ///@notice structure to store ownership details of a property\n    ///@param property_id is the id of the property\n    ///@param buying_cost notes the price of the property that the owner bought it for\n    ///@param owner_name name of the owner\n    ///@param owner_id id of the owner\n    ///@param status stores the status of the ownership /OWNING,SOLD\n    ///@param proof store a string as proof of ownership /proxy for uploading papers\n    struct ownership{\n        uint256 ownership_id;\n        uint256 property_id;\n        uint256 buying_cost;\n        uint256 from ;\n        uint256 to;\n        string owner_name;\n        uint256 owner_id;\n        string status;\n        string proof ;\n\n\n    }\n\n    ///@notice structure to store ownership details of a property\n    ///@param property_address stores the actual address of the property\n    ///@param property_id is the id of the property\n    ///@param current_owner_id stores the id of the current owner\n    ///@param current_proof stores the proof of the current owners ownership\n    ///@param current_ownership_id is used to index all past/present ownership\n    ///@param status stores the property status / UNVERIFIED(0),VERIFIED\n    struct property{\n        uint256 property_id;\n        string property_address;\n        \n        uint256 status;\n        uint256 current_owner_id;\n        string current_proof;\n        uint256 current_ownership_id;\n        mapping(uint256 => ownership) owners;\n    }\n\n    ///@notice structure of the citizen node in the network\n    ///@param citizen_id id of the citizen\n    ///@param citizen_digital_address stores the digital address of the citizen\n    ///@param properties stores a list of all currently and previously owned properties of owner\n    ///@param identity_proof is the proof of the citizens id.Something likely uploading an actual addhar card photo \n    ///@param status stores the status/role of the citizen // UNVERIFIED(0),VERIFIED(1)\n    ///@param name stores the name of the citizen\n    struct citizen{\n        uint256 citizen_id;\n        address citizen_digital_address;\n        string name;\n    \n        \n        string identity_proof;\n        uint256 status;\n        //mapping(uint256 => property) properties;\n\n    }\n\n    ///@notice struct for the validators\n    ///@param validator_id is the id of the validator\n    ///@param validator_address address of the validator\n    ///@param validations stores the list of validations the validators has endorsed,int is the id of the transactions\n    ///@param name of the validator\n    ///@param proof some proxy for goverment ID\n\n    ///@param status of the validator // UNVERIFIED(0)/VERIFIED(1)\n    struct validator{\n        \n        uint256 validator_id;\n        address validator_address;\n        string name ;\n        \n        uint256 status;\n        string proof;\n        mapping(uint256 => bool) validations;\n        \n\n    }\n\n\n    ///@notice structure to store ownership details of a property\n    ///@param transaction_type \"REGISTRATION(0) / TRANSFER(1)\"\n    ///@param transaction_id stores the id of the transaction\n    ///@param property_id is the id of the property\n    ///@param seller_id id of the current owner\n    ///@param buyer_id id of the new_buyer\n    ///@param transaction_id id of the transaction\n    ///@param transaction_price selling price /buying price\n    ///@param transaction_fee store the fee paid for the transaction,processing fee\n    ///@param proof stores the document required to prove the transaction (proxy)\n    ///@param votes stores the number of endorsement the transaction has recieved\n    ///@param endorsable makes the transaction ready to be endorsable\n    ///@param validators the list of endorsers    \n    ///@param confirmed becomes true when the transaction is confirmed\n    struct transaction{\n        uint256 transaction_type ;\n        uint256 property_id;\n        uint256 seller_id;\n        uint256 buyer_id;\n        uint256 transaction_id;\n        uint256 transaction_price ;\n        uint256 transaction_fee;\n        string proof;\n        //uint256 status ;\n        uint256 votes ;\n        bool endorsable ;\n        bool confirmed ;\n        mapping(uint256 => bool) validators;\n\n    }\n    \n\n// ****************************************************** EVENTS **************************************************    \n    \n    ///@dev this event is for when a citizen asks to be registered\n    event CitizenValidationRequested(uint256 citizen_id);\n    \n    ///@dev this event is for when a citizen asks to be registered\n    ///@dev one validator can validate a citizen\n    event CitizenValidated(uint256 citizen_id,uint256 validator_id);\n\n    ///@dev this event is for when a validator/goverment official ask to be validated\n    event ValidatorValidationRequest(uint256 validator_id);\n\n    ///@dev this event is for when owner of the contract validates the validator\n    event ValidatorApproved(uint256 validator_id);\n\n    ///@dev this event is for Seller to make Transaction Request\n    event SellPropertyRequest(uint256 transaction_id,uint256 seller_id);\n\n    ///@dev this event if for the Buyer to confirm a transaction\n    ///@dev seller must make the request first\n    event BuyPropertyRequest(uint256 transaction_id,uint256 buyer_id);\n\n    ///@dev this event is for Register Property Request\n    event RegisterPropertyRequest(uint256 transaction_id,uint256 owner_id);\n\n    ///@dev this event is for validator to endorse a transaction\n    event TransactionEndorsed(uint256 transaction_id,uint256 validator_id);\n\n    ///@dev this event is for when transaction is confirmed \n    event TransactionConfirmed(uint256 transaction_id);\n\n    ///@dev this event is for when property ownership has been modified\n    event OwnershipChanged(uint256 property_id,uint256 previous_owner_id,uint256 new_owner_id); \n\n\n\n\n// ************************************************** GLOBAL DATA STORAGE ************************************\n\n\n    \n    /// @dev  create a list of properties\n    mapping(uint256 => property) properties;\n    /// @dev create a list of citizens\n    mapping(uint256 => citizen) citizens;\n    /// @dev create a list of validators \n    mapping(uint256 => validator) validators;\n    ///@dev create a list of transactions\n    mapping(uint256 => transaction) transactions;\n    ///@dev mapping of address to id\n    mapping(address => uint256) ids;\n    ///@dev mapping of ids to roles /0 for unregistered(default),(1 for unconfirmed citizen),(2 for confirmed citizen)\n    ///@dev (3 for unconfirmed validator) ,(4 for confirmed validator)\n    mapping(uint256 => uint256) roles;\n\n\n// ************************************************ MODIFIERS *********************************************\n\n    /// Check whether a given condition is true\n    /// @param _condition condition statement to verify.\n    modifier condition(bool _condition) {\n        require(_condition);\n        _;\n    }\n\n    \n    ///@dev only owner of the contract can perform certain actions\n    modifier OnlyOwner(){\n        require(msg.sender == contract_owner, \"You are not allowed to peform this action\");\n        _;\n    }\n\n    ///@notice transaction_id has to be valid\n    ///@param transaction_id is the id of the transaction\n    modifier ValidTransaction(uint256 transaction_id){\n        require(transaction_id < current_transaction_id,\"Not a valid Transaction ID\");\n        _;\n    }\n\n            \n    ///@notice the buyer has be the same as given in transaction\n    /// @param transaction_id id of the transaction\n    modifier OnlyBuyer(uint256 transaction_id) {\n        require(ids[msg.sender] == transactions[transaction_id].buyer_id,\"Transaction id and buyer id doesn't match\");\n        _;\n    }\n\n    ///@notice the buyer has to be confirmed citizen\n    /// @param buyer_id  Id of the buyer id.\n    modifier ValidBuyer(uint256 buyer_id){\n        require(roles[buyer_id] == 2,\"Buyer_ID is not appropriate Buyer ID\");\n        _;\n    }\n\n    ///@notice check whether the transaction can be endorsed\n    ///@param transaction_id is the id of the transaction\n    modifier EndorsableTransaction(uint256 transaction_id){\n        require(transactions[transaction_id].endorsable == true,\"Cant Endorse this Transaction\");\n        _; \n                    \n    }\n\n      ///@notice check whether the transaction cannot be endorsed\n    ///@param transaction_id is the id of the transaction\n    modifier UnendorsableTransaction(uint256 transaction_id){\n        require(transactions[transaction_id].endorsable != true,\"Buyer has already confirmed  this Transaction\");\n        _; \n                    \n    }\n    \n    \n\n    ///@notice has to be valid citizen \n    modifier ValidCitizen() {\n        require(roles[ids[msg.sender]] == 2,\"Function Caller Not a Confirmed Citizen\");\n        _;\n    }\n\n    ///@notice has to be valid validator\n    modifier ValidValidator() {\n        require(roles[ids[msg.sender]] == 4,\"Function Caller Not a Confirmed Validator\");\n        _;\n    }\n    ///@notice has to be valid validator_id\n    ///@param validator_id is the id provided\n    modifier ValidValidatorID(uint256 validator_id) {\n        require(validator_id < current_validator_id,\"The Validator ID is wrong\");\n        _;\n    }\n\n    ///@notice has to be valid citize_id\n    ///@param citizen_id is the id of the citizen\n    modifier ValidCitizenID(uint256 citizen_id) {\n        require(citizen_id < current_citizen_id,\"The Validator ID is wrong\");\n        _;\n    }\n\n     ///@notice has to be uncorfimed citizen \n     ///@param citizen_id has to be id of the citizen\n    modifier RequestedCitizen(uint256 citizen_id) {\n        require(roles[citizen_id] == 1,\"Hasn't been asked to be authenticated as Citizen\");\n        _;\n    }\n\n    ///@notice has to be uncomfirmed validator\n    ///@param validator_id has to be id of the validator\n    modifier RequestedValidator(uint256 validator_id) {\n        require(roles[validator_id] == 3,\"Hasn't been asked to be authenticated as Validator\");\n        _;\n    }\n\n\n    \n    ///@notice has to be valid property\n    ///@param property_id is the id of the property\n    modifier ValidPropertyID(uint256 property_id){\n        require(property_id < current_property_id,\"Invalid Property ID\");\n        _;\n\n    }\n\n    ///@notice has to be confirmed property\n    ///@param property_id is the id of the property\n    modifier ConfirmedProperty(uint256 property_id){\n        require(properties[property_id].status == 1,\"Land Record has to been confirmed to the System\");\n        _;\n    }\n\n    ///@notice Seller has to be owner of the property he is selling\n    ///@param property_id is the id of the property\n    modifier ValidSeller(uint256 property_id){\n        require(properties[property_id].current_owner_id == ids[msg.sender],\"Only Owner of the property can sell the property\");\n        _;\n    }\n\n    ///@notice Used to make sure only unregistered person can register\n    modifier Unregistered(){\n        require(roles[ids[msg.sender]] != 0,\"Already Registered\");\n        _;\n    }\n\n    ///@notice used to ensure transaction fee is paid\n    modifier FeePaid(){\n        require(msg.value >= current_transaction_fee,\"Cannot Request a Transaction Without paying a Fee \");\n        _;\n    }\n\n    ///@notice transaction should be uncomfirmed\n    modifier UnconfirmedTransaction(uint256 transaction_id){\n        require(transactions[transaction_id].confirmed == false,\"Transaction has already been confirmed\");\n        _;\n    }\n\n    // ************************************************ FUNCTIONS *******************************************\n\n\n\n    ///@notice this is like the constructor of the contructor,Owner of the contract calls \n    ///@notice immediately after it is deployed and it stores the owners address\n    function start() external {\n        contract_owner = msg.sender;\n\n    }\n\n    /// @dev the function is used by the validator to ask to authenticated\n    /// @param name of the validator\n    /// @param proof some form of goverment issue id \n    function registerValidator(\n        string calldata name, \n        string calldata proof) \n        external\n        Unregistered() {\n        validators[current_validator_id] = validator(\n            current_validator_id,\n            msg.sender,\n            name,\n            0,\n            proof\n\n        );\n        emit ValidatorValidationRequest(current_validator_id);\n        roles[current_validator_id] = 3;\n        ids[msg.sender] = current_validator_id;\n        current_validator_id += 1;\n\n        \n\n    } \n\n    /// @dev the function is used by the validator to ask to authenticated\n    /// @param name of the validator\n    /// @param identity_proof some form of goverment issue id \n    function registerCitizen(\n        string calldata name, \n        string calldata identity_proof) \n        external\n        Unregistered() {\n\n        citizens[current_citizen_id] = citizen(\n            current_citizen_id,\n            msg.sender,\n            name,\n            identity_proof,\n            0\n      \n        );\n        emit CitizenValidationRequested(current_citizen_id);\n        \n        ids[msg.sender] = current_citizen_id;\n        roles[ids[msg.sender]]= 1;\n        current_citizen_id += 1;\n\n        \n\n    }\n\n    ///@dev function is called by owner to approved a unconfirmed validator\n    ///@param validator_id is the id of the validator\n    function approveValidator(uint256 validator_id)\n        external\n        OnlyOwner()\n        ValidValidatorID(validator_id)\n        RequestedValidator(validator_id){\n            validators[validator_id].status = 1;\n            roles[validator_id] = 4;\n            emit ValidatorApproved(validator_id);\n\n\n    }\n    \n    ///@dev function is called by approved validator to approv a unconfirmed citizen\n    ///@param citizen_id is the id of the citizen\n    function endorseCitizen(uint256 citizen_id)\n        external\n        ValidValidator()\n        ValidCitizenID(citizen_id)\n        RequestedCitizen(citizen_id){\n            citizens[citizen_id].status = 1;\n            roles[citizen_id] = 2;\n            emit CitizenValidated(citizen_id, ids[msg.sender]);\n\n\n    }\n\n\n    ///@dev function to request a property be registered\n    ///@param property_address stores the address of the property\n    ///@param proof is a proxy for some document to prove ownerhsip\n    function registerProperty(string calldata property_address,string calldata proof)\n        external\n        payable\n        ValidCitizen()\n        FeePaid(){\n            properties[current_property_id] = property(\n                current_property_id,\n                property_address,\n                0,\n                0,\n                proof,\n                1\n\n\n            );\n            transactions[current_transaction_id] = transaction(\n                0 ,\n                current_property_id,\n                0,\n                ids[msg.sender],\n                current_transaction_id,\n                0,\n                msg.value,\n                proof,\n            \n                0,\n                true,\n                false\n\n            );\n            emit RegisterPropertyRequest(current_transaction_id,ids[msg.sender]);\n\n            current_property_id += 1;\n            current_transaction_id += 1;\n            \n\n\n        }\n    \n\n    ///@dev request a transaction by seller to sell a property\n    ///@param property_id is the id of the property\n    ///@param proof is some sort of proxy for proof\n    ///@param transaction_price is the price of the transaction\n    function SellProperty(uint256 property_id,uint256 buyer_id,string calldata proof,uint256 transaction_price)\n        external\n        payable\n        ConfirmedProperty(property_id)\n        ValidSeller(property_id)\n        ValidBuyer(buyer_id)\n        FeePaid(){\n              transactions[current_transaction_id] = transaction(\n                1 ,\n                property_id,\n                ids[msg.sender],\n                buyer_id,\n                current_transaction_id,\n                transaction_price,\n                msg.value,\n                proof,\n\n                0,\n                false,\n                false\n\n            );\n            emit SellPropertyRequest(current_transaction_id,ids[msg.sender]);\n            current_transaction_id += 1;\n    }\n\n    ///@dev buyer confirms the transaction\n    ///@param transaction_id is the id of the transaction\n    function ConfirmBuy(uint256 transaction_id)\n    external\n    ValidTransaction(transaction_id)\n    UnconfirmedTransaction(transaction_id) \n    UnendorsableTransaction(transaction_id)\n    ValidCitizen()\n    OnlyBuyer(transaction_id){\n        transactions[transaction_id].endorsable = true;\n        emit BuyPropertyRequest(transaction_id,ids[msg.sender]);\n        \n    }\n\n    /// @dev called by the validator to endorse\n    /// @dev if neccessary amount of votes has reached confirm transaction\n    /// @param transaction_id is the id of the transaction \n    function endorseTransaction(uint256 transaction_id)\n    external\n    ValidValidator()\n    UnconfirmedTransaction(transaction_id)\n    ValidTransaction(transaction_id)\n    EndorsableTransaction(transaction_id){\n        transactions[transaction_id].votes += 1;\n        transactions[transaction_id].validators[ids[msg.sender]] = true;\n        validators[ids[msg.sender]].validations[transaction_id] = true; \n        if(transactions[transaction_id].votes >= threshold)\n        {\n            // if the transaction is a registration\n            if(transactions[transaction_id].transaction_type == 0){\n                uint256 property_id = transactions[transaction_id].property_id;\n                properties[property_id].current_owner_id = transactions[transaction_id].buyer_id;\n                properties[property_id].status = 1;\n                uint256 ownership_id = properties[property_id].current_ownership_id;\n                properties[property_id].current_ownership_id += 1;\n                properties[property_id].owners[ownership_id] = ownership(\n                    ownership_id,\n                    property_id,\n                    0 , //buying cost is zero as this is registrationa\n                    0 , // from is 0 as no previous owner \n                    transactions[transaction_id].buyer_id, //to\n                    citizens[transactions[transaction_id].buyer_id].name, // name of the owner\n                    transactions[transaction_id].buyer_id, //to\n                    \"OWNING\", // status \n                    transactions[transaction_id].proof\n\n                );\n            }\n            if(transactions[transaction_id].transaction_type == 1){\n                uint256 property_id = transactions[transaction_id].property_id;\n                properties[property_id].current_owner_id = transactions[transaction_id].buyer_id;\n                properties[property_id].status = 1;\n                uint256 ownership_id = properties[property_id].current_ownership_id;\n                properties[property_id].owners[ownership_id - 1].status = \"SOLD\";\n                properties[property_id].current_ownership_id += 1;\n                properties[property_id].owners[ownership_id] = ownership(\n                    ownership_id,\n                    property_id,\n                    transactions[transaction_id].transaction_price , //buying cost is zero as this is registrationa\n                    transactions[transaction_id].seller_id , // \n                    transactions[transaction_id].buyer_id, //to\n                    citizens[transactions[transaction_id].buyer_id].name, // name of the owner\n                    transactions[transaction_id].buyer_id, //to\n                    \"OWNING\", // status \n                    transactions[transaction_id].proof\n                );\n                emit OwnershipChanged(property_id,transactions[transaction_id].seller_id,transactions[transaction_id].buyer_id); \n\n            }\n            emit TransactionConfirmed(transaction_id);\n        }\n        emit TransactionEndorsed(transaction_id,ids[msg.sender]);\n \n\n\n    }\n    /*\n    ///@dev function to display all pending Transactions \n    ///@return a list of all pending transactions\n    function showAllPendingTransactions() external view returns (transaction[] memory) {\n        uint256 indx = 0;\n        uint256 pending_size = 0;\n        for(uint256 i = 1; i < current_transaction_id; i++) {\n            if(transactions[i].confirmed == false){\n                 pending_size += 1;\n\n            }\n        }\n        transaction[] memory pending_transactions = new transaction[](pending_size);\n        for(uint256 j = 1; j < current_transaction_id; j++) {\n             if(transactions[j].confirmed == false){\n                transaction storage currenttransaction = transactions[j];\n                pending_transactions[indx] = currenttransaction;\n                indx += 1;\n\n             }\n        }\n        return pending_transactions;\n    }\n    */\n\n\n    \n\n    ///@dev function to display all ownership history of a property\n    ///@return a list of all previous/current ownership\n    ///@param property_id is the id of the property of interest\n    function showPastOwnership(uint256 property_id) external view returns (ownership[] memory) {\n        uint256 indx = 0;\n        uint256 size = properties[property_id].current_ownership_id - 1;\n        ownership[] memory past_ownership = new ownership[](size);\n        for(uint256 j = 1; j < size + 1; j++) {\n            ownership storage ownership_info = properties[property_id].owners[j];\n                past_ownership[indx] = ownership_info;\n                indx += 1;\n\n        }\n        return past_ownership;\n\n\n    }\n}\n\n    \n\n    \n\n    \n",
  "sourcePath": "/home/tathagato/Desktop/Block-Chain-Collab/LandTitles/contracts/LandRegistry.sol",
  "compiler": {
    "name": "solc",
    "version": "0.5.16+commit.9c3226ce.Emscripten.clang"
  },
  "schemaVersion": "3.4.3",
  "updatedAt": "2021-12-06T03:46:35.873Z",
  "devdoc": {
    "methods": {
      "ConfirmBuy(uint256)": {
        "details": "buyer confirms the transaction",
        "params": {
          "transaction_id": "is the id of the transaction"
        }
      },
      "SellProperty(uint256,uint256,string,uint256)": {
        "details": "request a transaction by seller to sell a property",
        "params": {
          "proof": "is some sort of proxy for proof",
          "property_id": "is the id of the property",
          "transaction_price": "is the price of the transaction"
        }
      },
      "approveValidator(uint256)": {
        "details": "function is called by owner to approved a unconfirmed validator",
        "params": {
          "validator_id": "is the id of the validator"
        }
      },
      "endorseCitizen(uint256)": {
        "details": "function is called by approved validator to approv a unconfirmed citizen",
        "params": {
          "citizen_id": "is the id of the citizen"
        }
      },
      "endorseTransaction(uint256)": {
        "details": "called by the validator to endorseif neccessary amount of votes has reached confirm transaction",
        "params": {
          "transaction_id": "is the id of the transaction "
        }
      },
      "registerCitizen(string,string)": {
        "details": "the function is used by the validator to ask to authenticated",
        "params": {
          "identity_proof": "some form of goverment issue id ",
          "name": "of the validator"
        }
      },
      "registerProperty(string,string)": {
        "details": "function to request a property be registered",
        "params": {
          "proof": "is a proxy for some document to prove ownerhsip",
          "property_address": "stores the address of the property"
        }
      },
      "registerValidator(string,string)": {
        "details": "the function is used by the validator to ask to authenticated",
        "params": {
          "name": "of the validator",
          "proof": "some form of goverment issue id "
        }
      },
      "showPastOwnership(uint256)": {
        "details": "function to display all ownership history of a property",
        "params": {
          "property_id": "is the id of the property of interest"
        },
        "return": "a list of all previous/current ownership"
      }
    }
  },
  "userdoc": {
    "methods": {
      "start()": {
        "notice": "this is like the constructor of the contructor,Owner of the contract calls immediately after it is deployed and it stores the owners address"
      }
    }
  }
}